ARM GAS  /tmp/ccBhO7KS.s 			page 1


   1              		.cpu cortex-m4
   2              		.eabi_attribute 27, 1
   3              		.eabi_attribute 28, 1
   4              		.eabi_attribute 20, 1
   5              		.eabi_attribute 21, 1
   6              		.eabi_attribute 23, 3
   7              		.eabi_attribute 24, 1
   8              		.eabi_attribute 25, 1
   9              		.eabi_attribute 26, 1
  10              		.eabi_attribute 30, 1
  11              		.eabi_attribute 34, 1
  12              		.eabi_attribute 18, 4
  13              		.file	"stm32f4xx_hal_msp.c"
  14              		.text
  15              	.Ltext0:
  16              		.cfi_sections	.debug_frame
  17              		.section	.text.HAL_MspInit,"ax",%progbits
  18              		.align	1
  19              		.global	HAL_MspInit
  20              		.arch armv7e-m
  21              		.syntax unified
  22              		.thumb
  23              		.thumb_func
  24              		.fpu fpv4-sp-d16
  26              	HAL_MspInit:
  27              	.LFB130:
  28              		.file 1 "Src/stm32f4xx_hal_msp.c"
   1:Src/stm32f4xx_hal_msp.c **** /* USER CODE BEGIN Header */
   2:Src/stm32f4xx_hal_msp.c **** /**
   3:Src/stm32f4xx_hal_msp.c ****   ******************************************************************************
   4:Src/stm32f4xx_hal_msp.c ****   * File Name          : stm32f4xx_hal_msp.c
   5:Src/stm32f4xx_hal_msp.c ****   * Description        : This file provides code for the MSP Initialization 
   6:Src/stm32f4xx_hal_msp.c ****   *                      and de-Initialization codes.
   7:Src/stm32f4xx_hal_msp.c ****   ******************************************************************************
   8:Src/stm32f4xx_hal_msp.c ****   * @attention
   9:Src/stm32f4xx_hal_msp.c ****   *
  10:Src/stm32f4xx_hal_msp.c ****   * <h2><center>&copy; Copyright (c) 2019 STMicroelectronics.
  11:Src/stm32f4xx_hal_msp.c ****   * All rights reserved.</center></h2>
  12:Src/stm32f4xx_hal_msp.c ****   *
  13:Src/stm32f4xx_hal_msp.c ****   * This software component is licensed by ST under BSD 3-Clause license,
  14:Src/stm32f4xx_hal_msp.c ****   * the "License"; You may not use this file except in compliance with the
  15:Src/stm32f4xx_hal_msp.c ****   * License. You may obtain a copy of the License at:
  16:Src/stm32f4xx_hal_msp.c ****   *                        opensource.org/licenses/BSD-3-Clause
  17:Src/stm32f4xx_hal_msp.c ****   *
  18:Src/stm32f4xx_hal_msp.c ****   ******************************************************************************
  19:Src/stm32f4xx_hal_msp.c ****   */
  20:Src/stm32f4xx_hal_msp.c **** /* USER CODE END Header */
  21:Src/stm32f4xx_hal_msp.c **** 
  22:Src/stm32f4xx_hal_msp.c **** /* Includes ------------------------------------------------------------------*/
  23:Src/stm32f4xx_hal_msp.c **** #include "main.h"
  24:Src/stm32f4xx_hal_msp.c **** /* USER CODE BEGIN Includes */
  25:Src/stm32f4xx_hal_msp.c **** 
  26:Src/stm32f4xx_hal_msp.c **** /* USER CODE END Includes */
  27:Src/stm32f4xx_hal_msp.c **** 
  28:Src/stm32f4xx_hal_msp.c **** /* Private typedef -----------------------------------------------------------*/
  29:Src/stm32f4xx_hal_msp.c **** /* USER CODE BEGIN TD */
  30:Src/stm32f4xx_hal_msp.c **** 
ARM GAS  /tmp/ccBhO7KS.s 			page 2


  31:Src/stm32f4xx_hal_msp.c **** /* USER CODE END TD */
  32:Src/stm32f4xx_hal_msp.c **** 
  33:Src/stm32f4xx_hal_msp.c **** /* Private define ------------------------------------------------------------*/
  34:Src/stm32f4xx_hal_msp.c **** /* USER CODE BEGIN Define */
  35:Src/stm32f4xx_hal_msp.c ****  
  36:Src/stm32f4xx_hal_msp.c **** /* USER CODE END Define */
  37:Src/stm32f4xx_hal_msp.c **** 
  38:Src/stm32f4xx_hal_msp.c **** /* Private macro -------------------------------------------------------------*/
  39:Src/stm32f4xx_hal_msp.c **** /* USER CODE BEGIN Macro */
  40:Src/stm32f4xx_hal_msp.c **** 
  41:Src/stm32f4xx_hal_msp.c **** /* USER CODE END Macro */
  42:Src/stm32f4xx_hal_msp.c **** 
  43:Src/stm32f4xx_hal_msp.c **** /* Private variables ---------------------------------------------------------*/
  44:Src/stm32f4xx_hal_msp.c **** /* USER CODE BEGIN PV */
  45:Src/stm32f4xx_hal_msp.c **** 
  46:Src/stm32f4xx_hal_msp.c **** /* USER CODE END PV */
  47:Src/stm32f4xx_hal_msp.c **** 
  48:Src/stm32f4xx_hal_msp.c **** /* Private function prototypes -----------------------------------------------*/
  49:Src/stm32f4xx_hal_msp.c **** /* USER CODE BEGIN PFP */
  50:Src/stm32f4xx_hal_msp.c **** 
  51:Src/stm32f4xx_hal_msp.c **** /* USER CODE END PFP */
  52:Src/stm32f4xx_hal_msp.c **** 
  53:Src/stm32f4xx_hal_msp.c **** /* External functions --------------------------------------------------------*/
  54:Src/stm32f4xx_hal_msp.c **** /* USER CODE BEGIN ExternalFunctions */
  55:Src/stm32f4xx_hal_msp.c **** 
  56:Src/stm32f4xx_hal_msp.c **** /* USER CODE END ExternalFunctions */
  57:Src/stm32f4xx_hal_msp.c **** 
  58:Src/stm32f4xx_hal_msp.c **** /* USER CODE BEGIN 0 */
  59:Src/stm32f4xx_hal_msp.c **** 
  60:Src/stm32f4xx_hal_msp.c **** /* USER CODE END 0 */
  61:Src/stm32f4xx_hal_msp.c ****                         
  62:Src/stm32f4xx_hal_msp.c **** void HAL_TIM_MspPostInit(TIM_HandleTypeDef *htim);
  63:Src/stm32f4xx_hal_msp.c ****                     /**
  64:Src/stm32f4xx_hal_msp.c ****   * Initializes the Global MSP.
  65:Src/stm32f4xx_hal_msp.c ****   */
  66:Src/stm32f4xx_hal_msp.c **** void HAL_MspInit(void)
  67:Src/stm32f4xx_hal_msp.c **** {
  29              		.loc 1 67 1 view -0
  30              		.cfi_startproc
  31              		@ args = 0, pretend = 0, frame = 8
  32              		@ frame_needed = 0, uses_anonymous_args = 0
  33 0000 00B5     		push	{lr}
  34              	.LCFI0:
  35              		.cfi_def_cfa_offset 4
  36              		.cfi_offset 14, -4
  37 0002 83B0     		sub	sp, sp, #12
  38              	.LCFI1:
  39              		.cfi_def_cfa_offset 16
  68:Src/stm32f4xx_hal_msp.c ****   /* USER CODE BEGIN MspInit 0 */
  69:Src/stm32f4xx_hal_msp.c **** 
  70:Src/stm32f4xx_hal_msp.c ****   /* USER CODE END MspInit 0 */
  71:Src/stm32f4xx_hal_msp.c **** 
  72:Src/stm32f4xx_hal_msp.c ****   __HAL_RCC_SYSCFG_CLK_ENABLE();
  40              		.loc 1 72 3 view .LVU1
  41              	.LBB2:
  42              		.loc 1 72 3 view .LVU2
  43 0004 0021     		movs	r1, #0
ARM GAS  /tmp/ccBhO7KS.s 			page 3


  44 0006 0091     		str	r1, [sp]
  45              		.loc 1 72 3 view .LVU3
  46 0008 0C4B     		ldr	r3, .L3
  47 000a 5A6C     		ldr	r2, [r3, #68]
  48 000c 42F48042 		orr	r2, r2, #16384
  49 0010 5A64     		str	r2, [r3, #68]
  50              		.loc 1 72 3 view .LVU4
  51 0012 5A6C     		ldr	r2, [r3, #68]
  52 0014 02F48042 		and	r2, r2, #16384
  53 0018 0092     		str	r2, [sp]
  54              		.loc 1 72 3 view .LVU5
  55 001a 009A     		ldr	r2, [sp]
  56              	.LBE2:
  73:Src/stm32f4xx_hal_msp.c ****   __HAL_RCC_PWR_CLK_ENABLE();
  57              		.loc 1 73 3 view .LVU6
  58              	.LBB3:
  59              		.loc 1 73 3 view .LVU7
  60 001c 0191     		str	r1, [sp, #4]
  61              		.loc 1 73 3 view .LVU8
  62 001e 1A6C     		ldr	r2, [r3, #64]
  63 0020 42F08052 		orr	r2, r2, #268435456
  64 0024 1A64     		str	r2, [r3, #64]
  65              		.loc 1 73 3 view .LVU9
  66 0026 1B6C     		ldr	r3, [r3, #64]
  67 0028 03F08053 		and	r3, r3, #268435456
  68 002c 0193     		str	r3, [sp, #4]
  69              		.loc 1 73 3 view .LVU10
  70 002e 019B     		ldr	r3, [sp, #4]
  71              	.LBE3:
  74:Src/stm32f4xx_hal_msp.c **** 
  75:Src/stm32f4xx_hal_msp.c ****   HAL_NVIC_SetPriorityGrouping(NVIC_PRIORITYGROUP_0);
  72              		.loc 1 75 3 view .LVU11
  73 0030 0720     		movs	r0, #7
  74 0032 FFF7FEFF 		bl	HAL_NVIC_SetPriorityGrouping
  75              	.LVL0:
  76:Src/stm32f4xx_hal_msp.c **** 
  77:Src/stm32f4xx_hal_msp.c ****   /* System interrupt init*/
  78:Src/stm32f4xx_hal_msp.c **** 
  79:Src/stm32f4xx_hal_msp.c ****   /* USER CODE BEGIN MspInit 1 */
  80:Src/stm32f4xx_hal_msp.c **** 
  81:Src/stm32f4xx_hal_msp.c ****   /* USER CODE END MspInit 1 */
  82:Src/stm32f4xx_hal_msp.c **** }
  76              		.loc 1 82 1 is_stmt 0 view .LVU12
  77 0036 03B0     		add	sp, sp, #12
  78              	.LCFI2:
  79              		.cfi_def_cfa_offset 4
  80              		@ sp needed
  81 0038 5DF804FB 		ldr	pc, [sp], #4
  82              	.L4:
  83              		.align	2
  84              	.L3:
  85 003c 00380240 		.word	1073887232
  86              		.cfi_endproc
  87              	.LFE130:
  89              		.section	.text.HAL_TIM_Base_MspInit,"ax",%progbits
  90              		.align	1
  91              		.global	HAL_TIM_Base_MspInit
ARM GAS  /tmp/ccBhO7KS.s 			page 4


  92              		.syntax unified
  93              		.thumb
  94              		.thumb_func
  95              		.fpu fpv4-sp-d16
  97              	HAL_TIM_Base_MspInit:
  98              	.LVL1:
  99              	.LFB131:
  83:Src/stm32f4xx_hal_msp.c **** 
  84:Src/stm32f4xx_hal_msp.c **** /**
  85:Src/stm32f4xx_hal_msp.c **** * @brief TIM_Base MSP Initialization
  86:Src/stm32f4xx_hal_msp.c **** * This function configures the hardware resources used in this example
  87:Src/stm32f4xx_hal_msp.c **** * @param htim_base: TIM_Base handle pointer
  88:Src/stm32f4xx_hal_msp.c **** * @retval None
  89:Src/stm32f4xx_hal_msp.c **** */
  90:Src/stm32f4xx_hal_msp.c **** void HAL_TIM_Base_MspInit(TIM_HandleTypeDef* htim_base)
  91:Src/stm32f4xx_hal_msp.c **** {
 100              		.loc 1 91 1 is_stmt 1 view -0
 101              		.cfi_startproc
 102              		@ args = 0, pretend = 0, frame = 8
 103              		@ frame_needed = 0, uses_anonymous_args = 0
 104              		@ link register save eliminated.
  92:Src/stm32f4xx_hal_msp.c ****   if(htim_base->Instance==TIM3)
 105              		.loc 1 92 3 view .LVU14
 106              		.loc 1 92 15 is_stmt 0 view .LVU15
 107 0000 0268     		ldr	r2, [r0]
 108              		.loc 1 92 5 view .LVU16
 109 0002 094B     		ldr	r3, .L12
 110 0004 9A42     		cmp	r2, r3
 111 0006 00D0     		beq	.L11
 112 0008 7047     		bx	lr
 113              	.L11:
  91:Src/stm32f4xx_hal_msp.c ****   if(htim_base->Instance==TIM3)
 114              		.loc 1 91 1 view .LVU17
 115 000a 82B0     		sub	sp, sp, #8
 116              	.LCFI3:
 117              		.cfi_def_cfa_offset 8
  93:Src/stm32f4xx_hal_msp.c ****   {
  94:Src/stm32f4xx_hal_msp.c ****   /* USER CODE BEGIN TIM3_MspInit 0 */
  95:Src/stm32f4xx_hal_msp.c **** 
  96:Src/stm32f4xx_hal_msp.c ****   /* USER CODE END TIM3_MspInit 0 */
  97:Src/stm32f4xx_hal_msp.c ****     /* Peripheral clock enable */
  98:Src/stm32f4xx_hal_msp.c ****     __HAL_RCC_TIM3_CLK_ENABLE();
 118              		.loc 1 98 5 is_stmt 1 view .LVU18
 119              	.LBB4:
 120              		.loc 1 98 5 view .LVU19
 121 000c 0023     		movs	r3, #0
 122 000e 0193     		str	r3, [sp, #4]
 123              		.loc 1 98 5 view .LVU20
 124 0010 064B     		ldr	r3, .L12+4
 125 0012 1A6C     		ldr	r2, [r3, #64]
 126 0014 42F00202 		orr	r2, r2, #2
 127 0018 1A64     		str	r2, [r3, #64]
 128              		.loc 1 98 5 view .LVU21
 129 001a 1B6C     		ldr	r3, [r3, #64]
 130 001c 03F00203 		and	r3, r3, #2
 131 0020 0193     		str	r3, [sp, #4]
 132              		.loc 1 98 5 view .LVU22
ARM GAS  /tmp/ccBhO7KS.s 			page 5


 133 0022 019B     		ldr	r3, [sp, #4]
 134              	.LBE4:
  99:Src/stm32f4xx_hal_msp.c ****   /* USER CODE BEGIN TIM3_MspInit 1 */
 100:Src/stm32f4xx_hal_msp.c **** 
 101:Src/stm32f4xx_hal_msp.c ****   /* USER CODE END TIM3_MspInit 1 */
 102:Src/stm32f4xx_hal_msp.c ****   }
 103:Src/stm32f4xx_hal_msp.c **** 
 104:Src/stm32f4xx_hal_msp.c **** }
 135              		.loc 1 104 1 is_stmt 0 view .LVU23
 136 0024 02B0     		add	sp, sp, #8
 137              	.LCFI4:
 138              		.cfi_def_cfa_offset 0
 139              		@ sp needed
 140 0026 7047     		bx	lr
 141              	.L13:
 142              		.align	2
 143              	.L12:
 144 0028 00040040 		.word	1073742848
 145 002c 00380240 		.word	1073887232
 146              		.cfi_endproc
 147              	.LFE131:
 149              		.section	.text.HAL_TIM_MspPostInit,"ax",%progbits
 150              		.align	1
 151              		.global	HAL_TIM_MspPostInit
 152              		.syntax unified
 153              		.thumb
 154              		.thumb_func
 155              		.fpu fpv4-sp-d16
 157              	HAL_TIM_MspPostInit:
 158              	.LVL2:
 159              	.LFB132:
 105:Src/stm32f4xx_hal_msp.c **** 
 106:Src/stm32f4xx_hal_msp.c **** void HAL_TIM_MspPostInit(TIM_HandleTypeDef* htim)
 107:Src/stm32f4xx_hal_msp.c **** {
 160              		.loc 1 107 1 is_stmt 1 view -0
 161              		.cfi_startproc
 162              		@ args = 0, pretend = 0, frame = 24
 163              		@ frame_needed = 0, uses_anonymous_args = 0
 164              		.loc 1 107 1 is_stmt 0 view .LVU25
 165 0000 00B5     		push	{lr}
 166              	.LCFI5:
 167              		.cfi_def_cfa_offset 4
 168              		.cfi_offset 14, -4
 169 0002 87B0     		sub	sp, sp, #28
 170              	.LCFI6:
 171              		.cfi_def_cfa_offset 32
 108:Src/stm32f4xx_hal_msp.c ****   GPIO_InitTypeDef GPIO_InitStruct = {0};
 172              		.loc 1 108 3 is_stmt 1 view .LVU26
 173              		.loc 1 108 20 is_stmt 0 view .LVU27
 174 0004 0023     		movs	r3, #0
 175 0006 0193     		str	r3, [sp, #4]
 176 0008 0293     		str	r3, [sp, #8]
 177 000a 0393     		str	r3, [sp, #12]
 178 000c 0493     		str	r3, [sp, #16]
 179 000e 0593     		str	r3, [sp, #20]
 109:Src/stm32f4xx_hal_msp.c ****   if(htim->Instance==TIM3)
 180              		.loc 1 109 3 is_stmt 1 view .LVU28
ARM GAS  /tmp/ccBhO7KS.s 			page 6


 181              		.loc 1 109 10 is_stmt 0 view .LVU29
 182 0010 0268     		ldr	r2, [r0]
 183              		.loc 1 109 5 view .LVU30
 184 0012 0E4B     		ldr	r3, .L18
 185 0014 9A42     		cmp	r2, r3
 186 0016 02D0     		beq	.L17
 187              	.LVL3:
 188              	.L14:
 110:Src/stm32f4xx_hal_msp.c ****   {
 111:Src/stm32f4xx_hal_msp.c ****   /* USER CODE BEGIN TIM3_MspPostInit 0 */
 112:Src/stm32f4xx_hal_msp.c **** 
 113:Src/stm32f4xx_hal_msp.c ****   /* USER CODE END TIM3_MspPostInit 0 */
 114:Src/stm32f4xx_hal_msp.c ****   
 115:Src/stm32f4xx_hal_msp.c ****     __HAL_RCC_GPIOA_CLK_ENABLE();
 116:Src/stm32f4xx_hal_msp.c ****     /**TIM3 GPIO Configuration    
 117:Src/stm32f4xx_hal_msp.c ****     PA6     ------> TIM3_CH1 
 118:Src/stm32f4xx_hal_msp.c ****     */
 119:Src/stm32f4xx_hal_msp.c ****     GPIO_InitStruct.Pin = GPIO_PIN_6;
 120:Src/stm32f4xx_hal_msp.c ****     GPIO_InitStruct.Mode = GPIO_MODE_AF_PP;
 121:Src/stm32f4xx_hal_msp.c ****     GPIO_InitStruct.Pull = GPIO_NOPULL;
 122:Src/stm32f4xx_hal_msp.c ****     GPIO_InitStruct.Speed = GPIO_SPEED_FREQ_LOW;
 123:Src/stm32f4xx_hal_msp.c ****     GPIO_InitStruct.Alternate = GPIO_AF2_TIM3;
 124:Src/stm32f4xx_hal_msp.c ****     HAL_GPIO_Init(GPIOA, &GPIO_InitStruct);
 125:Src/stm32f4xx_hal_msp.c **** 
 126:Src/stm32f4xx_hal_msp.c ****   /* USER CODE BEGIN TIM3_MspPostInit 1 */
 127:Src/stm32f4xx_hal_msp.c **** 
 128:Src/stm32f4xx_hal_msp.c ****   /* USER CODE END TIM3_MspPostInit 1 */
 129:Src/stm32f4xx_hal_msp.c ****   }
 130:Src/stm32f4xx_hal_msp.c **** 
 131:Src/stm32f4xx_hal_msp.c **** }
 189              		.loc 1 131 1 view .LVU31
 190 0018 07B0     		add	sp, sp, #28
 191              	.LCFI7:
 192              		.cfi_remember_state
 193              		.cfi_def_cfa_offset 4
 194              		@ sp needed
 195 001a 5DF804FB 		ldr	pc, [sp], #4
 196              	.LVL4:
 197              	.L17:
 198              	.LCFI8:
 199              		.cfi_restore_state
 115:Src/stm32f4xx_hal_msp.c ****     /**TIM3 GPIO Configuration    
 200              		.loc 1 115 5 is_stmt 1 view .LVU32
 201              	.LBB5:
 115:Src/stm32f4xx_hal_msp.c ****     /**TIM3 GPIO Configuration    
 202              		.loc 1 115 5 view .LVU33
 203 001e 0023     		movs	r3, #0
 204 0020 0093     		str	r3, [sp]
 115:Src/stm32f4xx_hal_msp.c ****     /**TIM3 GPIO Configuration    
 205              		.loc 1 115 5 view .LVU34
 206 0022 0B4B     		ldr	r3, .L18+4
 207 0024 1A6B     		ldr	r2, [r3, #48]
 208 0026 42F00102 		orr	r2, r2, #1
 209 002a 1A63     		str	r2, [r3, #48]
 115:Src/stm32f4xx_hal_msp.c ****     /**TIM3 GPIO Configuration    
 210              		.loc 1 115 5 view .LVU35
 211 002c 1B6B     		ldr	r3, [r3, #48]
ARM GAS  /tmp/ccBhO7KS.s 			page 7


 212 002e 03F00103 		and	r3, r3, #1
 213 0032 0093     		str	r3, [sp]
 115:Src/stm32f4xx_hal_msp.c ****     /**TIM3 GPIO Configuration    
 214              		.loc 1 115 5 view .LVU36
 215 0034 009B     		ldr	r3, [sp]
 216              	.LBE5:
 119:Src/stm32f4xx_hal_msp.c ****     GPIO_InitStruct.Mode = GPIO_MODE_AF_PP;
 217              		.loc 1 119 5 view .LVU37
 119:Src/stm32f4xx_hal_msp.c ****     GPIO_InitStruct.Mode = GPIO_MODE_AF_PP;
 218              		.loc 1 119 25 is_stmt 0 view .LVU38
 219 0036 4023     		movs	r3, #64
 220 0038 0193     		str	r3, [sp, #4]
 120:Src/stm32f4xx_hal_msp.c ****     GPIO_InitStruct.Pull = GPIO_NOPULL;
 221              		.loc 1 120 5 is_stmt 1 view .LVU39
 120:Src/stm32f4xx_hal_msp.c ****     GPIO_InitStruct.Pull = GPIO_NOPULL;
 222              		.loc 1 120 26 is_stmt 0 view .LVU40
 223 003a 0223     		movs	r3, #2
 224 003c 0293     		str	r3, [sp, #8]
 121:Src/stm32f4xx_hal_msp.c ****     GPIO_InitStruct.Speed = GPIO_SPEED_FREQ_LOW;
 225              		.loc 1 121 5 is_stmt 1 view .LVU41
 122:Src/stm32f4xx_hal_msp.c ****     GPIO_InitStruct.Alternate = GPIO_AF2_TIM3;
 226              		.loc 1 122 5 view .LVU42
 123:Src/stm32f4xx_hal_msp.c ****     HAL_GPIO_Init(GPIOA, &GPIO_InitStruct);
 227              		.loc 1 123 5 view .LVU43
 123:Src/stm32f4xx_hal_msp.c ****     HAL_GPIO_Init(GPIOA, &GPIO_InitStruct);
 228              		.loc 1 123 31 is_stmt 0 view .LVU44
 229 003e 0593     		str	r3, [sp, #20]
 124:Src/stm32f4xx_hal_msp.c **** 
 230              		.loc 1 124 5 is_stmt 1 view .LVU45
 231 0040 01A9     		add	r1, sp, #4
 232 0042 0448     		ldr	r0, .L18+8
 233              	.LVL5:
 124:Src/stm32f4xx_hal_msp.c **** 
 234              		.loc 1 124 5 is_stmt 0 view .LVU46
 235 0044 FFF7FEFF 		bl	HAL_GPIO_Init
 236              	.LVL6:
 237              		.loc 1 131 1 view .LVU47
 238 0048 E6E7     		b	.L14
 239              	.L19:
 240 004a 00BF     		.align	2
 241              	.L18:
 242 004c 00040040 		.word	1073742848
 243 0050 00380240 		.word	1073887232
 244 0054 00000240 		.word	1073872896
 245              		.cfi_endproc
 246              	.LFE132:
 248              		.section	.text.HAL_TIM_Base_MspDeInit,"ax",%progbits
 249              		.align	1
 250              		.global	HAL_TIM_Base_MspDeInit
 251              		.syntax unified
 252              		.thumb
 253              		.thumb_func
 254              		.fpu fpv4-sp-d16
 256              	HAL_TIM_Base_MspDeInit:
 257              	.LVL7:
 258              	.LFB133:
 132:Src/stm32f4xx_hal_msp.c **** /**
ARM GAS  /tmp/ccBhO7KS.s 			page 8


 133:Src/stm32f4xx_hal_msp.c **** * @brief TIM_Base MSP De-Initialization
 134:Src/stm32f4xx_hal_msp.c **** * This function freeze the hardware resources used in this example
 135:Src/stm32f4xx_hal_msp.c **** * @param htim_base: TIM_Base handle pointer
 136:Src/stm32f4xx_hal_msp.c **** * @retval None
 137:Src/stm32f4xx_hal_msp.c **** */
 138:Src/stm32f4xx_hal_msp.c **** void HAL_TIM_Base_MspDeInit(TIM_HandleTypeDef* htim_base)
 139:Src/stm32f4xx_hal_msp.c **** {
 259              		.loc 1 139 1 is_stmt 1 view -0
 260              		.cfi_startproc
 261              		@ args = 0, pretend = 0, frame = 0
 262              		@ frame_needed = 0, uses_anonymous_args = 0
 263              		@ link register save eliminated.
 140:Src/stm32f4xx_hal_msp.c ****   if(htim_base->Instance==TIM3)
 264              		.loc 1 140 3 view .LVU49
 265              		.loc 1 140 15 is_stmt 0 view .LVU50
 266 0000 0268     		ldr	r2, [r0]
 267              		.loc 1 140 5 view .LVU51
 268 0002 054B     		ldr	r3, .L23
 269 0004 9A42     		cmp	r2, r3
 270 0006 00D0     		beq	.L22
 271              	.L20:
 141:Src/stm32f4xx_hal_msp.c ****   {
 142:Src/stm32f4xx_hal_msp.c ****   /* USER CODE BEGIN TIM3_MspDeInit 0 */
 143:Src/stm32f4xx_hal_msp.c **** 
 144:Src/stm32f4xx_hal_msp.c ****   /* USER CODE END TIM3_MspDeInit 0 */
 145:Src/stm32f4xx_hal_msp.c ****     /* Peripheral clock disable */
 146:Src/stm32f4xx_hal_msp.c ****     __HAL_RCC_TIM3_CLK_DISABLE();
 147:Src/stm32f4xx_hal_msp.c ****   /* USER CODE BEGIN TIM3_MspDeInit 1 */
 148:Src/stm32f4xx_hal_msp.c **** 
 149:Src/stm32f4xx_hal_msp.c ****   /* USER CODE END TIM3_MspDeInit 1 */
 150:Src/stm32f4xx_hal_msp.c ****   }
 151:Src/stm32f4xx_hal_msp.c **** 
 152:Src/stm32f4xx_hal_msp.c **** }
 272              		.loc 1 152 1 view .LVU52
 273 0008 7047     		bx	lr
 274              	.L22:
 146:Src/stm32f4xx_hal_msp.c ****   /* USER CODE BEGIN TIM3_MspDeInit 1 */
 275              		.loc 1 146 5 is_stmt 1 view .LVU53
 276 000a 044A     		ldr	r2, .L23+4
 277 000c 136C     		ldr	r3, [r2, #64]
 278 000e 23F00203 		bic	r3, r3, #2
 279 0012 1364     		str	r3, [r2, #64]
 280              		.loc 1 152 1 is_stmt 0 view .LVU54
 281 0014 F8E7     		b	.L20
 282              	.L24:
 283 0016 00BF     		.align	2
 284              	.L23:
 285 0018 00040040 		.word	1073742848
 286 001c 00380240 		.word	1073887232
 287              		.cfi_endproc
 288              	.LFE133:
 290              		.text
 291              	.Letext0:
 292              		.file 2 "/usr/local/arm-none-eabi/include/machine/_default_types.h"
 293              		.file 3 "/usr/local/arm-none-eabi/include/sys/_stdint.h"
 294              		.file 4 "Drivers/CMSIS/Include/core_cm4.h"
 295              		.file 5 "Drivers/CMSIS/Device/ST/STM32F4xx/Include/system_stm32f4xx.h"
ARM GAS  /tmp/ccBhO7KS.s 			page 9


 296              		.file 6 "Drivers/CMSIS/Device/ST/STM32F4xx/Include/stm32f401xe.h"
 297              		.file 7 "Drivers/STM32F4xx_HAL_Driver/Inc/stm32f4xx_hal_def.h"
 298              		.file 8 "Drivers/STM32F4xx_HAL_Driver/Inc/stm32f4xx_hal_gpio.h"
 299              		.file 9 "Drivers/STM32F4xx_HAL_Driver/Inc/stm32f4xx_hal_dma.h"
 300              		.file 10 "Drivers/STM32F4xx_HAL_Driver/Inc/stm32f4xx_hal_tim.h"
 301              		.file 11 "Drivers/STM32F4xx_HAL_Driver/Inc/stm32f4xx_hal_cortex.h"
ARM GAS  /tmp/ccBhO7KS.s 			page 10


DEFINED SYMBOLS
                            *ABS*:0000000000000000 stm32f4xx_hal_msp.c
     /tmp/ccBhO7KS.s:18     .text.HAL_MspInit:0000000000000000 $t
     /tmp/ccBhO7KS.s:26     .text.HAL_MspInit:0000000000000000 HAL_MspInit
     /tmp/ccBhO7KS.s:85     .text.HAL_MspInit:000000000000003c $d
     /tmp/ccBhO7KS.s:90     .text.HAL_TIM_Base_MspInit:0000000000000000 $t
     /tmp/ccBhO7KS.s:97     .text.HAL_TIM_Base_MspInit:0000000000000000 HAL_TIM_Base_MspInit
     /tmp/ccBhO7KS.s:144    .text.HAL_TIM_Base_MspInit:0000000000000028 $d
     /tmp/ccBhO7KS.s:150    .text.HAL_TIM_MspPostInit:0000000000000000 $t
     /tmp/ccBhO7KS.s:157    .text.HAL_TIM_MspPostInit:0000000000000000 HAL_TIM_MspPostInit
     /tmp/ccBhO7KS.s:242    .text.HAL_TIM_MspPostInit:000000000000004c $d
     /tmp/ccBhO7KS.s:249    .text.HAL_TIM_Base_MspDeInit:0000000000000000 $t
     /tmp/ccBhO7KS.s:256    .text.HAL_TIM_Base_MspDeInit:0000000000000000 HAL_TIM_Base_MspDeInit
     /tmp/ccBhO7KS.s:285    .text.HAL_TIM_Base_MspDeInit:0000000000000018 $d

UNDEFINED SYMBOLS
HAL_NVIC_SetPriorityGrouping
HAL_GPIO_Init
