ARM GAS  /tmp/ccJdDnBo.s 			page 1


   1              		.cpu cortex-m4
   2              		.eabi_attribute 27, 1
   3              		.eabi_attribute 28, 1
   4              		.eabi_attribute 20, 1
   5              		.eabi_attribute 21, 1
   6              		.eabi_attribute 23, 3
   7              		.eabi_attribute 24, 1
   8              		.eabi_attribute 25, 1
   9              		.eabi_attribute 26, 1
  10              		.eabi_attribute 30, 1
  11              		.eabi_attribute 34, 1
  12              		.eabi_attribute 18, 4
  13              		.file	"main.c"
  14              		.text
  15              	.Ltext0:
  16              		.cfi_sections	.debug_frame
  17              		.section	.text.MX_GPIO_Init,"ax",%progbits
  18              		.align	1
  19              		.syntax unified
  20              		.thumb
  21              		.thumb_func
  22              		.fpu fpv4-sp-d16
  24              	MX_GPIO_Init:
  25              	.LFB132:
  26              		.file 1 "Src/main.c"
   1:Src/main.c    **** /* USER CODE BEGIN Header */
   2:Src/main.c    **** /**
   3:Src/main.c    ****   ******************************************************************************
   4:Src/main.c    ****   * @file           : main.c
   5:Src/main.c    ****   * @brief          : Main program body
   6:Src/main.c    ****   ******************************************************************************
   7:Src/main.c    ****   * @attention
   8:Src/main.c    ****   *
   9:Src/main.c    ****   * <h2><center>&copy; Copyright (c) 2019 STMicroelectronics.
  10:Src/main.c    ****   * All rights reserved.</center></h2>
  11:Src/main.c    ****   *
  12:Src/main.c    ****   * This software component is licensed by ST under BSD 3-Clause license,
  13:Src/main.c    ****   * the "License"; You may not use this file except in compliance with the
  14:Src/main.c    ****   * License. You may obtain a copy of the License at:
  15:Src/main.c    ****   *                        opensource.org/licenses/BSD-3-Clause
  16:Src/main.c    ****   *
  17:Src/main.c    ****   ******************************************************************************
  18:Src/main.c    ****   */
  19:Src/main.c    **** /* USER CODE END Header */
  20:Src/main.c    **** 
  21:Src/main.c    **** /* Includes ------------------------------------------------------------------*/
  22:Src/main.c    **** #include "main.h"
  23:Src/main.c    **** 
  24:Src/main.c    **** /* Private includes ----------------------------------------------------------*/
  25:Src/main.c    **** /* USER CODE BEGIN Includes */
  26:Src/main.c    **** 
  27:Src/main.c    **** /* USER CODE END Includes */
  28:Src/main.c    **** 
  29:Src/main.c    **** /* Private typedef -----------------------------------------------------------*/
  30:Src/main.c    **** /* USER CODE BEGIN PTD */
  31:Src/main.c    **** 
  32:Src/main.c    **** /* USER CODE END PTD */
ARM GAS  /tmp/ccJdDnBo.s 			page 2


  33:Src/main.c    **** 
  34:Src/main.c    **** /* Private define ------------------------------------------------------------*/
  35:Src/main.c    **** /* USER CODE BEGIN PD */
  36:Src/main.c    **** 
  37:Src/main.c    **** /* USER CODE END PD */
  38:Src/main.c    **** 
  39:Src/main.c    **** /* Private macro -------------------------------------------------------------*/
  40:Src/main.c    **** /* USER CODE BEGIN PM */
  41:Src/main.c    **** 
  42:Src/main.c    **** /* USER CODE END PM */
  43:Src/main.c    **** 
  44:Src/main.c    **** /* Private variables ---------------------------------------------------------*/
  45:Src/main.c    **** 
  46:Src/main.c    **** /* USER CODE BEGIN PV */
  47:Src/main.c    **** 
  48:Src/main.c    **** /* USER CODE END PV */
  49:Src/main.c    **** 
  50:Src/main.c    **** /* Private function prototypes -----------------------------------------------*/
  51:Src/main.c    **** void SystemClock_Config(void);
  52:Src/main.c    **** static void MX_GPIO_Init(void);
  53:Src/main.c    **** /* USER CODE BEGIN PFP */
  54:Src/main.c    **** 
  55:Src/main.c    **** /* USER CODE END PFP */
  56:Src/main.c    **** 
  57:Src/main.c    **** /* Private user code ---------------------------------------------------------*/
  58:Src/main.c    **** /* USER CODE BEGIN 0 */
  59:Src/main.c    **** 
  60:Src/main.c    **** /* USER CODE END 0 */
  61:Src/main.c    **** 
  62:Src/main.c    **** /**
  63:Src/main.c    ****   * @brief  The application entry point.
  64:Src/main.c    ****   * @retval int
  65:Src/main.c    ****   */
  66:Src/main.c    **** int main(void)
  67:Src/main.c    **** {
  68:Src/main.c    ****   /* USER CODE BEGIN 1 */
  69:Src/main.c    **** 
  70:Src/main.c    ****   /* USER CODE END 1 */
  71:Src/main.c    **** 
  72:Src/main.c    ****   /* MCU Configuration--------------------------------------------------------*/
  73:Src/main.c    **** 
  74:Src/main.c    ****   /* Reset of all peripherals, Initializes the Flash interface and the Systick. */
  75:Src/main.c    ****   HAL_Init();
  76:Src/main.c    **** 
  77:Src/main.c    ****   /* USER CODE BEGIN Init */
  78:Src/main.c    **** 
  79:Src/main.c    ****   /* USER CODE END Init */
  80:Src/main.c    **** 
  81:Src/main.c    ****   /* Configure the system clock */
  82:Src/main.c    ****   SystemClock_Config();
  83:Src/main.c    **** 
  84:Src/main.c    ****   /* USER CODE BEGIN SysInit */
  85:Src/main.c    **** 
  86:Src/main.c    ****   /* USER CODE END SysInit */
  87:Src/main.c    **** 
  88:Src/main.c    ****   /* Initialize all configured peripherals */
  89:Src/main.c    ****   MX_GPIO_Init();
ARM GAS  /tmp/ccJdDnBo.s 			page 3


  90:Src/main.c    ****   /* USER CODE BEGIN 2 */
  91:Src/main.c    **** 
  92:Src/main.c    ****   /* USER CODE END 2 */
  93:Src/main.c    **** 
  94:Src/main.c    ****   /* Infinite loop */
  95:Src/main.c    ****   /* USER CODE BEGIN WHILE */
  96:Src/main.c    ****   while (1)
  97:Src/main.c    ****   {
  98:Src/main.c    ****     /* USER CODE END WHILE */
  99:Src/main.c    ****     HAL_GPIO_TogglePin(GPIOA, GPIO_PIN_5);
 100:Src/main.c    ****     HAL_Delay(500);
 101:Src/main.c    ****     /* USER CODE BEGIN 3 */
 102:Src/main.c    ****   }
 103:Src/main.c    ****   /* USER CODE END 3 */
 104:Src/main.c    **** }
 105:Src/main.c    **** 
 106:Src/main.c    **** /**
 107:Src/main.c    ****   * @brief System Clock Configuration
 108:Src/main.c    ****   * @retval None
 109:Src/main.c    ****   */
 110:Src/main.c    **** void SystemClock_Config(void)
 111:Src/main.c    **** {
 112:Src/main.c    ****   RCC_OscInitTypeDef RCC_OscInitStruct = {0};
 113:Src/main.c    ****   RCC_ClkInitTypeDef RCC_ClkInitStruct = {0};
 114:Src/main.c    **** 
 115:Src/main.c    ****   /** Configure the main internal regulator output voltage 
 116:Src/main.c    ****   */
 117:Src/main.c    ****   __HAL_RCC_PWR_CLK_ENABLE();
 118:Src/main.c    ****   __HAL_PWR_VOLTAGESCALING_CONFIG(PWR_REGULATOR_VOLTAGE_SCALE2);
 119:Src/main.c    ****   /** Initializes the CPU, AHB and APB busses clocks 
 120:Src/main.c    ****   */
 121:Src/main.c    ****   RCC_OscInitStruct.OscillatorType = RCC_OSCILLATORTYPE_HSI;
 122:Src/main.c    ****   RCC_OscInitStruct.HSIState = RCC_HSI_ON;
 123:Src/main.c    ****   RCC_OscInitStruct.HSICalibrationValue = RCC_HSICALIBRATION_DEFAULT;
 124:Src/main.c    ****   RCC_OscInitStruct.PLL.PLLState = RCC_PLL_NONE;
 125:Src/main.c    ****   if (HAL_RCC_OscConfig(&RCC_OscInitStruct) != HAL_OK)
 126:Src/main.c    ****   {
 127:Src/main.c    ****     Error_Handler();
 128:Src/main.c    ****   }
 129:Src/main.c    ****   /** Initializes the CPU, AHB and APB busses clocks 
 130:Src/main.c    ****   */
 131:Src/main.c    ****   RCC_ClkInitStruct.ClockType = RCC_CLOCKTYPE_HCLK | RCC_CLOCKTYPE_SYSCLK | RCC_CLOCKTYPE_PCLK1 | R
 132:Src/main.c    ****   RCC_ClkInitStruct.SYSCLKSource = RCC_SYSCLKSOURCE_HSI;
 133:Src/main.c    ****   RCC_ClkInitStruct.AHBCLKDivider = RCC_SYSCLK_DIV1;
 134:Src/main.c    ****   RCC_ClkInitStruct.APB1CLKDivider = RCC_HCLK_DIV2;
 135:Src/main.c    ****   RCC_ClkInitStruct.APB2CLKDivider = RCC_HCLK_DIV1;
 136:Src/main.c    **** 
 137:Src/main.c    ****   if (HAL_RCC_ClockConfig(&RCC_ClkInitStruct, FLASH_LATENCY_0) != HAL_OK)
 138:Src/main.c    ****   {
 139:Src/main.c    ****     Error_Handler();
 140:Src/main.c    ****   }
 141:Src/main.c    **** }
 142:Src/main.c    **** 
 143:Src/main.c    **** /**
 144:Src/main.c    ****   * @brief GPIO Initialization Function
 145:Src/main.c    ****   * @param None
 146:Src/main.c    ****   * @retval None
ARM GAS  /tmp/ccJdDnBo.s 			page 4


 147:Src/main.c    ****   */
 148:Src/main.c    **** static void MX_GPIO_Init(void)
 149:Src/main.c    **** {
  27              		.loc 1 149 0
  28              		.cfi_startproc
  29              		@ args = 0, pretend = 0, frame = 24
  30              		@ frame_needed = 0, uses_anonymous_args = 0
  31 0000 30B5     		push	{r4, r5, lr}
  32              	.LCFI0:
  33              		.cfi_def_cfa_offset 12
  34              		.cfi_offset 4, -12
  35              		.cfi_offset 5, -8
  36              		.cfi_offset 14, -4
  37 0002 87B0     		sub	sp, sp, #28
  38              	.LCFI1:
  39              		.cfi_def_cfa_offset 40
 150:Src/main.c    ****   GPIO_InitTypeDef GPIO_InitStruct = {0};
  40              		.loc 1 150 0
  41 0004 0024     		movs	r4, #0
  42 0006 0194     		str	r4, [sp, #4]
  43 0008 0294     		str	r4, [sp, #8]
  44 000a 0394     		str	r4, [sp, #12]
  45 000c 0494     		str	r4, [sp, #16]
  46 000e 0594     		str	r4, [sp, #20]
  47              	.LBB2:
 151:Src/main.c    **** 
 152:Src/main.c    ****   /* GPIO Ports Clock Enable */
 153:Src/main.c    ****   __HAL_RCC_GPIOA_CLK_ENABLE();
  48              		.loc 1 153 0
  49 0010 0094     		str	r4, [sp]
  50 0012 0E4B     		ldr	r3, .L3
  51 0014 1A6B     		ldr	r2, [r3, #48]
  52 0016 42F00102 		orr	r2, r2, #1
  53 001a 1A63     		str	r2, [r3, #48]
  54 001c 1B6B     		ldr	r3, [r3, #48]
  55 001e 03F00103 		and	r3, r3, #1
  56 0022 0093     		str	r3, [sp]
  57 0024 009B     		ldr	r3, [sp]
  58              	.LBE2:
 154:Src/main.c    **** 
 155:Src/main.c    ****   /*Configure GPIO pin Output Level */
 156:Src/main.c    ****   HAL_GPIO_WritePin(GPIOA, GPIO_PIN_5, GPIO_PIN_RESET);
  59              		.loc 1 156 0
  60 0026 0A4D     		ldr	r5, .L3+4
  61 0028 2246     		mov	r2, r4
  62 002a 2021     		movs	r1, #32
  63 002c 2846     		mov	r0, r5
  64 002e FFF7FEFF 		bl	HAL_GPIO_WritePin
  65              	.LVL0:
 157:Src/main.c    **** 
 158:Src/main.c    ****   /*Configure GPIO pin : PA5 */
 159:Src/main.c    ****   GPIO_InitStruct.Pin = GPIO_PIN_5;
  66              		.loc 1 159 0
  67 0032 2023     		movs	r3, #32
  68 0034 0193     		str	r3, [sp, #4]
 160:Src/main.c    ****   GPIO_InitStruct.Mode = GPIO_MODE_OUTPUT_PP;
  69              		.loc 1 160 0
ARM GAS  /tmp/ccJdDnBo.s 			page 5


  70 0036 0123     		movs	r3, #1
  71 0038 0293     		str	r3, [sp, #8]
 161:Src/main.c    ****   GPIO_InitStruct.Pull = GPIO_NOPULL;
  72              		.loc 1 161 0
  73 003a 0394     		str	r4, [sp, #12]
 162:Src/main.c    ****   GPIO_InitStruct.Speed = GPIO_SPEED_FREQ_LOW;
  74              		.loc 1 162 0
  75 003c 0494     		str	r4, [sp, #16]
 163:Src/main.c    ****   HAL_GPIO_Init(GPIOA, &GPIO_InitStruct);
  76              		.loc 1 163 0
  77 003e 01A9     		add	r1, sp, #4
  78 0040 2846     		mov	r0, r5
  79 0042 FFF7FEFF 		bl	HAL_GPIO_Init
  80              	.LVL1:
 164:Src/main.c    **** }
  81              		.loc 1 164 0
  82 0046 07B0     		add	sp, sp, #28
  83              	.LCFI2:
  84              		.cfi_def_cfa_offset 12
  85              		@ sp needed
  86 0048 30BD     		pop	{r4, r5, pc}
  87              	.L4:
  88 004a 00BF     		.align	2
  89              	.L3:
  90 004c 00380240 		.word	1073887232
  91 0050 00000240 		.word	1073872896
  92              		.cfi_endproc
  93              	.LFE132:
  95              		.section	.text.SystemClock_Config,"ax",%progbits
  96              		.align	1
  97              		.global	SystemClock_Config
  98              		.syntax unified
  99              		.thumb
 100              		.thumb_func
 101              		.fpu fpv4-sp-d16
 103              	SystemClock_Config:
 104              	.LFB131:
 111:Src/main.c    ****   RCC_OscInitTypeDef RCC_OscInitStruct = {0};
 105              		.loc 1 111 0
 106              		.cfi_startproc
 107              		@ args = 0, pretend = 0, frame = 80
 108              		@ frame_needed = 0, uses_anonymous_args = 0
 109 0000 10B5     		push	{r4, lr}
 110              	.LCFI3:
 111              		.cfi_def_cfa_offset 8
 112              		.cfi_offset 4, -8
 113              		.cfi_offset 14, -4
 114 0002 94B0     		sub	sp, sp, #80
 115              	.LCFI4:
 116              		.cfi_def_cfa_offset 88
 112:Src/main.c    ****   RCC_ClkInitTypeDef RCC_ClkInitStruct = {0};
 117              		.loc 1 112 0
 118 0004 3022     		movs	r2, #48
 119 0006 0021     		movs	r1, #0
 120 0008 08A8     		add	r0, sp, #32
 121 000a FFF7FEFF 		bl	memset
 122              	.LVL2:
ARM GAS  /tmp/ccJdDnBo.s 			page 6


 113:Src/main.c    **** 
 123              		.loc 1 113 0
 124 000e 0024     		movs	r4, #0
 125 0010 0394     		str	r4, [sp, #12]
 126 0012 0494     		str	r4, [sp, #16]
 127 0014 0594     		str	r4, [sp, #20]
 128 0016 0694     		str	r4, [sp, #24]
 129 0018 0794     		str	r4, [sp, #28]
 130              	.LBB3:
 117:Src/main.c    ****   __HAL_PWR_VOLTAGESCALING_CONFIG(PWR_REGULATOR_VOLTAGE_SCALE2);
 131              		.loc 1 117 0
 132 001a 0194     		str	r4, [sp, #4]
 133 001c 174B     		ldr	r3, .L7
 134 001e 1A6C     		ldr	r2, [r3, #64]
 135 0020 42F08052 		orr	r2, r2, #268435456
 136 0024 1A64     		str	r2, [r3, #64]
 137 0026 1B6C     		ldr	r3, [r3, #64]
 138 0028 03F08053 		and	r3, r3, #268435456
 139 002c 0193     		str	r3, [sp, #4]
 140 002e 019B     		ldr	r3, [sp, #4]
 141              	.LBE3:
 142              	.LBB4:
 118:Src/main.c    ****   /** Initializes the CPU, AHB and APB busses clocks 
 143              		.loc 1 118 0
 144 0030 0294     		str	r4, [sp, #8]
 145 0032 134A     		ldr	r2, .L7+4
 146 0034 1368     		ldr	r3, [r2]
 147 0036 23F44043 		bic	r3, r3, #49152
 148 003a 43F40043 		orr	r3, r3, #32768
 149 003e 1360     		str	r3, [r2]
 150 0040 1368     		ldr	r3, [r2]
 151 0042 03F44043 		and	r3, r3, #49152
 152 0046 0293     		str	r3, [sp, #8]
 153 0048 029B     		ldr	r3, [sp, #8]
 154              	.LBE4:
 121:Src/main.c    ****   RCC_OscInitStruct.HSIState = RCC_HSI_ON;
 155              		.loc 1 121 0
 156 004a 0223     		movs	r3, #2
 157 004c 0893     		str	r3, [sp, #32]
 122:Src/main.c    ****   RCC_OscInitStruct.HSICalibrationValue = RCC_HSICALIBRATION_DEFAULT;
 158              		.loc 1 122 0
 159 004e 0123     		movs	r3, #1
 160 0050 0B93     		str	r3, [sp, #44]
 123:Src/main.c    ****   RCC_OscInitStruct.PLL.PLLState = RCC_PLL_NONE;
 161              		.loc 1 123 0
 162 0052 1023     		movs	r3, #16
 163 0054 0C93     		str	r3, [sp, #48]
 124:Src/main.c    ****   if (HAL_RCC_OscConfig(&RCC_OscInitStruct) != HAL_OK)
 164              		.loc 1 124 0
 165 0056 0E94     		str	r4, [sp, #56]
 125:Src/main.c    ****   {
 166              		.loc 1 125 0
 167 0058 08A8     		add	r0, sp, #32
 168 005a FFF7FEFF 		bl	HAL_RCC_OscConfig
 169              	.LVL3:
 131:Src/main.c    ****   RCC_ClkInitStruct.SYSCLKSource = RCC_SYSCLKSOURCE_HSI;
 170              		.loc 1 131 0
ARM GAS  /tmp/ccJdDnBo.s 			page 7


 171 005e 0F23     		movs	r3, #15
 172 0060 0393     		str	r3, [sp, #12]
 132:Src/main.c    ****   RCC_ClkInitStruct.AHBCLKDivider = RCC_SYSCLK_DIV1;
 173              		.loc 1 132 0
 174 0062 0494     		str	r4, [sp, #16]
 133:Src/main.c    ****   RCC_ClkInitStruct.APB1CLKDivider = RCC_HCLK_DIV2;
 175              		.loc 1 133 0
 176 0064 0594     		str	r4, [sp, #20]
 134:Src/main.c    ****   RCC_ClkInitStruct.APB2CLKDivider = RCC_HCLK_DIV1;
 177              		.loc 1 134 0
 178 0066 4FF48053 		mov	r3, #4096
 179 006a 0693     		str	r3, [sp, #24]
 135:Src/main.c    **** 
 180              		.loc 1 135 0
 181 006c 0794     		str	r4, [sp, #28]
 137:Src/main.c    ****   {
 182              		.loc 1 137 0
 183 006e 2146     		mov	r1, r4
 184 0070 03A8     		add	r0, sp, #12
 185 0072 FFF7FEFF 		bl	HAL_RCC_ClockConfig
 186              	.LVL4:
 141:Src/main.c    **** 
 187              		.loc 1 141 0
 188 0076 14B0     		add	sp, sp, #80
 189              	.LCFI5:
 190              		.cfi_def_cfa_offset 8
 191              		@ sp needed
 192 0078 10BD     		pop	{r4, pc}
 193              	.L8:
 194 007a 00BF     		.align	2
 195              	.L7:
 196 007c 00380240 		.word	1073887232
 197 0080 00700040 		.word	1073770496
 198              		.cfi_endproc
 199              	.LFE131:
 201              		.section	.text.main,"ax",%progbits
 202              		.align	1
 203              		.global	main
 204              		.syntax unified
 205              		.thumb
 206              		.thumb_func
 207              		.fpu fpv4-sp-d16
 209              	main:
 210              	.LFB130:
  67:Src/main.c    ****   /* USER CODE BEGIN 1 */
 211              		.loc 1 67 0
 212              		.cfi_startproc
 213              		@ Volatile: function does not return.
 214              		@ args = 0, pretend = 0, frame = 0
 215              		@ frame_needed = 0, uses_anonymous_args = 0
 216 0000 08B5     		push	{r3, lr}
 217              	.LCFI6:
 218              		.cfi_def_cfa_offset 8
 219              		.cfi_offset 3, -8
 220              		.cfi_offset 14, -4
  75:Src/main.c    **** 
 221              		.loc 1 75 0
ARM GAS  /tmp/ccJdDnBo.s 			page 8


 222 0002 FFF7FEFF 		bl	HAL_Init
 223              	.LVL5:
  82:Src/main.c    **** 
 224              		.loc 1 82 0
 225 0006 FFF7FEFF 		bl	SystemClock_Config
 226              	.LVL6:
  89:Src/main.c    ****   /* USER CODE BEGIN 2 */
 227              		.loc 1 89 0
 228 000a FFF7FEFF 		bl	MX_GPIO_Init
 229              	.LVL7:
 230              	.L10:
  99:Src/main.c    ****     HAL_Delay(500);
 231              		.loc 1 99 0 discriminator 1
 232 000e 2021     		movs	r1, #32
 233 0010 0348     		ldr	r0, .L12
 234 0012 FFF7FEFF 		bl	HAL_GPIO_TogglePin
 235              	.LVL8:
 100:Src/main.c    ****     /* USER CODE BEGIN 3 */
 236              		.loc 1 100 0 discriminator 1
 237 0016 4FF4FA70 		mov	r0, #500
 238 001a FFF7FEFF 		bl	HAL_Delay
 239              	.LVL9:
 240 001e F6E7     		b	.L10
 241              	.L13:
 242              		.align	2
 243              	.L12:
 244 0020 00000240 		.word	1073872896
 245              		.cfi_endproc
 246              	.LFE130:
 248              		.section	.text.Error_Handler,"ax",%progbits
 249              		.align	1
 250              		.global	Error_Handler
 251              		.syntax unified
 252              		.thumb
 253              		.thumb_func
 254              		.fpu fpv4-sp-d16
 256              	Error_Handler:
 257              	.LFB133:
 165:Src/main.c    **** 
 166:Src/main.c    **** /* USER CODE BEGIN 4 */
 167:Src/main.c    **** 
 168:Src/main.c    **** /* USER CODE END 4 */
 169:Src/main.c    **** 
 170:Src/main.c    **** /**
 171:Src/main.c    ****   * @brief  This function is executed in case of error occurrence.
 172:Src/main.c    ****   * @retval None
 173:Src/main.c    ****   */
 174:Src/main.c    **** void Error_Handler(void)
 175:Src/main.c    **** {
 258              		.loc 1 175 0
 259              		.cfi_startproc
 260              		@ args = 0, pretend = 0, frame = 0
 261              		@ frame_needed = 0, uses_anonymous_args = 0
 262              		@ link register save eliminated.
 176:Src/main.c    ****   /* USER CODE BEGIN Error_Handler_Debug */
 177:Src/main.c    ****   /* User can add his own implementation to report the HAL error return state */
 178:Src/main.c    **** 
ARM GAS  /tmp/ccJdDnBo.s 			page 9


 179:Src/main.c    ****   /* USER CODE END Error_Handler_Debug */
 180:Src/main.c    **** }
 263              		.loc 1 180 0
 264 0000 7047     		bx	lr
 265              		.cfi_endproc
 266              	.LFE133:
 268              		.text
 269              	.Letext0:
 270              		.file 2 "/usr/arm-none-eabi/include/machine/_default_types.h"
 271              		.file 3 "/usr/arm-none-eabi/include/sys/_stdint.h"
 272              		.file 4 "Drivers/CMSIS/Include/core_cm4.h"
 273              		.file 5 "Drivers/CMSIS/Device/ST/STM32F4xx/Include/system_stm32f4xx.h"
 274              		.file 6 "Drivers/CMSIS/Device/ST/STM32F4xx/Include/stm32f401xe.h"
 275              		.file 7 "Drivers/STM32F4xx_HAL_Driver/Inc/stm32f4xx_hal_rcc_ex.h"
 276              		.file 8 "Drivers/STM32F4xx_HAL_Driver/Inc/stm32f4xx_hal_rcc.h"
 277              		.file 9 "Drivers/STM32F4xx_HAL_Driver/Inc/stm32f4xx_hal_gpio.h"
 278              		.file 10 "Drivers/STM32F4xx_HAL_Driver/Inc/stm32f4xx_hal_def.h"
 279              		.file 11 "Drivers/STM32F4xx_HAL_Driver/Inc/stm32f4xx_hal.h"
 280              		.file 12 "<built-in>"
ARM GAS  /tmp/ccJdDnBo.s 			page 10


DEFINED SYMBOLS
                            *ABS*:0000000000000000 main.c
     /tmp/ccJdDnBo.s:18     .text.MX_GPIO_Init:0000000000000000 $t
     /tmp/ccJdDnBo.s:24     .text.MX_GPIO_Init:0000000000000000 MX_GPIO_Init
     /tmp/ccJdDnBo.s:90     .text.MX_GPIO_Init:000000000000004c $d
     /tmp/ccJdDnBo.s:96     .text.SystemClock_Config:0000000000000000 $t
     /tmp/ccJdDnBo.s:103    .text.SystemClock_Config:0000000000000000 SystemClock_Config
     /tmp/ccJdDnBo.s:196    .text.SystemClock_Config:000000000000007c $d
     /tmp/ccJdDnBo.s:202    .text.main:0000000000000000 $t
     /tmp/ccJdDnBo.s:209    .text.main:0000000000000000 main
     /tmp/ccJdDnBo.s:244    .text.main:0000000000000020 $d
     /tmp/ccJdDnBo.s:249    .text.Error_Handler:0000000000000000 $t
     /tmp/ccJdDnBo.s:256    .text.Error_Handler:0000000000000000 Error_Handler

UNDEFINED SYMBOLS
HAL_GPIO_WritePin
HAL_GPIO_Init
memset
HAL_RCC_OscConfig
HAL_RCC_ClockConfig
HAL_Init
HAL_GPIO_TogglePin
HAL_Delay
