ARM GAS  /tmp/cc8VKHC2.s 			page 1


   1              		.cpu cortex-m4
   2              		.eabi_attribute 27, 1
   3              		.eabi_attribute 28, 1
   4              		.eabi_attribute 20, 1
   5              		.eabi_attribute 21, 1
   6              		.eabi_attribute 23, 3
   7              		.eabi_attribute 24, 1
   8              		.eabi_attribute 25, 1
   9              		.eabi_attribute 26, 1
  10              		.eabi_attribute 30, 1
  11              		.eabi_attribute 34, 1
  12              		.eabi_attribute 18, 4
  13              		.file	"stm32f4xx_hal_dma_ex.c"
  14              		.text
  15              	.Ltext0:
  16              		.cfi_sections	.debug_frame
  17              		.section	.text.DMA_MultiBufferSetConfig,"ax",%progbits
  18              		.align	1
  19              		.syntax unified
  20              		.thumb
  21              		.thumb_func
  22              		.fpu fpv4-sp-d16
  24              	DMA_MultiBufferSetConfig:
  25              	.LFB133:
  26              		.file 1 "Drivers/STM32F4xx_HAL_Driver/Src/stm32f4xx_hal_dma_ex.c"
   1:Drivers/STM32F4xx_HAL_Driver/Src/stm32f4xx_hal_dma_ex.c **** /**
   2:Drivers/STM32F4xx_HAL_Driver/Src/stm32f4xx_hal_dma_ex.c ****   ******************************************************************************
   3:Drivers/STM32F4xx_HAL_Driver/Src/stm32f4xx_hal_dma_ex.c ****   * @file    stm32f4xx_hal_dma_ex.c
   4:Drivers/STM32F4xx_HAL_Driver/Src/stm32f4xx_hal_dma_ex.c ****   * @author  MCD Application Team
   5:Drivers/STM32F4xx_HAL_Driver/Src/stm32f4xx_hal_dma_ex.c ****   * @brief   DMA Extension HAL module driver
   6:Drivers/STM32F4xx_HAL_Driver/Src/stm32f4xx_hal_dma_ex.c ****   *         This file provides firmware functions to manage the following 
   7:Drivers/STM32F4xx_HAL_Driver/Src/stm32f4xx_hal_dma_ex.c ****   *         functionalities of the DMA Extension peripheral:
   8:Drivers/STM32F4xx_HAL_Driver/Src/stm32f4xx_hal_dma_ex.c ****   *           + Extended features functions
   9:Drivers/STM32F4xx_HAL_Driver/Src/stm32f4xx_hal_dma_ex.c ****   *
  10:Drivers/STM32F4xx_HAL_Driver/Src/stm32f4xx_hal_dma_ex.c ****   @verbatim
  11:Drivers/STM32F4xx_HAL_Driver/Src/stm32f4xx_hal_dma_ex.c ****   ==============================================================================
  12:Drivers/STM32F4xx_HAL_Driver/Src/stm32f4xx_hal_dma_ex.c ****                         ##### How to use this driver #####
  13:Drivers/STM32F4xx_HAL_Driver/Src/stm32f4xx_hal_dma_ex.c ****   ==============================================================================
  14:Drivers/STM32F4xx_HAL_Driver/Src/stm32f4xx_hal_dma_ex.c ****   [..]
  15:Drivers/STM32F4xx_HAL_Driver/Src/stm32f4xx_hal_dma_ex.c ****   The DMA Extension HAL driver can be used as follows:
  16:Drivers/STM32F4xx_HAL_Driver/Src/stm32f4xx_hal_dma_ex.c ****    (#) Start a multi buffer transfer using the HAL_DMA_MultiBufferStart() function
  17:Drivers/STM32F4xx_HAL_Driver/Src/stm32f4xx_hal_dma_ex.c ****        for polling mode or HAL_DMA_MultiBufferStart_IT() for interrupt mode.
  18:Drivers/STM32F4xx_HAL_Driver/Src/stm32f4xx_hal_dma_ex.c ****                    
  19:Drivers/STM32F4xx_HAL_Driver/Src/stm32f4xx_hal_dma_ex.c ****      -@-  In Memory-to-Memory transfer mode, Multi (Double) Buffer mode is not allowed.
  20:Drivers/STM32F4xx_HAL_Driver/Src/stm32f4xx_hal_dma_ex.c ****      -@-  When Multi (Double) Buffer mode is enabled the, transfer is circular by default.
  21:Drivers/STM32F4xx_HAL_Driver/Src/stm32f4xx_hal_dma_ex.c ****      -@-  In Multi (Double) buffer mode, it is possible to update the base address for 
  22:Drivers/STM32F4xx_HAL_Driver/Src/stm32f4xx_hal_dma_ex.c ****           the AHB memory port on the fly (DMA_SxM0AR or DMA_SxM1AR) when the stream is enabled. 
  23:Drivers/STM32F4xx_HAL_Driver/Src/stm32f4xx_hal_dma_ex.c ****   
  24:Drivers/STM32F4xx_HAL_Driver/Src/stm32f4xx_hal_dma_ex.c ****   @endverbatim
  25:Drivers/STM32F4xx_HAL_Driver/Src/stm32f4xx_hal_dma_ex.c ****   ******************************************************************************
  26:Drivers/STM32F4xx_HAL_Driver/Src/stm32f4xx_hal_dma_ex.c ****   * @attention
  27:Drivers/STM32F4xx_HAL_Driver/Src/stm32f4xx_hal_dma_ex.c ****   *
  28:Drivers/STM32F4xx_HAL_Driver/Src/stm32f4xx_hal_dma_ex.c ****   * <h2><center>&copy; Copyright (c) 2017 STMicroelectronics.
  29:Drivers/STM32F4xx_HAL_Driver/Src/stm32f4xx_hal_dma_ex.c ****   * All rights reserved.</center></h2>
  30:Drivers/STM32F4xx_HAL_Driver/Src/stm32f4xx_hal_dma_ex.c ****   *
  31:Drivers/STM32F4xx_HAL_Driver/Src/stm32f4xx_hal_dma_ex.c ****   * This software component is licensed by ST under BSD 3-Clause license,
  32:Drivers/STM32F4xx_HAL_Driver/Src/stm32f4xx_hal_dma_ex.c ****   * the "License"; You may not use this file except in compliance with the
ARM GAS  /tmp/cc8VKHC2.s 			page 2


  33:Drivers/STM32F4xx_HAL_Driver/Src/stm32f4xx_hal_dma_ex.c ****   * License. You may obtain a copy of the License at:
  34:Drivers/STM32F4xx_HAL_Driver/Src/stm32f4xx_hal_dma_ex.c ****   *                        opensource.org/licenses/BSD-3-Clause
  35:Drivers/STM32F4xx_HAL_Driver/Src/stm32f4xx_hal_dma_ex.c ****   *
  36:Drivers/STM32F4xx_HAL_Driver/Src/stm32f4xx_hal_dma_ex.c ****   ******************************************************************************
  37:Drivers/STM32F4xx_HAL_Driver/Src/stm32f4xx_hal_dma_ex.c ****   */
  38:Drivers/STM32F4xx_HAL_Driver/Src/stm32f4xx_hal_dma_ex.c **** 
  39:Drivers/STM32F4xx_HAL_Driver/Src/stm32f4xx_hal_dma_ex.c **** /* Includes ------------------------------------------------------------------*/
  40:Drivers/STM32F4xx_HAL_Driver/Src/stm32f4xx_hal_dma_ex.c **** #include "stm32f4xx_hal.h"
  41:Drivers/STM32F4xx_HAL_Driver/Src/stm32f4xx_hal_dma_ex.c **** 
  42:Drivers/STM32F4xx_HAL_Driver/Src/stm32f4xx_hal_dma_ex.c **** /** @addtogroup STM32F4xx_HAL_Driver
  43:Drivers/STM32F4xx_HAL_Driver/Src/stm32f4xx_hal_dma_ex.c ****   * @{
  44:Drivers/STM32F4xx_HAL_Driver/Src/stm32f4xx_hal_dma_ex.c ****   */
  45:Drivers/STM32F4xx_HAL_Driver/Src/stm32f4xx_hal_dma_ex.c **** 
  46:Drivers/STM32F4xx_HAL_Driver/Src/stm32f4xx_hal_dma_ex.c **** /** @defgroup DMAEx DMAEx
  47:Drivers/STM32F4xx_HAL_Driver/Src/stm32f4xx_hal_dma_ex.c ****   * @brief DMA Extended HAL module driver
  48:Drivers/STM32F4xx_HAL_Driver/Src/stm32f4xx_hal_dma_ex.c ****   * @{
  49:Drivers/STM32F4xx_HAL_Driver/Src/stm32f4xx_hal_dma_ex.c ****   */
  50:Drivers/STM32F4xx_HAL_Driver/Src/stm32f4xx_hal_dma_ex.c **** 
  51:Drivers/STM32F4xx_HAL_Driver/Src/stm32f4xx_hal_dma_ex.c **** #ifdef HAL_DMA_MODULE_ENABLED
  52:Drivers/STM32F4xx_HAL_Driver/Src/stm32f4xx_hal_dma_ex.c **** 
  53:Drivers/STM32F4xx_HAL_Driver/Src/stm32f4xx_hal_dma_ex.c **** /* Private types -------------------------------------------------------------*/
  54:Drivers/STM32F4xx_HAL_Driver/Src/stm32f4xx_hal_dma_ex.c **** /* Private variables ---------------------------------------------------------*/
  55:Drivers/STM32F4xx_HAL_Driver/Src/stm32f4xx_hal_dma_ex.c **** /* Private Constants ---------------------------------------------------------*/
  56:Drivers/STM32F4xx_HAL_Driver/Src/stm32f4xx_hal_dma_ex.c **** /* Private macros ------------------------------------------------------------*/
  57:Drivers/STM32F4xx_HAL_Driver/Src/stm32f4xx_hal_dma_ex.c **** /* Private functions ---------------------------------------------------------*/
  58:Drivers/STM32F4xx_HAL_Driver/Src/stm32f4xx_hal_dma_ex.c **** /** @addtogroup DMAEx_Private_Functions
  59:Drivers/STM32F4xx_HAL_Driver/Src/stm32f4xx_hal_dma_ex.c ****   * @{
  60:Drivers/STM32F4xx_HAL_Driver/Src/stm32f4xx_hal_dma_ex.c ****   */
  61:Drivers/STM32F4xx_HAL_Driver/Src/stm32f4xx_hal_dma_ex.c **** static void DMA_MultiBufferSetConfig(DMA_HandleTypeDef *hdma, uint32_t SrcAddress, uint32_t DstAddr
  62:Drivers/STM32F4xx_HAL_Driver/Src/stm32f4xx_hal_dma_ex.c **** /**
  63:Drivers/STM32F4xx_HAL_Driver/Src/stm32f4xx_hal_dma_ex.c ****   * @}
  64:Drivers/STM32F4xx_HAL_Driver/Src/stm32f4xx_hal_dma_ex.c ****   */
  65:Drivers/STM32F4xx_HAL_Driver/Src/stm32f4xx_hal_dma_ex.c **** 
  66:Drivers/STM32F4xx_HAL_Driver/Src/stm32f4xx_hal_dma_ex.c **** /* Exported functions ---------------------------------------------------------*/
  67:Drivers/STM32F4xx_HAL_Driver/Src/stm32f4xx_hal_dma_ex.c **** 
  68:Drivers/STM32F4xx_HAL_Driver/Src/stm32f4xx_hal_dma_ex.c **** /** @addtogroup DMAEx_Exported_Functions
  69:Drivers/STM32F4xx_HAL_Driver/Src/stm32f4xx_hal_dma_ex.c ****   * @{
  70:Drivers/STM32F4xx_HAL_Driver/Src/stm32f4xx_hal_dma_ex.c ****   */
  71:Drivers/STM32F4xx_HAL_Driver/Src/stm32f4xx_hal_dma_ex.c **** 
  72:Drivers/STM32F4xx_HAL_Driver/Src/stm32f4xx_hal_dma_ex.c **** 
  73:Drivers/STM32F4xx_HAL_Driver/Src/stm32f4xx_hal_dma_ex.c **** /** @addtogroup DMAEx_Exported_Functions_Group1
  74:Drivers/STM32F4xx_HAL_Driver/Src/stm32f4xx_hal_dma_ex.c ****   *
  75:Drivers/STM32F4xx_HAL_Driver/Src/stm32f4xx_hal_dma_ex.c **** @verbatim   
  76:Drivers/STM32F4xx_HAL_Driver/Src/stm32f4xx_hal_dma_ex.c ****  ===============================================================================
  77:Drivers/STM32F4xx_HAL_Driver/Src/stm32f4xx_hal_dma_ex.c ****                 #####  Extended features functions  #####
  78:Drivers/STM32F4xx_HAL_Driver/Src/stm32f4xx_hal_dma_ex.c ****  ===============================================================================  
  79:Drivers/STM32F4xx_HAL_Driver/Src/stm32f4xx_hal_dma_ex.c ****     [..]  This section provides functions allowing to:
  80:Drivers/STM32F4xx_HAL_Driver/Src/stm32f4xx_hal_dma_ex.c ****       (+) Configure the source, destination address and data length and 
  81:Drivers/STM32F4xx_HAL_Driver/Src/stm32f4xx_hal_dma_ex.c ****           Start MultiBuffer DMA transfer
  82:Drivers/STM32F4xx_HAL_Driver/Src/stm32f4xx_hal_dma_ex.c ****       (+) Configure the source, destination address and data length and 
  83:Drivers/STM32F4xx_HAL_Driver/Src/stm32f4xx_hal_dma_ex.c ****           Start MultiBuffer DMA transfer with interrupt
  84:Drivers/STM32F4xx_HAL_Driver/Src/stm32f4xx_hal_dma_ex.c ****       (+) Change on the fly the memory0 or memory1 address.
  85:Drivers/STM32F4xx_HAL_Driver/Src/stm32f4xx_hal_dma_ex.c ****       
  86:Drivers/STM32F4xx_HAL_Driver/Src/stm32f4xx_hal_dma_ex.c **** @endverbatim
  87:Drivers/STM32F4xx_HAL_Driver/Src/stm32f4xx_hal_dma_ex.c ****   * @{
  88:Drivers/STM32F4xx_HAL_Driver/Src/stm32f4xx_hal_dma_ex.c ****   */
  89:Drivers/STM32F4xx_HAL_Driver/Src/stm32f4xx_hal_dma_ex.c **** 
ARM GAS  /tmp/cc8VKHC2.s 			page 3


  90:Drivers/STM32F4xx_HAL_Driver/Src/stm32f4xx_hal_dma_ex.c **** 
  91:Drivers/STM32F4xx_HAL_Driver/Src/stm32f4xx_hal_dma_ex.c **** /**
  92:Drivers/STM32F4xx_HAL_Driver/Src/stm32f4xx_hal_dma_ex.c ****   * @brief  Starts the multi_buffer DMA Transfer.
  93:Drivers/STM32F4xx_HAL_Driver/Src/stm32f4xx_hal_dma_ex.c ****   * @param  hdma       pointer to a DMA_HandleTypeDef structure that contains
  94:Drivers/STM32F4xx_HAL_Driver/Src/stm32f4xx_hal_dma_ex.c ****   *                     the configuration information for the specified DMA Stream.  
  95:Drivers/STM32F4xx_HAL_Driver/Src/stm32f4xx_hal_dma_ex.c ****   * @param  SrcAddress The source memory Buffer address
  96:Drivers/STM32F4xx_HAL_Driver/Src/stm32f4xx_hal_dma_ex.c ****   * @param  DstAddress The destination memory Buffer address
  97:Drivers/STM32F4xx_HAL_Driver/Src/stm32f4xx_hal_dma_ex.c ****   * @param  SecondMemAddress The second memory Buffer address in case of multi buffer Transfer  
  98:Drivers/STM32F4xx_HAL_Driver/Src/stm32f4xx_hal_dma_ex.c ****   * @param  DataLength The length of data to be transferred from source to destination
  99:Drivers/STM32F4xx_HAL_Driver/Src/stm32f4xx_hal_dma_ex.c ****   * @retval HAL status
 100:Drivers/STM32F4xx_HAL_Driver/Src/stm32f4xx_hal_dma_ex.c ****   */
 101:Drivers/STM32F4xx_HAL_Driver/Src/stm32f4xx_hal_dma_ex.c **** HAL_StatusTypeDef HAL_DMAEx_MultiBufferStart(DMA_HandleTypeDef *hdma, uint32_t SrcAddress, uint32_t
 102:Drivers/STM32F4xx_HAL_Driver/Src/stm32f4xx_hal_dma_ex.c **** {
 103:Drivers/STM32F4xx_HAL_Driver/Src/stm32f4xx_hal_dma_ex.c ****   HAL_StatusTypeDef status = HAL_OK;
 104:Drivers/STM32F4xx_HAL_Driver/Src/stm32f4xx_hal_dma_ex.c ****   
 105:Drivers/STM32F4xx_HAL_Driver/Src/stm32f4xx_hal_dma_ex.c ****   /* Check the parameters */
 106:Drivers/STM32F4xx_HAL_Driver/Src/stm32f4xx_hal_dma_ex.c ****   assert_param(IS_DMA_BUFFER_SIZE(DataLength));
 107:Drivers/STM32F4xx_HAL_Driver/Src/stm32f4xx_hal_dma_ex.c ****   
 108:Drivers/STM32F4xx_HAL_Driver/Src/stm32f4xx_hal_dma_ex.c ****   /* Memory-to-memory transfer not supported in double buffering mode */
 109:Drivers/STM32F4xx_HAL_Driver/Src/stm32f4xx_hal_dma_ex.c ****   if (hdma->Init.Direction == DMA_MEMORY_TO_MEMORY)
 110:Drivers/STM32F4xx_HAL_Driver/Src/stm32f4xx_hal_dma_ex.c ****   {
 111:Drivers/STM32F4xx_HAL_Driver/Src/stm32f4xx_hal_dma_ex.c ****     hdma->ErrorCode = HAL_DMA_ERROR_NOT_SUPPORTED;
 112:Drivers/STM32F4xx_HAL_Driver/Src/stm32f4xx_hal_dma_ex.c ****     status = HAL_ERROR;
 113:Drivers/STM32F4xx_HAL_Driver/Src/stm32f4xx_hal_dma_ex.c ****   }
 114:Drivers/STM32F4xx_HAL_Driver/Src/stm32f4xx_hal_dma_ex.c ****   else
 115:Drivers/STM32F4xx_HAL_Driver/Src/stm32f4xx_hal_dma_ex.c ****   {
 116:Drivers/STM32F4xx_HAL_Driver/Src/stm32f4xx_hal_dma_ex.c ****     /* Process Locked */
 117:Drivers/STM32F4xx_HAL_Driver/Src/stm32f4xx_hal_dma_ex.c ****     __HAL_LOCK(hdma);
 118:Drivers/STM32F4xx_HAL_Driver/Src/stm32f4xx_hal_dma_ex.c ****     
 119:Drivers/STM32F4xx_HAL_Driver/Src/stm32f4xx_hal_dma_ex.c ****     if(HAL_DMA_STATE_READY == hdma->State)
 120:Drivers/STM32F4xx_HAL_Driver/Src/stm32f4xx_hal_dma_ex.c ****     {
 121:Drivers/STM32F4xx_HAL_Driver/Src/stm32f4xx_hal_dma_ex.c ****       /* Change DMA peripheral state */
 122:Drivers/STM32F4xx_HAL_Driver/Src/stm32f4xx_hal_dma_ex.c ****       hdma->State = HAL_DMA_STATE_BUSY; 
 123:Drivers/STM32F4xx_HAL_Driver/Src/stm32f4xx_hal_dma_ex.c ****       
 124:Drivers/STM32F4xx_HAL_Driver/Src/stm32f4xx_hal_dma_ex.c ****       /* Enable the double buffer mode */
 125:Drivers/STM32F4xx_HAL_Driver/Src/stm32f4xx_hal_dma_ex.c ****       hdma->Instance->CR |= (uint32_t)DMA_SxCR_DBM;
 126:Drivers/STM32F4xx_HAL_Driver/Src/stm32f4xx_hal_dma_ex.c ****       
 127:Drivers/STM32F4xx_HAL_Driver/Src/stm32f4xx_hal_dma_ex.c ****       /* Configure DMA Stream destination address */
 128:Drivers/STM32F4xx_HAL_Driver/Src/stm32f4xx_hal_dma_ex.c ****       hdma->Instance->M1AR = SecondMemAddress;
 129:Drivers/STM32F4xx_HAL_Driver/Src/stm32f4xx_hal_dma_ex.c ****       
 130:Drivers/STM32F4xx_HAL_Driver/Src/stm32f4xx_hal_dma_ex.c ****       /* Configure the source, destination address and the data length */
 131:Drivers/STM32F4xx_HAL_Driver/Src/stm32f4xx_hal_dma_ex.c ****       DMA_MultiBufferSetConfig(hdma, SrcAddress, DstAddress, DataLength);
 132:Drivers/STM32F4xx_HAL_Driver/Src/stm32f4xx_hal_dma_ex.c ****       
 133:Drivers/STM32F4xx_HAL_Driver/Src/stm32f4xx_hal_dma_ex.c ****       /* Enable the peripheral */
 134:Drivers/STM32F4xx_HAL_Driver/Src/stm32f4xx_hal_dma_ex.c ****       __HAL_DMA_ENABLE(hdma);
 135:Drivers/STM32F4xx_HAL_Driver/Src/stm32f4xx_hal_dma_ex.c ****     }
 136:Drivers/STM32F4xx_HAL_Driver/Src/stm32f4xx_hal_dma_ex.c ****     else
 137:Drivers/STM32F4xx_HAL_Driver/Src/stm32f4xx_hal_dma_ex.c ****     {
 138:Drivers/STM32F4xx_HAL_Driver/Src/stm32f4xx_hal_dma_ex.c ****       /* Return error status */
 139:Drivers/STM32F4xx_HAL_Driver/Src/stm32f4xx_hal_dma_ex.c ****       status = HAL_BUSY;
 140:Drivers/STM32F4xx_HAL_Driver/Src/stm32f4xx_hal_dma_ex.c ****     }
 141:Drivers/STM32F4xx_HAL_Driver/Src/stm32f4xx_hal_dma_ex.c ****   }
 142:Drivers/STM32F4xx_HAL_Driver/Src/stm32f4xx_hal_dma_ex.c ****   return status;
 143:Drivers/STM32F4xx_HAL_Driver/Src/stm32f4xx_hal_dma_ex.c **** }
 144:Drivers/STM32F4xx_HAL_Driver/Src/stm32f4xx_hal_dma_ex.c **** 
 145:Drivers/STM32F4xx_HAL_Driver/Src/stm32f4xx_hal_dma_ex.c **** /**
 146:Drivers/STM32F4xx_HAL_Driver/Src/stm32f4xx_hal_dma_ex.c ****   * @brief  Starts the multi_buffer DMA Transfer with interrupt enabled.
ARM GAS  /tmp/cc8VKHC2.s 			page 4


 147:Drivers/STM32F4xx_HAL_Driver/Src/stm32f4xx_hal_dma_ex.c ****   * @param  hdma       pointer to a DMA_HandleTypeDef structure that contains
 148:Drivers/STM32F4xx_HAL_Driver/Src/stm32f4xx_hal_dma_ex.c ****   *                     the configuration information for the specified DMA Stream.  
 149:Drivers/STM32F4xx_HAL_Driver/Src/stm32f4xx_hal_dma_ex.c ****   * @param  SrcAddress The source memory Buffer address
 150:Drivers/STM32F4xx_HAL_Driver/Src/stm32f4xx_hal_dma_ex.c ****   * @param  DstAddress The destination memory Buffer address
 151:Drivers/STM32F4xx_HAL_Driver/Src/stm32f4xx_hal_dma_ex.c ****   * @param  SecondMemAddress The second memory Buffer address in case of multi buffer Transfer  
 152:Drivers/STM32F4xx_HAL_Driver/Src/stm32f4xx_hal_dma_ex.c ****   * @param  DataLength The length of data to be transferred from source to destination
 153:Drivers/STM32F4xx_HAL_Driver/Src/stm32f4xx_hal_dma_ex.c ****   * @retval HAL status
 154:Drivers/STM32F4xx_HAL_Driver/Src/stm32f4xx_hal_dma_ex.c ****   */
 155:Drivers/STM32F4xx_HAL_Driver/Src/stm32f4xx_hal_dma_ex.c **** HAL_StatusTypeDef HAL_DMAEx_MultiBufferStart_IT(DMA_HandleTypeDef *hdma, uint32_t SrcAddress, uint3
 156:Drivers/STM32F4xx_HAL_Driver/Src/stm32f4xx_hal_dma_ex.c **** {
 157:Drivers/STM32F4xx_HAL_Driver/Src/stm32f4xx_hal_dma_ex.c ****   HAL_StatusTypeDef status = HAL_OK;
 158:Drivers/STM32F4xx_HAL_Driver/Src/stm32f4xx_hal_dma_ex.c ****   
 159:Drivers/STM32F4xx_HAL_Driver/Src/stm32f4xx_hal_dma_ex.c ****   /* Check the parameters */
 160:Drivers/STM32F4xx_HAL_Driver/Src/stm32f4xx_hal_dma_ex.c ****   assert_param(IS_DMA_BUFFER_SIZE(DataLength));
 161:Drivers/STM32F4xx_HAL_Driver/Src/stm32f4xx_hal_dma_ex.c ****   
 162:Drivers/STM32F4xx_HAL_Driver/Src/stm32f4xx_hal_dma_ex.c ****   /* Memory-to-memory transfer not supported in double buffering mode */
 163:Drivers/STM32F4xx_HAL_Driver/Src/stm32f4xx_hal_dma_ex.c ****   if (hdma->Init.Direction == DMA_MEMORY_TO_MEMORY)
 164:Drivers/STM32F4xx_HAL_Driver/Src/stm32f4xx_hal_dma_ex.c ****   {
 165:Drivers/STM32F4xx_HAL_Driver/Src/stm32f4xx_hal_dma_ex.c ****     hdma->ErrorCode = HAL_DMA_ERROR_NOT_SUPPORTED;
 166:Drivers/STM32F4xx_HAL_Driver/Src/stm32f4xx_hal_dma_ex.c ****     return HAL_ERROR;
 167:Drivers/STM32F4xx_HAL_Driver/Src/stm32f4xx_hal_dma_ex.c ****   }
 168:Drivers/STM32F4xx_HAL_Driver/Src/stm32f4xx_hal_dma_ex.c ****   
 169:Drivers/STM32F4xx_HAL_Driver/Src/stm32f4xx_hal_dma_ex.c ****   /* Check callback functions */
 170:Drivers/STM32F4xx_HAL_Driver/Src/stm32f4xx_hal_dma_ex.c ****   if ((NULL == hdma->XferCpltCallback) || (NULL == hdma->XferM1CpltCallback) || (NULL == hdma->Xfer
 171:Drivers/STM32F4xx_HAL_Driver/Src/stm32f4xx_hal_dma_ex.c ****   {
 172:Drivers/STM32F4xx_HAL_Driver/Src/stm32f4xx_hal_dma_ex.c ****     hdma->ErrorCode = HAL_DMA_ERROR_PARAM;
 173:Drivers/STM32F4xx_HAL_Driver/Src/stm32f4xx_hal_dma_ex.c ****     return HAL_ERROR;
 174:Drivers/STM32F4xx_HAL_Driver/Src/stm32f4xx_hal_dma_ex.c ****   }
 175:Drivers/STM32F4xx_HAL_Driver/Src/stm32f4xx_hal_dma_ex.c ****   
 176:Drivers/STM32F4xx_HAL_Driver/Src/stm32f4xx_hal_dma_ex.c ****   /* Process locked */
 177:Drivers/STM32F4xx_HAL_Driver/Src/stm32f4xx_hal_dma_ex.c ****   __HAL_LOCK(hdma);
 178:Drivers/STM32F4xx_HAL_Driver/Src/stm32f4xx_hal_dma_ex.c ****   
 179:Drivers/STM32F4xx_HAL_Driver/Src/stm32f4xx_hal_dma_ex.c ****   if(HAL_DMA_STATE_READY == hdma->State)
 180:Drivers/STM32F4xx_HAL_Driver/Src/stm32f4xx_hal_dma_ex.c ****   {
 181:Drivers/STM32F4xx_HAL_Driver/Src/stm32f4xx_hal_dma_ex.c ****     /* Change DMA peripheral state */
 182:Drivers/STM32F4xx_HAL_Driver/Src/stm32f4xx_hal_dma_ex.c ****     hdma->State = HAL_DMA_STATE_BUSY;
 183:Drivers/STM32F4xx_HAL_Driver/Src/stm32f4xx_hal_dma_ex.c ****     
 184:Drivers/STM32F4xx_HAL_Driver/Src/stm32f4xx_hal_dma_ex.c ****     /* Initialize the error code */
 185:Drivers/STM32F4xx_HAL_Driver/Src/stm32f4xx_hal_dma_ex.c ****     hdma->ErrorCode = HAL_DMA_ERROR_NONE;
 186:Drivers/STM32F4xx_HAL_Driver/Src/stm32f4xx_hal_dma_ex.c ****     
 187:Drivers/STM32F4xx_HAL_Driver/Src/stm32f4xx_hal_dma_ex.c ****     /* Enable the Double buffer mode */
 188:Drivers/STM32F4xx_HAL_Driver/Src/stm32f4xx_hal_dma_ex.c ****     hdma->Instance->CR |= (uint32_t)DMA_SxCR_DBM;
 189:Drivers/STM32F4xx_HAL_Driver/Src/stm32f4xx_hal_dma_ex.c ****     
 190:Drivers/STM32F4xx_HAL_Driver/Src/stm32f4xx_hal_dma_ex.c ****     /* Configure DMA Stream destination address */
 191:Drivers/STM32F4xx_HAL_Driver/Src/stm32f4xx_hal_dma_ex.c ****     hdma->Instance->M1AR = SecondMemAddress;
 192:Drivers/STM32F4xx_HAL_Driver/Src/stm32f4xx_hal_dma_ex.c ****     
 193:Drivers/STM32F4xx_HAL_Driver/Src/stm32f4xx_hal_dma_ex.c ****     /* Configure the source, destination address and the data length */
 194:Drivers/STM32F4xx_HAL_Driver/Src/stm32f4xx_hal_dma_ex.c ****     DMA_MultiBufferSetConfig(hdma, SrcAddress, DstAddress, DataLength); 
 195:Drivers/STM32F4xx_HAL_Driver/Src/stm32f4xx_hal_dma_ex.c ****     
 196:Drivers/STM32F4xx_HAL_Driver/Src/stm32f4xx_hal_dma_ex.c ****     /* Clear all flags */
 197:Drivers/STM32F4xx_HAL_Driver/Src/stm32f4xx_hal_dma_ex.c ****     __HAL_DMA_CLEAR_FLAG (hdma, __HAL_DMA_GET_TC_FLAG_INDEX(hdma));
 198:Drivers/STM32F4xx_HAL_Driver/Src/stm32f4xx_hal_dma_ex.c ****     __HAL_DMA_CLEAR_FLAG (hdma, __HAL_DMA_GET_HT_FLAG_INDEX(hdma));
 199:Drivers/STM32F4xx_HAL_Driver/Src/stm32f4xx_hal_dma_ex.c ****     __HAL_DMA_CLEAR_FLAG (hdma, __HAL_DMA_GET_TE_FLAG_INDEX(hdma));
 200:Drivers/STM32F4xx_HAL_Driver/Src/stm32f4xx_hal_dma_ex.c ****     __HAL_DMA_CLEAR_FLAG (hdma, __HAL_DMA_GET_DME_FLAG_INDEX(hdma));
 201:Drivers/STM32F4xx_HAL_Driver/Src/stm32f4xx_hal_dma_ex.c ****     __HAL_DMA_CLEAR_FLAG (hdma, __HAL_DMA_GET_FE_FLAG_INDEX(hdma));
 202:Drivers/STM32F4xx_HAL_Driver/Src/stm32f4xx_hal_dma_ex.c **** 
 203:Drivers/STM32F4xx_HAL_Driver/Src/stm32f4xx_hal_dma_ex.c ****     /* Enable Common interrupts*/
ARM GAS  /tmp/cc8VKHC2.s 			page 5


 204:Drivers/STM32F4xx_HAL_Driver/Src/stm32f4xx_hal_dma_ex.c ****     hdma->Instance->CR  |= DMA_IT_TC | DMA_IT_TE | DMA_IT_DME;
 205:Drivers/STM32F4xx_HAL_Driver/Src/stm32f4xx_hal_dma_ex.c ****     hdma->Instance->FCR |= DMA_IT_FE;
 206:Drivers/STM32F4xx_HAL_Driver/Src/stm32f4xx_hal_dma_ex.c ****     
 207:Drivers/STM32F4xx_HAL_Driver/Src/stm32f4xx_hal_dma_ex.c ****     if((hdma->XferHalfCpltCallback != NULL) || (hdma->XferM1HalfCpltCallback != NULL))
 208:Drivers/STM32F4xx_HAL_Driver/Src/stm32f4xx_hal_dma_ex.c ****     {
 209:Drivers/STM32F4xx_HAL_Driver/Src/stm32f4xx_hal_dma_ex.c ****       hdma->Instance->CR  |= DMA_IT_HT;
 210:Drivers/STM32F4xx_HAL_Driver/Src/stm32f4xx_hal_dma_ex.c ****     }
 211:Drivers/STM32F4xx_HAL_Driver/Src/stm32f4xx_hal_dma_ex.c ****     
 212:Drivers/STM32F4xx_HAL_Driver/Src/stm32f4xx_hal_dma_ex.c ****     /* Enable the peripheral */
 213:Drivers/STM32F4xx_HAL_Driver/Src/stm32f4xx_hal_dma_ex.c ****     __HAL_DMA_ENABLE(hdma); 
 214:Drivers/STM32F4xx_HAL_Driver/Src/stm32f4xx_hal_dma_ex.c ****   }
 215:Drivers/STM32F4xx_HAL_Driver/Src/stm32f4xx_hal_dma_ex.c ****   else
 216:Drivers/STM32F4xx_HAL_Driver/Src/stm32f4xx_hal_dma_ex.c ****   {     
 217:Drivers/STM32F4xx_HAL_Driver/Src/stm32f4xx_hal_dma_ex.c ****     /* Process unlocked */
 218:Drivers/STM32F4xx_HAL_Driver/Src/stm32f4xx_hal_dma_ex.c ****     __HAL_UNLOCK(hdma);	  
 219:Drivers/STM32F4xx_HAL_Driver/Src/stm32f4xx_hal_dma_ex.c ****     
 220:Drivers/STM32F4xx_HAL_Driver/Src/stm32f4xx_hal_dma_ex.c ****     /* Return error status */
 221:Drivers/STM32F4xx_HAL_Driver/Src/stm32f4xx_hal_dma_ex.c ****     status = HAL_BUSY;
 222:Drivers/STM32F4xx_HAL_Driver/Src/stm32f4xx_hal_dma_ex.c ****   }  
 223:Drivers/STM32F4xx_HAL_Driver/Src/stm32f4xx_hal_dma_ex.c ****   return status; 
 224:Drivers/STM32F4xx_HAL_Driver/Src/stm32f4xx_hal_dma_ex.c **** }
 225:Drivers/STM32F4xx_HAL_Driver/Src/stm32f4xx_hal_dma_ex.c **** 
 226:Drivers/STM32F4xx_HAL_Driver/Src/stm32f4xx_hal_dma_ex.c **** /**
 227:Drivers/STM32F4xx_HAL_Driver/Src/stm32f4xx_hal_dma_ex.c ****   * @brief  Change the memory0 or memory1 address on the fly.
 228:Drivers/STM32F4xx_HAL_Driver/Src/stm32f4xx_hal_dma_ex.c ****   * @param  hdma       pointer to a DMA_HandleTypeDef structure that contains
 229:Drivers/STM32F4xx_HAL_Driver/Src/stm32f4xx_hal_dma_ex.c ****   *                     the configuration information for the specified DMA Stream.  
 230:Drivers/STM32F4xx_HAL_Driver/Src/stm32f4xx_hal_dma_ex.c ****   * @param  Address    The new address
 231:Drivers/STM32F4xx_HAL_Driver/Src/stm32f4xx_hal_dma_ex.c ****   * @param  memory     the memory to be changed, This parameter can be one of 
 232:Drivers/STM32F4xx_HAL_Driver/Src/stm32f4xx_hal_dma_ex.c ****   *                     the following values:
 233:Drivers/STM32F4xx_HAL_Driver/Src/stm32f4xx_hal_dma_ex.c ****   *                      MEMORY0 /
 234:Drivers/STM32F4xx_HAL_Driver/Src/stm32f4xx_hal_dma_ex.c ****   *                      MEMORY1
 235:Drivers/STM32F4xx_HAL_Driver/Src/stm32f4xx_hal_dma_ex.c ****   * @note   The MEMORY0 address can be changed only when the current transfer use
 236:Drivers/STM32F4xx_HAL_Driver/Src/stm32f4xx_hal_dma_ex.c ****   *         MEMORY1 and the MEMORY1 address can be changed only when the current 
 237:Drivers/STM32F4xx_HAL_Driver/Src/stm32f4xx_hal_dma_ex.c ****   *         transfer use MEMORY0.
 238:Drivers/STM32F4xx_HAL_Driver/Src/stm32f4xx_hal_dma_ex.c ****   * @retval HAL status
 239:Drivers/STM32F4xx_HAL_Driver/Src/stm32f4xx_hal_dma_ex.c ****   */
 240:Drivers/STM32F4xx_HAL_Driver/Src/stm32f4xx_hal_dma_ex.c **** HAL_StatusTypeDef HAL_DMAEx_ChangeMemory(DMA_HandleTypeDef *hdma, uint32_t Address, HAL_DMA_MemoryT
 241:Drivers/STM32F4xx_HAL_Driver/Src/stm32f4xx_hal_dma_ex.c **** {
 242:Drivers/STM32F4xx_HAL_Driver/Src/stm32f4xx_hal_dma_ex.c ****   if(memory == MEMORY0)
 243:Drivers/STM32F4xx_HAL_Driver/Src/stm32f4xx_hal_dma_ex.c ****   {
 244:Drivers/STM32F4xx_HAL_Driver/Src/stm32f4xx_hal_dma_ex.c ****     /* change the memory0 address */
 245:Drivers/STM32F4xx_HAL_Driver/Src/stm32f4xx_hal_dma_ex.c ****     hdma->Instance->M0AR = Address;
 246:Drivers/STM32F4xx_HAL_Driver/Src/stm32f4xx_hal_dma_ex.c ****   }
 247:Drivers/STM32F4xx_HAL_Driver/Src/stm32f4xx_hal_dma_ex.c ****   else
 248:Drivers/STM32F4xx_HAL_Driver/Src/stm32f4xx_hal_dma_ex.c ****   {
 249:Drivers/STM32F4xx_HAL_Driver/Src/stm32f4xx_hal_dma_ex.c ****     /* change the memory1 address */
 250:Drivers/STM32F4xx_HAL_Driver/Src/stm32f4xx_hal_dma_ex.c ****     hdma->Instance->M1AR = Address;
 251:Drivers/STM32F4xx_HAL_Driver/Src/stm32f4xx_hal_dma_ex.c ****   }
 252:Drivers/STM32F4xx_HAL_Driver/Src/stm32f4xx_hal_dma_ex.c **** 
 253:Drivers/STM32F4xx_HAL_Driver/Src/stm32f4xx_hal_dma_ex.c ****   return HAL_OK;
 254:Drivers/STM32F4xx_HAL_Driver/Src/stm32f4xx_hal_dma_ex.c **** }
 255:Drivers/STM32F4xx_HAL_Driver/Src/stm32f4xx_hal_dma_ex.c **** 
 256:Drivers/STM32F4xx_HAL_Driver/Src/stm32f4xx_hal_dma_ex.c **** /**
 257:Drivers/STM32F4xx_HAL_Driver/Src/stm32f4xx_hal_dma_ex.c ****   * @}
 258:Drivers/STM32F4xx_HAL_Driver/Src/stm32f4xx_hal_dma_ex.c ****   */
 259:Drivers/STM32F4xx_HAL_Driver/Src/stm32f4xx_hal_dma_ex.c **** 
 260:Drivers/STM32F4xx_HAL_Driver/Src/stm32f4xx_hal_dma_ex.c **** /**
ARM GAS  /tmp/cc8VKHC2.s 			page 6


 261:Drivers/STM32F4xx_HAL_Driver/Src/stm32f4xx_hal_dma_ex.c ****   * @}
 262:Drivers/STM32F4xx_HAL_Driver/Src/stm32f4xx_hal_dma_ex.c ****   */
 263:Drivers/STM32F4xx_HAL_Driver/Src/stm32f4xx_hal_dma_ex.c **** 
 264:Drivers/STM32F4xx_HAL_Driver/Src/stm32f4xx_hal_dma_ex.c **** /** @addtogroup DMAEx_Private_Functions
 265:Drivers/STM32F4xx_HAL_Driver/Src/stm32f4xx_hal_dma_ex.c ****   * @{
 266:Drivers/STM32F4xx_HAL_Driver/Src/stm32f4xx_hal_dma_ex.c ****   */
 267:Drivers/STM32F4xx_HAL_Driver/Src/stm32f4xx_hal_dma_ex.c **** 
 268:Drivers/STM32F4xx_HAL_Driver/Src/stm32f4xx_hal_dma_ex.c **** /**
 269:Drivers/STM32F4xx_HAL_Driver/Src/stm32f4xx_hal_dma_ex.c ****   * @brief  Set the DMA Transfer parameter.
 270:Drivers/STM32F4xx_HAL_Driver/Src/stm32f4xx_hal_dma_ex.c ****   * @param  hdma       pointer to a DMA_HandleTypeDef structure that contains
 271:Drivers/STM32F4xx_HAL_Driver/Src/stm32f4xx_hal_dma_ex.c ****   *                     the configuration information for the specified DMA Stream.  
 272:Drivers/STM32F4xx_HAL_Driver/Src/stm32f4xx_hal_dma_ex.c ****   * @param  SrcAddress The source memory Buffer address
 273:Drivers/STM32F4xx_HAL_Driver/Src/stm32f4xx_hal_dma_ex.c ****   * @param  DstAddress The destination memory Buffer address
 274:Drivers/STM32F4xx_HAL_Driver/Src/stm32f4xx_hal_dma_ex.c ****   * @param  DataLength The length of data to be transferred from source to destination
 275:Drivers/STM32F4xx_HAL_Driver/Src/stm32f4xx_hal_dma_ex.c ****   * @retval HAL status
 276:Drivers/STM32F4xx_HAL_Driver/Src/stm32f4xx_hal_dma_ex.c ****   */
 277:Drivers/STM32F4xx_HAL_Driver/Src/stm32f4xx_hal_dma_ex.c **** static void DMA_MultiBufferSetConfig(DMA_HandleTypeDef *hdma, uint32_t SrcAddress, uint32_t DstAddr
 278:Drivers/STM32F4xx_HAL_Driver/Src/stm32f4xx_hal_dma_ex.c **** {  
  27              		.loc 1 278 0
  28              		.cfi_startproc
  29              		@ args = 0, pretend = 0, frame = 0
  30              		@ frame_needed = 0, uses_anonymous_args = 0
  31              		@ link register save eliminated.
  32              	.LVL0:
  33 0000 10B4     		push	{r4}
  34              	.LCFI0:
  35              		.cfi_def_cfa_offset 4
  36              		.cfi_offset 4, -4
 279:Drivers/STM32F4xx_HAL_Driver/Src/stm32f4xx_hal_dma_ex.c ****   /* Configure DMA Stream data length */
 280:Drivers/STM32F4xx_HAL_Driver/Src/stm32f4xx_hal_dma_ex.c ****   hdma->Instance->NDTR = DataLength;
  37              		.loc 1 280 0
  38 0002 0468     		ldr	r4, [r0]
  39 0004 6360     		str	r3, [r4, #4]
 281:Drivers/STM32F4xx_HAL_Driver/Src/stm32f4xx_hal_dma_ex.c ****   
 282:Drivers/STM32F4xx_HAL_Driver/Src/stm32f4xx_hal_dma_ex.c ****   /* Peripheral to Memory */
 283:Drivers/STM32F4xx_HAL_Driver/Src/stm32f4xx_hal_dma_ex.c ****   if((hdma->Init.Direction) == DMA_MEMORY_TO_PERIPH)
  40              		.loc 1 283 0
  41 0006 8368     		ldr	r3, [r0, #8]
  42              	.LVL1:
  43 0008 402B     		cmp	r3, #64
  44 000a 06D0     		beq	.L5
 284:Drivers/STM32F4xx_HAL_Driver/Src/stm32f4xx_hal_dma_ex.c ****   {   
 285:Drivers/STM32F4xx_HAL_Driver/Src/stm32f4xx_hal_dma_ex.c ****     /* Configure DMA Stream destination address */
 286:Drivers/STM32F4xx_HAL_Driver/Src/stm32f4xx_hal_dma_ex.c ****     hdma->Instance->PAR = DstAddress;
 287:Drivers/STM32F4xx_HAL_Driver/Src/stm32f4xx_hal_dma_ex.c ****     
 288:Drivers/STM32F4xx_HAL_Driver/Src/stm32f4xx_hal_dma_ex.c ****     /* Configure DMA Stream source address */
 289:Drivers/STM32F4xx_HAL_Driver/Src/stm32f4xx_hal_dma_ex.c ****     hdma->Instance->M0AR = SrcAddress;
 290:Drivers/STM32F4xx_HAL_Driver/Src/stm32f4xx_hal_dma_ex.c ****   }
 291:Drivers/STM32F4xx_HAL_Driver/Src/stm32f4xx_hal_dma_ex.c ****   /* Memory to Peripheral */
 292:Drivers/STM32F4xx_HAL_Driver/Src/stm32f4xx_hal_dma_ex.c ****   else
 293:Drivers/STM32F4xx_HAL_Driver/Src/stm32f4xx_hal_dma_ex.c ****   {
 294:Drivers/STM32F4xx_HAL_Driver/Src/stm32f4xx_hal_dma_ex.c ****     /* Configure DMA Stream source address */
 295:Drivers/STM32F4xx_HAL_Driver/Src/stm32f4xx_hal_dma_ex.c ****     hdma->Instance->PAR = SrcAddress;
  45              		.loc 1 295 0
  46 000c 0368     		ldr	r3, [r0]
  47 000e 9960     		str	r1, [r3, #8]
  48              	.LVL2:
ARM GAS  /tmp/cc8VKHC2.s 			page 7


 296:Drivers/STM32F4xx_HAL_Driver/Src/stm32f4xx_hal_dma_ex.c ****     
 297:Drivers/STM32F4xx_HAL_Driver/Src/stm32f4xx_hal_dma_ex.c ****     /* Configure DMA Stream destination address */
 298:Drivers/STM32F4xx_HAL_Driver/Src/stm32f4xx_hal_dma_ex.c ****     hdma->Instance->M0AR = DstAddress;
  49              		.loc 1 298 0
  50 0010 0368     		ldr	r3, [r0]
  51 0012 DA60     		str	r2, [r3, #12]
  52              	.L1:
 299:Drivers/STM32F4xx_HAL_Driver/Src/stm32f4xx_hal_dma_ex.c ****   }
 300:Drivers/STM32F4xx_HAL_Driver/Src/stm32f4xx_hal_dma_ex.c **** }
  53              		.loc 1 300 0
  54 0014 5DF8044B 		ldr	r4, [sp], #4
  55              	.LCFI1:
  56              		.cfi_remember_state
  57              		.cfi_restore 4
  58              		.cfi_def_cfa_offset 0
  59 0018 7047     		bx	lr
  60              	.LVL3:
  61              	.L5:
  62              	.LCFI2:
  63              		.cfi_restore_state
 286:Drivers/STM32F4xx_HAL_Driver/Src/stm32f4xx_hal_dma_ex.c ****     
  64              		.loc 1 286 0
  65 001a 0368     		ldr	r3, [r0]
  66 001c 9A60     		str	r2, [r3, #8]
  67              	.LVL4:
 289:Drivers/STM32F4xx_HAL_Driver/Src/stm32f4xx_hal_dma_ex.c ****   }
  68              		.loc 1 289 0
  69 001e 0368     		ldr	r3, [r0]
  70 0020 D960     		str	r1, [r3, #12]
  71 0022 F7E7     		b	.L1
  72              		.cfi_endproc
  73              	.LFE133:
  75              		.section	.text.HAL_DMAEx_MultiBufferStart,"ax",%progbits
  76              		.align	1
  77              		.global	HAL_DMAEx_MultiBufferStart
  78              		.syntax unified
  79              		.thumb
  80              		.thumb_func
  81              		.fpu fpv4-sp-d16
  83              	HAL_DMAEx_MultiBufferStart:
  84              	.LFB130:
 102:Drivers/STM32F4xx_HAL_Driver/Src/stm32f4xx_hal_dma_ex.c ****   HAL_StatusTypeDef status = HAL_OK;
  85              		.loc 1 102 0
  86              		.cfi_startproc
  87              		@ args = 4, pretend = 0, frame = 0
  88              		@ frame_needed = 0, uses_anonymous_args = 0
  89              	.LVL5:
  90 0000 38B5     		push	{r3, r4, r5, lr}
  91              	.LCFI3:
  92              		.cfi_def_cfa_offset 16
  93              		.cfi_offset 3, -16
  94              		.cfi_offset 4, -12
  95              		.cfi_offset 5, -8
  96              		.cfi_offset 14, -4
  97              	.LVL6:
 109:Drivers/STM32F4xx_HAL_Driver/Src/stm32f4xx_hal_dma_ex.c ****   {
  98              		.loc 1 109 0
ARM GAS  /tmp/cc8VKHC2.s 			page 8


  99 0002 8468     		ldr	r4, [r0, #8]
 100 0004 802C     		cmp	r4, #128
 101 0006 0DD0     		beq	.L12
 117:Drivers/STM32F4xx_HAL_Driver/Src/stm32f4xx_hal_dma_ex.c ****     
 102              		.loc 1 117 0
 103 0008 90F83440 		ldrb	r4, [r0, #52]	@ zero_extendqisi2
 104 000c 012C     		cmp	r4, #1
 105 000e 24D0     		beq	.L9
 117:Drivers/STM32F4xx_HAL_Driver/Src/stm32f4xx_hal_dma_ex.c ****     
 106              		.loc 1 117 0 is_stmt 0 discriminator 2
 107 0010 0124     		movs	r4, #1
 108 0012 80F83440 		strb	r4, [r0, #52]
 119:Drivers/STM32F4xx_HAL_Driver/Src/stm32f4xx_hal_dma_ex.c ****     {
 109              		.loc 1 119 0 is_stmt 1 discriminator 2
 110 0016 90F83540 		ldrb	r4, [r0, #53]	@ zero_extendqisi2
 111 001a E4B2     		uxtb	r4, r4
 112 001c 012C     		cmp	r4, #1
 113 001e 06D0     		beq	.L13
 139:Drivers/STM32F4xx_HAL_Driver/Src/stm32f4xx_hal_dma_ex.c ****     }
 114              		.loc 1 139 0
 115 0020 0220     		movs	r0, #2
 116              	.LVL7:
 117              	.L8:
 143:Drivers/STM32F4xx_HAL_Driver/Src/stm32f4xx_hal_dma_ex.c **** 
 118              		.loc 1 143 0
 119 0022 38BD     		pop	{r3, r4, r5, pc}
 120              	.LVL8:
 121              	.L12:
 111:Drivers/STM32F4xx_HAL_Driver/Src/stm32f4xx_hal_dma_ex.c ****     status = HAL_ERROR;
 122              		.loc 1 111 0
 123 0024 4FF48073 		mov	r3, #256
 124              	.LVL9:
 125 0028 4365     		str	r3, [r0, #84]
 126              	.LVL10:
 112:Drivers/STM32F4xx_HAL_Driver/Src/stm32f4xx_hal_dma_ex.c ****   }
 127              		.loc 1 112 0
 128 002a 0120     		movs	r0, #1
 129              	.LVL11:
 130 002c F9E7     		b	.L8
 131              	.LVL12:
 132              	.L13:
 133 002e 0446     		mov	r4, r0
 122:Drivers/STM32F4xx_HAL_Driver/Src/stm32f4xx_hal_dma_ex.c ****       
 134              		.loc 1 122 0
 135 0030 0220     		movs	r0, #2
 136              	.LVL13:
 137 0032 84F83500 		strb	r0, [r4, #53]
 125:Drivers/STM32F4xx_HAL_Driver/Src/stm32f4xx_hal_dma_ex.c ****       
 138              		.loc 1 125 0
 139 0036 2568     		ldr	r5, [r4]
 140 0038 2868     		ldr	r0, [r5]
 141 003a 40F48020 		orr	r0, r0, #262144
 142 003e 2860     		str	r0, [r5]
 128:Drivers/STM32F4xx_HAL_Driver/Src/stm32f4xx_hal_dma_ex.c ****       
 143              		.loc 1 128 0
 144 0040 2068     		ldr	r0, [r4]
 145 0042 0361     		str	r3, [r0, #16]
ARM GAS  /tmp/cc8VKHC2.s 			page 9


 131:Drivers/STM32F4xx_HAL_Driver/Src/stm32f4xx_hal_dma_ex.c ****       
 146              		.loc 1 131 0
 147 0044 049B     		ldr	r3, [sp, #16]
 148              	.LVL14:
 149 0046 2046     		mov	r0, r4
 150              	.LVL15:
 151 0048 FFF7FEFF 		bl	DMA_MultiBufferSetConfig
 152              	.LVL16:
 134:Drivers/STM32F4xx_HAL_Driver/Src/stm32f4xx_hal_dma_ex.c ****     }
 153              		.loc 1 134 0
 154 004c 2268     		ldr	r2, [r4]
 155 004e 1368     		ldr	r3, [r2]
 156 0050 43F00103 		orr	r3, r3, #1
 157 0054 1360     		str	r3, [r2]
 103:Drivers/STM32F4xx_HAL_Driver/Src/stm32f4xx_hal_dma_ex.c ****   
 158              		.loc 1 103 0
 159 0056 0020     		movs	r0, #0
 160 0058 E3E7     		b	.L8
 161              	.LVL17:
 162              	.L9:
 117:Drivers/STM32F4xx_HAL_Driver/Src/stm32f4xx_hal_dma_ex.c ****     
 163              		.loc 1 117 0
 164 005a 0220     		movs	r0, #2
 165              	.LVL18:
 166 005c E1E7     		b	.L8
 167              		.cfi_endproc
 168              	.LFE130:
 170              		.section	.text.HAL_DMAEx_MultiBufferStart_IT,"ax",%progbits
 171              		.align	1
 172              		.global	HAL_DMAEx_MultiBufferStart_IT
 173              		.syntax unified
 174              		.thumb
 175              		.thumb_func
 176              		.fpu fpv4-sp-d16
 178              	HAL_DMAEx_MultiBufferStart_IT:
 179              	.LFB131:
 156:Drivers/STM32F4xx_HAL_Driver/Src/stm32f4xx_hal_dma_ex.c ****   HAL_StatusTypeDef status = HAL_OK;
 180              		.loc 1 156 0
 181              		.cfi_startproc
 182              		@ args = 4, pretend = 0, frame = 0
 183              		@ frame_needed = 0, uses_anonymous_args = 0
 184              	.LVL19:
 185 0000 38B5     		push	{r3, r4, r5, lr}
 186              	.LCFI4:
 187              		.cfi_def_cfa_offset 16
 188              		.cfi_offset 3, -16
 189              		.cfi_offset 4, -12
 190              		.cfi_offset 5, -8
 191              		.cfi_offset 14, -4
 192              	.LVL20:
 163:Drivers/STM32F4xx_HAL_Driver/Src/stm32f4xx_hal_dma_ex.c ****   {
 193              		.loc 1 163 0
 194 0002 8468     		ldr	r4, [r0, #8]
 195 0004 802C     		cmp	r4, #128
 196 0006 17D0     		beq	.L304
 170:Drivers/STM32F4xx_HAL_Driver/Src/stm32f4xx_hal_dma_ex.c ****   {
 197              		.loc 1 170 0
ARM GAS  /tmp/cc8VKHC2.s 			page 10


 198 0008 C46B     		ldr	r4, [r0, #60]
 199 000a D4B1     		cbz	r4, .L17
 170:Drivers/STM32F4xx_HAL_Driver/Src/stm32f4xx_hal_dma_ex.c ****   {
 200              		.loc 1 170 0 is_stmt 0 discriminator 1
 201 000c 446C     		ldr	r4, [r0, #68]
 202 000e C4B1     		cbz	r4, .L17
 170:Drivers/STM32F4xx_HAL_Driver/Src/stm32f4xx_hal_dma_ex.c ****   {
 203              		.loc 1 170 0 discriminator 2
 204 0010 C46C     		ldr	r4, [r0, #76]
 205 0012 B4B1     		cbz	r4, .L17
 177:Drivers/STM32F4xx_HAL_Driver/Src/stm32f4xx_hal_dma_ex.c ****   
 206              		.loc 1 177 0 is_stmt 1
 207 0014 90F83440 		ldrb	r4, [r0, #52]	@ zero_extendqisi2
 208 0018 012C     		cmp	r4, #1
 209 001a 00F06187 		beq	.L62
 177:Drivers/STM32F4xx_HAL_Driver/Src/stm32f4xx_hal_dma_ex.c ****   
 210              		.loc 1 177 0 is_stmt 0 discriminator 2
 211 001e 0124     		movs	r4, #1
 212 0020 80F83440 		strb	r4, [r0, #52]
 179:Drivers/STM32F4xx_HAL_Driver/Src/stm32f4xx_hal_dma_ex.c ****   {
 213              		.loc 1 179 0 is_stmt 1 discriminator 2
 214 0024 90F83540 		ldrb	r4, [r0, #53]	@ zero_extendqisi2
 215 0028 E4B2     		uxtb	r4, r4
 216 002a 012C     		cmp	r4, #1
 217 002c 0DD0     		beq	.L305
 218:Drivers/STM32F4xx_HAL_Driver/Src/stm32f4xx_hal_dma_ex.c ****     
 218              		.loc 1 218 0
 219 002e 0023     		movs	r3, #0
 220              	.LVL21:
 221 0030 80F83430 		strb	r3, [r0, #52]
 222              	.LVL22:
 221:Drivers/STM32F4xx_HAL_Driver/Src/stm32f4xx_hal_dma_ex.c ****   }  
 223              		.loc 1 221 0
 224 0034 0220     		movs	r0, #2
 225              	.LVL23:
 226 0036 07E0     		b	.L16
 227              	.LVL24:
 228              	.L304:
 165:Drivers/STM32F4xx_HAL_Driver/Src/stm32f4xx_hal_dma_ex.c ****     return HAL_ERROR;
 229              		.loc 1 165 0
 230 0038 4FF48073 		mov	r3, #256
 231              	.LVL25:
 232 003c 4365     		str	r3, [r0, #84]
 166:Drivers/STM32F4xx_HAL_Driver/Src/stm32f4xx_hal_dma_ex.c ****   }
 233              		.loc 1 166 0
 234 003e 0120     		movs	r0, #1
 235              	.LVL26:
 236 0040 02E0     		b	.L16
 237              	.LVL27:
 238              	.L17:
 172:Drivers/STM32F4xx_HAL_Driver/Src/stm32f4xx_hal_dma_ex.c ****     return HAL_ERROR;
 239              		.loc 1 172 0
 240 0042 4023     		movs	r3, #64
 241              	.LVL28:
 242 0044 4365     		str	r3, [r0, #84]
 173:Drivers/STM32F4xx_HAL_Driver/Src/stm32f4xx_hal_dma_ex.c ****   }
 243              		.loc 1 173 0
ARM GAS  /tmp/cc8VKHC2.s 			page 11


 244 0046 0120     		movs	r0, #1
 245              	.LVL29:
 246              	.L16:
 224:Drivers/STM32F4xx_HAL_Driver/Src/stm32f4xx_hal_dma_ex.c **** 
 247              		.loc 1 224 0
 248 0048 38BD     		pop	{r3, r4, r5, pc}
 249              	.LVL30:
 250              	.L305:
 251 004a 0446     		mov	r4, r0
 182:Drivers/STM32F4xx_HAL_Driver/Src/stm32f4xx_hal_dma_ex.c ****     
 252              		.loc 1 182 0
 253 004c 0220     		movs	r0, #2
 254              	.LVL31:
 255 004e 84F83500 		strb	r0, [r4, #53]
 185:Drivers/STM32F4xx_HAL_Driver/Src/stm32f4xx_hal_dma_ex.c ****     
 256              		.loc 1 185 0
 257 0052 0020     		movs	r0, #0
 258 0054 6065     		str	r0, [r4, #84]
 188:Drivers/STM32F4xx_HAL_Driver/Src/stm32f4xx_hal_dma_ex.c ****     
 259              		.loc 1 188 0
 260 0056 2568     		ldr	r5, [r4]
 261 0058 2868     		ldr	r0, [r5]
 262 005a 40F48020 		orr	r0, r0, #262144
 263 005e 2860     		str	r0, [r5]
 191:Drivers/STM32F4xx_HAL_Driver/Src/stm32f4xx_hal_dma_ex.c ****     
 264              		.loc 1 191 0
 265 0060 2068     		ldr	r0, [r4]
 266 0062 0361     		str	r3, [r0, #16]
 194:Drivers/STM32F4xx_HAL_Driver/Src/stm32f4xx_hal_dma_ex.c ****     
 267              		.loc 1 194 0
 268 0064 049B     		ldr	r3, [sp, #16]
 269              	.LVL32:
 270 0066 2046     		mov	r0, r4
 271              	.LVL33:
 272 0068 FFF7FEFF 		bl	DMA_MultiBufferSetConfig
 273              	.LVL34:
 197:Drivers/STM32F4xx_HAL_Driver/Src/stm32f4xx_hal_dma_ex.c ****     __HAL_DMA_CLEAR_FLAG (hdma, __HAL_DMA_GET_HT_FLAG_INDEX(hdma));
 274              		.loc 1 197 0
 275 006c 2368     		ldr	r3, [r4]
 276 006e C64A     		ldr	r2, .L317
 277 0070 9342     		cmp	r3, r2
 278 0072 40F29880 		bls	.L20
 197:Drivers/STM32F4xx_HAL_Driver/Src/stm32f4xx_hal_dma_ex.c ****     __HAL_DMA_CLEAR_FLAG (hdma, __HAL_DMA_GET_HT_FLAG_INDEX(hdma));
 279              		.loc 1 197 0 is_stmt 0 discriminator 1
 280 0076 A2F58962 		sub	r2, r2, #1096
 281 007a 9342     		cmp	r3, r2
 282 007c 31D0     		beq	.L63
 197:Drivers/STM32F4xx_HAL_Driver/Src/stm32f4xx_hal_dma_ex.c ****     __HAL_DMA_CLEAR_FLAG (hdma, __HAL_DMA_GET_HT_FLAG_INDEX(hdma));
 283              		.loc 1 197 0 discriminator 3
 284 007e 02F58062 		add	r2, r2, #1024
 285 0082 9342     		cmp	r3, r2
 286 0084 74D0     		beq	.L64
 197:Drivers/STM32F4xx_HAL_Driver/Src/stm32f4xx_hal_dma_ex.c ****     __HAL_DMA_CLEAR_FLAG (hdma, __HAL_DMA_GET_HT_FLAG_INDEX(hdma));
 287              		.loc 1 197 0 discriminator 5
 288 0086 A2F56872 		sub	r2, r2, #928
 289 008a 9342     		cmp	r3, r2
 290 008c 72D0     		beq	.L65
ARM GAS  /tmp/cc8VKHC2.s 			page 12


 197:Drivers/STM32F4xx_HAL_Driver/Src/stm32f4xx_hal_dma_ex.c ****     __HAL_DMA_CLEAR_FLAG (hdma, __HAL_DMA_GET_HT_FLAG_INDEX(hdma));
 291              		.loc 1 197 0 discriminator 7
 292 008e 02F58062 		add	r2, r2, #1024
 293 0092 9342     		cmp	r3, r2
 294 0094 70D0     		beq	.L66
 197:Drivers/STM32F4xx_HAL_Driver/Src/stm32f4xx_hal_dma_ex.c ****     __HAL_DMA_CLEAR_FLAG (hdma, __HAL_DMA_GET_HT_FLAG_INDEX(hdma));
 295              		.loc 1 197 0 discriminator 9
 296 0096 A2F58962 		sub	r2, r2, #1096
 297 009a 9342     		cmp	r3, r2
 298 009c 6ED0     		beq	.L67
 197:Drivers/STM32F4xx_HAL_Driver/Src/stm32f4xx_hal_dma_ex.c ****     __HAL_DMA_CLEAR_FLAG (hdma, __HAL_DMA_GET_HT_FLAG_INDEX(hdma));
 299              		.loc 1 197 0 discriminator 11
 300 009e 02F58062 		add	r2, r2, #1024
 301 00a2 9342     		cmp	r3, r2
 302 00a4 6DD0     		beq	.L68
 197:Drivers/STM32F4xx_HAL_Driver/Src/stm32f4xx_hal_dma_ex.c ****     __HAL_DMA_CLEAR_FLAG (hdma, __HAL_DMA_GET_HT_FLAG_INDEX(hdma));
 303              		.loc 1 197 0 discriminator 13
 304 00a6 A2F56872 		sub	r2, r2, #928
 305 00aa 9342     		cmp	r3, r2
 306 00ac 6CD0     		beq	.L69
 197:Drivers/STM32F4xx_HAL_Driver/Src/stm32f4xx_hal_dma_ex.c ****     __HAL_DMA_CLEAR_FLAG (hdma, __HAL_DMA_GET_HT_FLAG_INDEX(hdma));
 307              		.loc 1 197 0 discriminator 15
 308 00ae 02F58062 		add	r2, r2, #1024
 309 00b2 9342     		cmp	r3, r2
 310 00b4 6BD0     		beq	.L70
 197:Drivers/STM32F4xx_HAL_Driver/Src/stm32f4xx_hal_dma_ex.c ****     __HAL_DMA_CLEAR_FLAG (hdma, __HAL_DMA_GET_HT_FLAG_INDEX(hdma));
 311              		.loc 1 197 0 discriminator 17
 312 00b6 A2F58962 		sub	r2, r2, #1096
 313 00ba 9342     		cmp	r3, r2
 314 00bc 6AD0     		beq	.L71
 197:Drivers/STM32F4xx_HAL_Driver/Src/stm32f4xx_hal_dma_ex.c ****     __HAL_DMA_CLEAR_FLAG (hdma, __HAL_DMA_GET_HT_FLAG_INDEX(hdma));
 315              		.loc 1 197 0 discriminator 19
 316 00be 02F58062 		add	r2, r2, #1024
 317 00c2 9342     		cmp	r3, r2
 318 00c4 69D0     		beq	.L72
 197:Drivers/STM32F4xx_HAL_Driver/Src/stm32f4xx_hal_dma_ex.c ****     __HAL_DMA_CLEAR_FLAG (hdma, __HAL_DMA_GET_HT_FLAG_INDEX(hdma));
 319              		.loc 1 197 0 discriminator 21
 320 00c6 A2F56872 		sub	r2, r2, #928
 321 00ca 9342     		cmp	r3, r2
 322 00cc 68D0     		beq	.L73
 197:Drivers/STM32F4xx_HAL_Driver/Src/stm32f4xx_hal_dma_ex.c ****     __HAL_DMA_CLEAR_FLAG (hdma, __HAL_DMA_GET_HT_FLAG_INDEX(hdma));
 323              		.loc 1 197 0 discriminator 23
 324 00ce 02F58062 		add	r2, r2, #1024
 325 00d2 9342     		cmp	r3, r2
 326 00d4 02D0     		beq	.L306
 197:Drivers/STM32F4xx_HAL_Driver/Src/stm32f4xx_hal_dma_ex.c ****     __HAL_DMA_CLEAR_FLAG (hdma, __HAL_DMA_GET_HT_FLAG_INDEX(hdma));
 327              		.loc 1 197 0
 328 00d6 4FF00062 		mov	r2, #134217728
 329 00da 03E0     		b	.L21
 330              	.L306:
 331 00dc 4FF40012 		mov	r2, #2097152
 332 00e0 00E0     		b	.L21
 333              	.L63:
 334 00e2 2022     		movs	r2, #32
 335              	.L21:
 197:Drivers/STM32F4xx_HAL_Driver/Src/stm32f4xx_hal_dma_ex.c ****     __HAL_DMA_CLEAR_FLAG (hdma, __HAL_DMA_GET_HT_FLAG_INDEX(hdma));
 336              		.loc 1 197 0 discriminator 50
ARM GAS  /tmp/cc8VKHC2.s 			page 13


 337 00e4 A94B     		ldr	r3, .L317+4
 338 00e6 DA60     		str	r2, [r3, #12]
 339              	.LVL35:
 340              	.L22:
 198:Drivers/STM32F4xx_HAL_Driver/Src/stm32f4xx_hal_dma_ex.c ****     __HAL_DMA_CLEAR_FLAG (hdma, __HAL_DMA_GET_TE_FLAG_INDEX(hdma));
 341              		.loc 1 198 0 is_stmt 1
 342 00e8 2368     		ldr	r3, [r4]
 343 00ea A74A     		ldr	r2, .L317
 344 00ec 9342     		cmp	r3, r2
 345 00ee 40F2CE81 		bls	.L28
 198:Drivers/STM32F4xx_HAL_Driver/Src/stm32f4xx_hal_dma_ex.c ****     __HAL_DMA_CLEAR_FLAG (hdma, __HAL_DMA_GET_TE_FLAG_INDEX(hdma));
 346              		.loc 1 198 0 is_stmt 0 discriminator 1
 347 00f2 A2F58962 		sub	r2, r2, #1096
 348 00f6 9342     		cmp	r3, r2
 349 00f8 00F06781 		beq	.L111
 198:Drivers/STM32F4xx_HAL_Driver/Src/stm32f4xx_hal_dma_ex.c ****     __HAL_DMA_CLEAR_FLAG (hdma, __HAL_DMA_GET_TE_FLAG_INDEX(hdma));
 350              		.loc 1 198 0 discriminator 3
 351 00fc 02F58062 		add	r2, r2, #1024
 352 0100 9342     		cmp	r3, r2
 353 0102 00F0A981 		beq	.L112
 198:Drivers/STM32F4xx_HAL_Driver/Src/stm32f4xx_hal_dma_ex.c ****     __HAL_DMA_CLEAR_FLAG (hdma, __HAL_DMA_GET_TE_FLAG_INDEX(hdma));
 354              		.loc 1 198 0 discriminator 5
 355 0106 A2F56872 		sub	r2, r2, #928
 356 010a 9342     		cmp	r3, r2
 357 010c 00F0A681 		beq	.L113
 198:Drivers/STM32F4xx_HAL_Driver/Src/stm32f4xx_hal_dma_ex.c ****     __HAL_DMA_CLEAR_FLAG (hdma, __HAL_DMA_GET_TE_FLAG_INDEX(hdma));
 358              		.loc 1 198 0 discriminator 7
 359 0110 02F58062 		add	r2, r2, #1024
 360 0114 9342     		cmp	r3, r2
 361 0116 00F0A381 		beq	.L114
 198:Drivers/STM32F4xx_HAL_Driver/Src/stm32f4xx_hal_dma_ex.c ****     __HAL_DMA_CLEAR_FLAG (hdma, __HAL_DMA_GET_TE_FLAG_INDEX(hdma));
 362              		.loc 1 198 0 discriminator 9
 363 011a A2F58962 		sub	r2, r2, #1096
 364 011e 9342     		cmp	r3, r2
 365 0120 00F0A081 		beq	.L115
 198:Drivers/STM32F4xx_HAL_Driver/Src/stm32f4xx_hal_dma_ex.c ****     __HAL_DMA_CLEAR_FLAG (hdma, __HAL_DMA_GET_TE_FLAG_INDEX(hdma));
 366              		.loc 1 198 0 discriminator 11
 367 0124 02F58062 		add	r2, r2, #1024
 368 0128 9342     		cmp	r3, r2
 369 012a 00F09E81 		beq	.L116
 198:Drivers/STM32F4xx_HAL_Driver/Src/stm32f4xx_hal_dma_ex.c ****     __HAL_DMA_CLEAR_FLAG (hdma, __HAL_DMA_GET_TE_FLAG_INDEX(hdma));
 370              		.loc 1 198 0 discriminator 13
 371 012e A2F56872 		sub	r2, r2, #928
 372 0132 9342     		cmp	r3, r2
 373 0134 00F09C81 		beq	.L117
 198:Drivers/STM32F4xx_HAL_Driver/Src/stm32f4xx_hal_dma_ex.c ****     __HAL_DMA_CLEAR_FLAG (hdma, __HAL_DMA_GET_TE_FLAG_INDEX(hdma));
 374              		.loc 1 198 0 discriminator 15
 375 0138 02F58062 		add	r2, r2, #1024
 376 013c 9342     		cmp	r3, r2
 377 013e 00F09A81 		beq	.L118
 198:Drivers/STM32F4xx_HAL_Driver/Src/stm32f4xx_hal_dma_ex.c ****     __HAL_DMA_CLEAR_FLAG (hdma, __HAL_DMA_GET_TE_FLAG_INDEX(hdma));
 378              		.loc 1 198 0 discriminator 17
 379 0142 A2F58962 		sub	r2, r2, #1096
 380 0146 9342     		cmp	r3, r2
 381 0148 00F09881 		beq	.L119
 198:Drivers/STM32F4xx_HAL_Driver/Src/stm32f4xx_hal_dma_ex.c ****     __HAL_DMA_CLEAR_FLAG (hdma, __HAL_DMA_GET_TE_FLAG_INDEX(hdma));
 382              		.loc 1 198 0 discriminator 19
ARM GAS  /tmp/cc8VKHC2.s 			page 14


 383 014c 02F58062 		add	r2, r2, #1024
 384 0150 9342     		cmp	r3, r2
 385 0152 00F09681 		beq	.L120
 198:Drivers/STM32F4xx_HAL_Driver/Src/stm32f4xx_hal_dma_ex.c ****     __HAL_DMA_CLEAR_FLAG (hdma, __HAL_DMA_GET_TE_FLAG_INDEX(hdma));
 386              		.loc 1 198 0 discriminator 21
 387 0156 A2F56872 		sub	r2, r2, #928
 388 015a 9342     		cmp	r3, r2
 389 015c 00F09481 		beq	.L121
 198:Drivers/STM32F4xx_HAL_Driver/Src/stm32f4xx_hal_dma_ex.c ****     __HAL_DMA_CLEAR_FLAG (hdma, __HAL_DMA_GET_TE_FLAG_INDEX(hdma));
 390              		.loc 1 198 0 discriminator 23
 391 0160 02F58062 		add	r2, r2, #1024
 392 0164 9342     		cmp	r3, r2
 393 0166 00F02D81 		beq	.L307
 198:Drivers/STM32F4xx_HAL_Driver/Src/stm32f4xx_hal_dma_ex.c ****     __HAL_DMA_CLEAR_FLAG (hdma, __HAL_DMA_GET_TE_FLAG_INDEX(hdma));
 394              		.loc 1 198 0
 395 016a 4FF08062 		mov	r2, #67108864
 396 016e 2DE1     		b	.L29
 397              	.LVL36:
 398              	.L64:
 197:Drivers/STM32F4xx_HAL_Driver/Src/stm32f4xx_hal_dma_ex.c ****     __HAL_DMA_CLEAR_FLAG (hdma, __HAL_DMA_GET_HT_FLAG_INDEX(hdma));
 399              		.loc 1 197 0 is_stmt 1
 400 0170 2022     		movs	r2, #32
 401 0172 B7E7     		b	.L21
 402              	.L65:
 403 0174 2022     		movs	r2, #32
 404 0176 B5E7     		b	.L21
 405              	.L66:
 406 0178 2022     		movs	r2, #32
 407 017a B3E7     		b	.L21
 408              	.L67:
 409 017c 4FF40062 		mov	r2, #2048
 410 0180 B0E7     		b	.L21
 411              	.L68:
 412 0182 4FF40062 		mov	r2, #2048
 413 0186 ADE7     		b	.L21
 414              	.L69:
 415 0188 4FF40062 		mov	r2, #2048
 416 018c AAE7     		b	.L21
 417              	.L70:
 418 018e 4FF40062 		mov	r2, #2048
 419 0192 A7E7     		b	.L21
 420              	.L71:
 421 0194 4FF40012 		mov	r2, #2097152
 422 0198 A4E7     		b	.L21
 423              	.L72:
 424 019a 4FF40012 		mov	r2, #2097152
 425 019e A1E7     		b	.L21
 426              	.L73:
 427 01a0 4FF40012 		mov	r2, #2097152
 428 01a4 9EE7     		b	.L21
 429              	.L20:
 197:Drivers/STM32F4xx_HAL_Driver/Src/stm32f4xx_hal_dma_ex.c ****     __HAL_DMA_CLEAR_FLAG (hdma, __HAL_DMA_GET_HT_FLAG_INDEX(hdma));
 430              		.loc 1 197 0 is_stmt 0 discriminator 2
 431 01a6 7A4A     		ldr	r2, .L317+8
 432 01a8 9342     		cmp	r3, r2
 433 01aa 53D9     		bls	.L23
 197:Drivers/STM32F4xx_HAL_Driver/Src/stm32f4xx_hal_dma_ex.c ****     __HAL_DMA_CLEAR_FLAG (hdma, __HAL_DMA_GET_HT_FLAG_INDEX(hdma));
ARM GAS  /tmp/cc8VKHC2.s 			page 15


 434              		.loc 1 197 0 discriminator 51
 435 01ac A83A     		subs	r2, r2, #168
 436 01ae 9342     		cmp	r3, r2
 437 01b0 31D0     		beq	.L75
 197:Drivers/STM32F4xx_HAL_Driver/Src/stm32f4xx_hal_dma_ex.c ****     __HAL_DMA_CLEAR_FLAG (hdma, __HAL_DMA_GET_HT_FLAG_INDEX(hdma));
 438              		.loc 1 197 0 discriminator 53
 439 01b2 02F58062 		add	r2, r2, #1024
 440 01b6 9342     		cmp	r3, r2
 441 01b8 31D0     		beq	.L76
 197:Drivers/STM32F4xx_HAL_Driver/Src/stm32f4xx_hal_dma_ex.c ****     __HAL_DMA_CLEAR_FLAG (hdma, __HAL_DMA_GET_HT_FLAG_INDEX(hdma));
 442              		.loc 1 197 0 discriminator 55
 443 01ba A2F56872 		sub	r2, r2, #928
 444 01be 9342     		cmp	r3, r2
 445 01c0 2FD0     		beq	.L77
 197:Drivers/STM32F4xx_HAL_Driver/Src/stm32f4xx_hal_dma_ex.c ****     __HAL_DMA_CLEAR_FLAG (hdma, __HAL_DMA_GET_HT_FLAG_INDEX(hdma));
 446              		.loc 1 197 0 discriminator 57
 447 01c2 02F58062 		add	r2, r2, #1024
 448 01c6 9342     		cmp	r3, r2
 449 01c8 2DD0     		beq	.L78
 197:Drivers/STM32F4xx_HAL_Driver/Src/stm32f4xx_hal_dma_ex.c ****     __HAL_DMA_CLEAR_FLAG (hdma, __HAL_DMA_GET_HT_FLAG_INDEX(hdma));
 450              		.loc 1 197 0 discriminator 59
 451 01ca A2F58962 		sub	r2, r2, #1096
 452 01ce 9342     		cmp	r3, r2
 453 01d0 2BD0     		beq	.L79
 197:Drivers/STM32F4xx_HAL_Driver/Src/stm32f4xx_hal_dma_ex.c ****     __HAL_DMA_CLEAR_FLAG (hdma, __HAL_DMA_GET_HT_FLAG_INDEX(hdma));
 454              		.loc 1 197 0 discriminator 61
 455 01d2 02F58062 		add	r2, r2, #1024
 456 01d6 9342     		cmp	r3, r2
 457 01d8 2AD0     		beq	.L80
 197:Drivers/STM32F4xx_HAL_Driver/Src/stm32f4xx_hal_dma_ex.c ****     __HAL_DMA_CLEAR_FLAG (hdma, __HAL_DMA_GET_HT_FLAG_INDEX(hdma));
 458              		.loc 1 197 0 discriminator 63
 459 01da A2F56872 		sub	r2, r2, #928
 460 01de 9342     		cmp	r3, r2
 461 01e0 29D0     		beq	.L81
 197:Drivers/STM32F4xx_HAL_Driver/Src/stm32f4xx_hal_dma_ex.c ****     __HAL_DMA_CLEAR_FLAG (hdma, __HAL_DMA_GET_HT_FLAG_INDEX(hdma));
 462              		.loc 1 197 0 discriminator 65
 463 01e2 02F58062 		add	r2, r2, #1024
 464 01e6 9342     		cmp	r3, r2
 465 01e8 28D0     		beq	.L82
 197:Drivers/STM32F4xx_HAL_Driver/Src/stm32f4xx_hal_dma_ex.c ****     __HAL_DMA_CLEAR_FLAG (hdma, __HAL_DMA_GET_HT_FLAG_INDEX(hdma));
 466              		.loc 1 197 0 discriminator 67
 467 01ea A2F58962 		sub	r2, r2, #1096
 468 01ee 9342     		cmp	r3, r2
 469 01f0 27D0     		beq	.L83
 197:Drivers/STM32F4xx_HAL_Driver/Src/stm32f4xx_hal_dma_ex.c ****     __HAL_DMA_CLEAR_FLAG (hdma, __HAL_DMA_GET_HT_FLAG_INDEX(hdma));
 470              		.loc 1 197 0 discriminator 69
 471 01f2 02F58062 		add	r2, r2, #1024
 472 01f6 9342     		cmp	r3, r2
 473 01f8 26D0     		beq	.L84
 197:Drivers/STM32F4xx_HAL_Driver/Src/stm32f4xx_hal_dma_ex.c ****     __HAL_DMA_CLEAR_FLAG (hdma, __HAL_DMA_GET_HT_FLAG_INDEX(hdma));
 474              		.loc 1 197 0 discriminator 71
 475 01fa A2F56872 		sub	r2, r2, #928
 476 01fe 9342     		cmp	r3, r2
 477 0200 25D0     		beq	.L85
 197:Drivers/STM32F4xx_HAL_Driver/Src/stm32f4xx_hal_dma_ex.c ****     __HAL_DMA_CLEAR_FLAG (hdma, __HAL_DMA_GET_HT_FLAG_INDEX(hdma));
 478              		.loc 1 197 0 discriminator 73
 479 0202 02F58062 		add	r2, r2, #1024
ARM GAS  /tmp/cc8VKHC2.s 			page 16


 480 0206 9342     		cmp	r3, r2
 481 0208 02D0     		beq	.L308
 197:Drivers/STM32F4xx_HAL_Driver/Src/stm32f4xx_hal_dma_ex.c ****     __HAL_DMA_CLEAR_FLAG (hdma, __HAL_DMA_GET_HT_FLAG_INDEX(hdma));
 482              		.loc 1 197 0
 483 020a 4FF00063 		mov	r3, #134217728
 484 020e 03E0     		b	.L24
 485              	.L308:
 486 0210 4FF40013 		mov	r3, #2097152
 487 0214 00E0     		b	.L24
 488              	.L75:
 489 0216 2023     		movs	r3, #32
 490              	.L24:
 197:Drivers/STM32F4xx_HAL_Driver/Src/stm32f4xx_hal_dma_ex.c ****     __HAL_DMA_CLEAR_FLAG (hdma, __HAL_DMA_GET_HT_FLAG_INDEX(hdma));
 491              		.loc 1 197 0 discriminator 100
 492 0218 5C4A     		ldr	r2, .L317+4
 493 021a 9360     		str	r3, [r2, #8]
 494              	.LVL37:
 495 021c 64E7     		b	.L22
 496              	.LVL38:
 497              	.L76:
 197:Drivers/STM32F4xx_HAL_Driver/Src/stm32f4xx_hal_dma_ex.c ****     __HAL_DMA_CLEAR_FLAG (hdma, __HAL_DMA_GET_HT_FLAG_INDEX(hdma));
 498              		.loc 1 197 0
 499 021e 2023     		movs	r3, #32
 500 0220 FAE7     		b	.L24
 501              	.L77:
 502 0222 2023     		movs	r3, #32
 503 0224 F8E7     		b	.L24
 504              	.L78:
 505 0226 2023     		movs	r3, #32
 506 0228 F6E7     		b	.L24
 507              	.L79:
 508 022a 4FF40063 		mov	r3, #2048
 509 022e F3E7     		b	.L24
 510              	.L80:
 511 0230 4FF40063 		mov	r3, #2048
 512 0234 F0E7     		b	.L24
 513              	.L81:
 514 0236 4FF40063 		mov	r3, #2048
 515 023a EDE7     		b	.L24
 516              	.L82:
 517 023c 4FF40063 		mov	r3, #2048
 518 0240 EAE7     		b	.L24
 519              	.L83:
 520 0242 4FF40013 		mov	r3, #2097152
 521 0246 E7E7     		b	.L24
 522              	.L84:
 523 0248 4FF40013 		mov	r3, #2097152
 524 024c E4E7     		b	.L24
 525              	.L85:
 526 024e 4FF40013 		mov	r3, #2097152
 527 0252 E1E7     		b	.L24
 528              	.L23:
 197:Drivers/STM32F4xx_HAL_Driver/Src/stm32f4xx_hal_dma_ex.c ****     __HAL_DMA_CLEAR_FLAG (hdma, __HAL_DMA_GET_HT_FLAG_INDEX(hdma));
 529              		.loc 1 197 0 discriminator 52
 530 0254 4F4A     		ldr	r2, .L317+12
 531 0256 9342     		cmp	r3, r2
 532 0258 53D9     		bls	.L25
ARM GAS  /tmp/cc8VKHC2.s 			page 17


 197:Drivers/STM32F4xx_HAL_Driver/Src/stm32f4xx_hal_dma_ex.c ****     __HAL_DMA_CLEAR_FLAG (hdma, __HAL_DMA_GET_HT_FLAG_INDEX(hdma));
 533              		.loc 1 197 0 discriminator 102
 534 025a 483A     		subs	r2, r2, #72
 535 025c 9342     		cmp	r3, r2
 536 025e 2ED0     		beq	.L87
 197:Drivers/STM32F4xx_HAL_Driver/Src/stm32f4xx_hal_dma_ex.c ****     __HAL_DMA_CLEAR_FLAG (hdma, __HAL_DMA_GET_HT_FLAG_INDEX(hdma));
 537              		.loc 1 197 0 discriminator 104
 538 0260 02F58062 		add	r2, r2, #1024
 539 0264 9342     		cmp	r3, r2
 540 0266 2ED0     		beq	.L88
 197:Drivers/STM32F4xx_HAL_Driver/Src/stm32f4xx_hal_dma_ex.c ****     __HAL_DMA_CLEAR_FLAG (hdma, __HAL_DMA_GET_HT_FLAG_INDEX(hdma));
 541              		.loc 1 197 0 discriminator 106
 542 0268 A2F56872 		sub	r2, r2, #928
 543 026c 9342     		cmp	r3, r2
 544 026e 2CD0     		beq	.L89
 197:Drivers/STM32F4xx_HAL_Driver/Src/stm32f4xx_hal_dma_ex.c ****     __HAL_DMA_CLEAR_FLAG (hdma, __HAL_DMA_GET_HT_FLAG_INDEX(hdma));
 545              		.loc 1 197 0 discriminator 108
 546 0270 02F58062 		add	r2, r2, #1024
 547 0274 9342     		cmp	r3, r2
 548 0276 2AD0     		beq	.L90
 197:Drivers/STM32F4xx_HAL_Driver/Src/stm32f4xx_hal_dma_ex.c ****     __HAL_DMA_CLEAR_FLAG (hdma, __HAL_DMA_GET_HT_FLAG_INDEX(hdma));
 549              		.loc 1 197 0 discriminator 110
 550 0278 A2F58962 		sub	r2, r2, #1096
 551 027c 9342     		cmp	r3, r2
 552 027e 28D0     		beq	.L91
 197:Drivers/STM32F4xx_HAL_Driver/Src/stm32f4xx_hal_dma_ex.c ****     __HAL_DMA_CLEAR_FLAG (hdma, __HAL_DMA_GET_HT_FLAG_INDEX(hdma));
 553              		.loc 1 197 0 discriminator 112
 554 0280 02F58062 		add	r2, r2, #1024
 555 0284 9342     		cmp	r3, r2
 556 0286 27D0     		beq	.L92
 197:Drivers/STM32F4xx_HAL_Driver/Src/stm32f4xx_hal_dma_ex.c ****     __HAL_DMA_CLEAR_FLAG (hdma, __HAL_DMA_GET_HT_FLAG_INDEX(hdma));
 557              		.loc 1 197 0 discriminator 114
 558 0288 A2F56872 		sub	r2, r2, #928
 559 028c 9342     		cmp	r3, r2
 560 028e 26D0     		beq	.L93
 197:Drivers/STM32F4xx_HAL_Driver/Src/stm32f4xx_hal_dma_ex.c ****     __HAL_DMA_CLEAR_FLAG (hdma, __HAL_DMA_GET_HT_FLAG_INDEX(hdma));
 561              		.loc 1 197 0 discriminator 116
 562 0290 02F58062 		add	r2, r2, #1024
 563 0294 9342     		cmp	r3, r2
 564 0296 25D0     		beq	.L94
 197:Drivers/STM32F4xx_HAL_Driver/Src/stm32f4xx_hal_dma_ex.c ****     __HAL_DMA_CLEAR_FLAG (hdma, __HAL_DMA_GET_HT_FLAG_INDEX(hdma));
 565              		.loc 1 197 0 discriminator 118
 566 0298 A2F58962 		sub	r2, r2, #1096
 567 029c 9342     		cmp	r3, r2
 568 029e 24D0     		beq	.L95
 197:Drivers/STM32F4xx_HAL_Driver/Src/stm32f4xx_hal_dma_ex.c ****     __HAL_DMA_CLEAR_FLAG (hdma, __HAL_DMA_GET_HT_FLAG_INDEX(hdma));
 569              		.loc 1 197 0 discriminator 120
 570 02a0 02F58062 		add	r2, r2, #1024
 571 02a4 9342     		cmp	r3, r2
 572 02a6 23D0     		beq	.L96
 197:Drivers/STM32F4xx_HAL_Driver/Src/stm32f4xx_hal_dma_ex.c ****     __HAL_DMA_CLEAR_FLAG (hdma, __HAL_DMA_GET_HT_FLAG_INDEX(hdma));
 573              		.loc 1 197 0 discriminator 122
 574 02a8 A2F56872 		sub	r2, r2, #928
 575 02ac 9342     		cmp	r3, r2
 576 02ae 22D0     		beq	.L97
 197:Drivers/STM32F4xx_HAL_Driver/Src/stm32f4xx_hal_dma_ex.c ****     __HAL_DMA_CLEAR_FLAG (hdma, __HAL_DMA_GET_HT_FLAG_INDEX(hdma));
 577              		.loc 1 197 0 discriminator 124
ARM GAS  /tmp/cc8VKHC2.s 			page 18


 578 02b0 02F58062 		add	r2, r2, #1024
 579 02b4 9342     		cmp	r3, r2
 580 02b6 21D1     		bne	.L98
 197:Drivers/STM32F4xx_HAL_Driver/Src/stm32f4xx_hal_dma_ex.c ****     __HAL_DMA_CLEAR_FLAG (hdma, __HAL_DMA_GET_HT_FLAG_INDEX(hdma));
 581              		.loc 1 197 0
 582 02b8 4FF40013 		mov	r3, #2097152
 583 02bc 00E0     		b	.L26
 584              	.L87:
 585 02be 2023     		movs	r3, #32
 586              	.L26:
 197:Drivers/STM32F4xx_HAL_Driver/Src/stm32f4xx_hal_dma_ex.c ****     __HAL_DMA_CLEAR_FLAG (hdma, __HAL_DMA_GET_HT_FLAG_INDEX(hdma));
 587              		.loc 1 197 0 discriminator 151
 588 02c0 354A     		ldr	r2, .L317+16
 589 02c2 D360     		str	r3, [r2, #12]
 590              	.LVL39:
 591 02c4 10E7     		b	.L22
 592              	.LVL40:
 593              	.L88:
 197:Drivers/STM32F4xx_HAL_Driver/Src/stm32f4xx_hal_dma_ex.c ****     __HAL_DMA_CLEAR_FLAG (hdma, __HAL_DMA_GET_HT_FLAG_INDEX(hdma));
 594              		.loc 1 197 0
 595 02c6 2023     		movs	r3, #32
 596 02c8 FAE7     		b	.L26
 597              	.L89:
 598 02ca 2023     		movs	r3, #32
 599 02cc F8E7     		b	.L26
 600              	.L90:
 601 02ce 2023     		movs	r3, #32
 602 02d0 F6E7     		b	.L26
 603              	.L91:
 604 02d2 4FF40063 		mov	r3, #2048
 605 02d6 F3E7     		b	.L26
 606              	.L92:
 607 02d8 4FF40063 		mov	r3, #2048
 608 02dc F0E7     		b	.L26
 609              	.L93:
 610 02de 4FF40063 		mov	r3, #2048
 611 02e2 EDE7     		b	.L26
 612              	.L94:
 613 02e4 4FF40063 		mov	r3, #2048
 614 02e8 EAE7     		b	.L26
 615              	.L95:
 616 02ea 4FF40013 		mov	r3, #2097152
 617 02ee E7E7     		b	.L26
 618              	.L96:
 619 02f0 4FF40013 		mov	r3, #2097152
 620 02f4 E4E7     		b	.L26
 621              	.L97:
 622 02f6 4FF40013 		mov	r3, #2097152
 623 02fa E1E7     		b	.L26
 624              	.L98:
 625 02fc 4FF00063 		mov	r3, #134217728
 626 0300 DEE7     		b	.L26
 627              	.L25:
 197:Drivers/STM32F4xx_HAL_Driver/Src/stm32f4xx_hal_dma_ex.c ****     __HAL_DMA_CLEAR_FLAG (hdma, __HAL_DMA_GET_HT_FLAG_INDEX(hdma));
 628              		.loc 1 197 0 discriminator 103
 629 0302 264A     		ldr	r2, .L317+20
 630 0304 9342     		cmp	r3, r2
ARM GAS  /tmp/cc8VKHC2.s 			page 19


 631 0306 2ED0     		beq	.L99
 197:Drivers/STM32F4xx_HAL_Driver/Src/stm32f4xx_hal_dma_ex.c ****     __HAL_DMA_CLEAR_FLAG (hdma, __HAL_DMA_GET_HT_FLAG_INDEX(hdma));
 632              		.loc 1 197 0 discriminator 153
 633 0308 02F58062 		add	r2, r2, #1024
 634 030c 9342     		cmp	r3, r2
 635 030e 2ED0     		beq	.L100
 197:Drivers/STM32F4xx_HAL_Driver/Src/stm32f4xx_hal_dma_ex.c ****     __HAL_DMA_CLEAR_FLAG (hdma, __HAL_DMA_GET_HT_FLAG_INDEX(hdma));
 636              		.loc 1 197 0 discriminator 155
 637 0310 A2F56872 		sub	r2, r2, #928
 638 0314 9342     		cmp	r3, r2
 639 0316 2CD0     		beq	.L101
 197:Drivers/STM32F4xx_HAL_Driver/Src/stm32f4xx_hal_dma_ex.c ****     __HAL_DMA_CLEAR_FLAG (hdma, __HAL_DMA_GET_HT_FLAG_INDEX(hdma));
 640              		.loc 1 197 0 discriminator 157
 641 0318 02F58062 		add	r2, r2, #1024
 642 031c 9342     		cmp	r3, r2
 643 031e 2AD0     		beq	.L102
 197:Drivers/STM32F4xx_HAL_Driver/Src/stm32f4xx_hal_dma_ex.c ****     __HAL_DMA_CLEAR_FLAG (hdma, __HAL_DMA_GET_HT_FLAG_INDEX(hdma));
 644              		.loc 1 197 0 discriminator 159
 645 0320 A2F58962 		sub	r2, r2, #1096
 646 0324 9342     		cmp	r3, r2
 647 0326 28D0     		beq	.L103
 197:Drivers/STM32F4xx_HAL_Driver/Src/stm32f4xx_hal_dma_ex.c ****     __HAL_DMA_CLEAR_FLAG (hdma, __HAL_DMA_GET_HT_FLAG_INDEX(hdma));
 648              		.loc 1 197 0 discriminator 161
 649 0328 02F58062 		add	r2, r2, #1024
 650 032c 9342     		cmp	r3, r2
 651 032e 27D0     		beq	.L104
 197:Drivers/STM32F4xx_HAL_Driver/Src/stm32f4xx_hal_dma_ex.c ****     __HAL_DMA_CLEAR_FLAG (hdma, __HAL_DMA_GET_HT_FLAG_INDEX(hdma));
 652              		.loc 1 197 0 discriminator 163
 653 0330 A2F56872 		sub	r2, r2, #928
 654 0334 9342     		cmp	r3, r2
 655 0336 33D0     		beq	.L105
 197:Drivers/STM32F4xx_HAL_Driver/Src/stm32f4xx_hal_dma_ex.c ****     __HAL_DMA_CLEAR_FLAG (hdma, __HAL_DMA_GET_HT_FLAG_INDEX(hdma));
 656              		.loc 1 197 0 discriminator 165
 657 0338 02F58062 		add	r2, r2, #1024
 658 033c 9342     		cmp	r3, r2
 659 033e 32D0     		beq	.L106
 197:Drivers/STM32F4xx_HAL_Driver/Src/stm32f4xx_hal_dma_ex.c ****     __HAL_DMA_CLEAR_FLAG (hdma, __HAL_DMA_GET_HT_FLAG_INDEX(hdma));
 660              		.loc 1 197 0 discriminator 167
 661 0340 A2F58962 		sub	r2, r2, #1096
 662 0344 9342     		cmp	r3, r2
 663 0346 31D0     		beq	.L107
 197:Drivers/STM32F4xx_HAL_Driver/Src/stm32f4xx_hal_dma_ex.c ****     __HAL_DMA_CLEAR_FLAG (hdma, __HAL_DMA_GET_HT_FLAG_INDEX(hdma));
 664              		.loc 1 197 0 discriminator 169
 665 0348 02F58062 		add	r2, r2, #1024
 666 034c 9342     		cmp	r3, r2
 667 034e 30D0     		beq	.L108
 197:Drivers/STM32F4xx_HAL_Driver/Src/stm32f4xx_hal_dma_ex.c ****     __HAL_DMA_CLEAR_FLAG (hdma, __HAL_DMA_GET_HT_FLAG_INDEX(hdma));
 668              		.loc 1 197 0 discriminator 171
 669 0350 A2F56872 		sub	r2, r2, #928
 670 0354 9342     		cmp	r3, r2
 671 0356 2FD0     		beq	.L109
 197:Drivers/STM32F4xx_HAL_Driver/Src/stm32f4xx_hal_dma_ex.c ****     __HAL_DMA_CLEAR_FLAG (hdma, __HAL_DMA_GET_HT_FLAG_INDEX(hdma));
 672              		.loc 1 197 0 discriminator 173
 673 0358 02F58062 		add	r2, r2, #1024
 674 035c 9342     		cmp	r3, r2
 675 035e 2ED1     		bne	.L110
 197:Drivers/STM32F4xx_HAL_Driver/Src/stm32f4xx_hal_dma_ex.c ****     __HAL_DMA_CLEAR_FLAG (hdma, __HAL_DMA_GET_HT_FLAG_INDEX(hdma));
ARM GAS  /tmp/cc8VKHC2.s 			page 20


 676              		.loc 1 197 0
 677 0360 4FF40013 		mov	r3, #2097152
 678 0364 00E0     		b	.L27
 679              	.L99:
 680 0366 2023     		movs	r3, #32
 681              	.L27:
 197:Drivers/STM32F4xx_HAL_Driver/Src/stm32f4xx_hal_dma_ex.c ****     __HAL_DMA_CLEAR_FLAG (hdma, __HAL_DMA_GET_HT_FLAG_INDEX(hdma));
 682              		.loc 1 197 0 discriminator 200
 683 0368 0B4A     		ldr	r2, .L317+16
 684 036a 9360     		str	r3, [r2, #8]
 685              	.LVL41:
 686 036c BCE6     		b	.L22
 687              	.LVL42:
 688              	.L100:
 197:Drivers/STM32F4xx_HAL_Driver/Src/stm32f4xx_hal_dma_ex.c ****     __HAL_DMA_CLEAR_FLAG (hdma, __HAL_DMA_GET_HT_FLAG_INDEX(hdma));
 689              		.loc 1 197 0
 690 036e 2023     		movs	r3, #32
 691 0370 FAE7     		b	.L27
 692              	.L101:
 693 0372 2023     		movs	r3, #32
 694 0374 F8E7     		b	.L27
 695              	.L102:
 696 0376 2023     		movs	r3, #32
 697 0378 F6E7     		b	.L27
 698              	.L103:
 699 037a 4FF40063 		mov	r3, #2048
 700 037e F3E7     		b	.L27
 701              	.L104:
 702 0380 4FF40063 		mov	r3, #2048
 703 0384 F0E7     		b	.L27
 704              	.L318:
 705 0386 00BF     		.align	2
 706              	.L317:
 707 0388 58640240 		.word	1073898584
 708 038c 00640240 		.word	1073898496
 709 0390 B8600240 		.word	1073897656
 710 0394 58600240 		.word	1073897560
 711 0398 00600240 		.word	1073897472
 712 039c 10600240 		.word	1073897488
 713              	.L105:
 714 03a0 4FF40063 		mov	r3, #2048
 715 03a4 E0E7     		b	.L27
 716              	.L106:
 717 03a6 4FF40063 		mov	r3, #2048
 718 03aa DDE7     		b	.L27
 719              	.L107:
 720 03ac 4FF40013 		mov	r3, #2097152
 721 03b0 DAE7     		b	.L27
 722              	.L108:
 723 03b2 4FF40013 		mov	r3, #2097152
 724 03b6 D7E7     		b	.L27
 725              	.L109:
 726 03b8 4FF40013 		mov	r3, #2097152
 727 03bc D4E7     		b	.L27
 728              	.L110:
 729 03be 4FF00063 		mov	r3, #134217728
 730 03c2 D1E7     		b	.L27
ARM GAS  /tmp/cc8VKHC2.s 			page 21


 731              	.LVL43:
 732              	.L307:
 198:Drivers/STM32F4xx_HAL_Driver/Src/stm32f4xx_hal_dma_ex.c ****     __HAL_DMA_CLEAR_FLAG (hdma, __HAL_DMA_GET_TE_FLAG_INDEX(hdma));
 733              		.loc 1 198 0 is_stmt 1
 734 03c4 4FF48012 		mov	r2, #1048576
 735 03c8 00E0     		b	.L29
 736              	.L111:
 737 03ca 1022     		movs	r2, #16
 738              	.L29:
 198:Drivers/STM32F4xx_HAL_Driver/Src/stm32f4xx_hal_dma_ex.c ****     __HAL_DMA_CLEAR_FLAG (hdma, __HAL_DMA_GET_TE_FLAG_INDEX(hdma));
 739              		.loc 1 198 0 is_stmt 0 discriminator 50
 740 03cc B24B     		ldr	r3, .L319
 741 03ce DA60     		str	r2, [r3, #12]
 742              	.L30:
 199:Drivers/STM32F4xx_HAL_Driver/Src/stm32f4xx_hal_dma_ex.c ****     __HAL_DMA_CLEAR_FLAG (hdma, __HAL_DMA_GET_DME_FLAG_INDEX(hdma));
 743              		.loc 1 199 0 is_stmt 1
 744 03d0 2368     		ldr	r3, [r4]
 745 03d2 B24A     		ldr	r2, .L319+4
 746 03d4 9342     		cmp	r3, r2
 747 03d6 40F2CD81 		bls	.L36
 199:Drivers/STM32F4xx_HAL_Driver/Src/stm32f4xx_hal_dma_ex.c ****     __HAL_DMA_CLEAR_FLAG (hdma, __HAL_DMA_GET_DME_FLAG_INDEX(hdma));
 748              		.loc 1 199 0 is_stmt 0 discriminator 1
 749 03da A2F58962 		sub	r2, r2, #1096
 750 03de 9342     		cmp	r3, r2
 751 03e0 00F06681 		beq	.L159
 199:Drivers/STM32F4xx_HAL_Driver/Src/stm32f4xx_hal_dma_ex.c ****     __HAL_DMA_CLEAR_FLAG (hdma, __HAL_DMA_GET_DME_FLAG_INDEX(hdma));
 752              		.loc 1 199 0 discriminator 3
 753 03e4 02F58062 		add	r2, r2, #1024
 754 03e8 9342     		cmp	r3, r2
 755 03ea 00F0A881 		beq	.L160
 199:Drivers/STM32F4xx_HAL_Driver/Src/stm32f4xx_hal_dma_ex.c ****     __HAL_DMA_CLEAR_FLAG (hdma, __HAL_DMA_GET_DME_FLAG_INDEX(hdma));
 756              		.loc 1 199 0 discriminator 5
 757 03ee A2F56872 		sub	r2, r2, #928
 758 03f2 9342     		cmp	r3, r2
 759 03f4 00F0A581 		beq	.L161
 199:Drivers/STM32F4xx_HAL_Driver/Src/stm32f4xx_hal_dma_ex.c ****     __HAL_DMA_CLEAR_FLAG (hdma, __HAL_DMA_GET_DME_FLAG_INDEX(hdma));
 760              		.loc 1 199 0 discriminator 7
 761 03f8 02F58062 		add	r2, r2, #1024
 762 03fc 9342     		cmp	r3, r2
 763 03fe 00F0A281 		beq	.L162
 199:Drivers/STM32F4xx_HAL_Driver/Src/stm32f4xx_hal_dma_ex.c ****     __HAL_DMA_CLEAR_FLAG (hdma, __HAL_DMA_GET_DME_FLAG_INDEX(hdma));
 764              		.loc 1 199 0 discriminator 9
 765 0402 A2F58962 		sub	r2, r2, #1096
 766 0406 9342     		cmp	r3, r2
 767 0408 00F09F81 		beq	.L163
 199:Drivers/STM32F4xx_HAL_Driver/Src/stm32f4xx_hal_dma_ex.c ****     __HAL_DMA_CLEAR_FLAG (hdma, __HAL_DMA_GET_DME_FLAG_INDEX(hdma));
 768              		.loc 1 199 0 discriminator 11
 769 040c 02F58062 		add	r2, r2, #1024
 770 0410 9342     		cmp	r3, r2
 771 0412 00F09D81 		beq	.L164
 199:Drivers/STM32F4xx_HAL_Driver/Src/stm32f4xx_hal_dma_ex.c ****     __HAL_DMA_CLEAR_FLAG (hdma, __HAL_DMA_GET_DME_FLAG_INDEX(hdma));
 772              		.loc 1 199 0 discriminator 13
 773 0416 A2F56872 		sub	r2, r2, #928
 774 041a 9342     		cmp	r3, r2
 775 041c 00F09B81 		beq	.L165
 199:Drivers/STM32F4xx_HAL_Driver/Src/stm32f4xx_hal_dma_ex.c ****     __HAL_DMA_CLEAR_FLAG (hdma, __HAL_DMA_GET_DME_FLAG_INDEX(hdma));
 776              		.loc 1 199 0 discriminator 15
ARM GAS  /tmp/cc8VKHC2.s 			page 22


 777 0420 02F58062 		add	r2, r2, #1024
 778 0424 9342     		cmp	r3, r2
 779 0426 00F09981 		beq	.L166
 199:Drivers/STM32F4xx_HAL_Driver/Src/stm32f4xx_hal_dma_ex.c ****     __HAL_DMA_CLEAR_FLAG (hdma, __HAL_DMA_GET_DME_FLAG_INDEX(hdma));
 780              		.loc 1 199 0 discriminator 17
 781 042a A2F58962 		sub	r2, r2, #1096
 782 042e 9342     		cmp	r3, r2
 783 0430 00F09781 		beq	.L167
 199:Drivers/STM32F4xx_HAL_Driver/Src/stm32f4xx_hal_dma_ex.c ****     __HAL_DMA_CLEAR_FLAG (hdma, __HAL_DMA_GET_DME_FLAG_INDEX(hdma));
 784              		.loc 1 199 0 discriminator 19
 785 0434 02F58062 		add	r2, r2, #1024
 786 0438 9342     		cmp	r3, r2
 787 043a 00F09581 		beq	.L168
 199:Drivers/STM32F4xx_HAL_Driver/Src/stm32f4xx_hal_dma_ex.c ****     __HAL_DMA_CLEAR_FLAG (hdma, __HAL_DMA_GET_DME_FLAG_INDEX(hdma));
 788              		.loc 1 199 0 discriminator 21
 789 043e A2F56872 		sub	r2, r2, #928
 790 0442 9342     		cmp	r3, r2
 791 0444 00F09381 		beq	.L169
 199:Drivers/STM32F4xx_HAL_Driver/Src/stm32f4xx_hal_dma_ex.c ****     __HAL_DMA_CLEAR_FLAG (hdma, __HAL_DMA_GET_DME_FLAG_INDEX(hdma));
 792              		.loc 1 199 0 discriminator 23
 793 0448 02F58062 		add	r2, r2, #1024
 794 044c 9342     		cmp	r3, r2
 795 044e 00F02081 		beq	.L309
 199:Drivers/STM32F4xx_HAL_Driver/Src/stm32f4xx_hal_dma_ex.c ****     __HAL_DMA_CLEAR_FLAG (hdma, __HAL_DMA_GET_DME_FLAG_INDEX(hdma));
 796              		.loc 1 199 0
 797 0452 4FF00072 		mov	r2, #33554432
 798 0456 2CE1     		b	.L37
 799              	.L112:
 198:Drivers/STM32F4xx_HAL_Driver/Src/stm32f4xx_hal_dma_ex.c ****     __HAL_DMA_CLEAR_FLAG (hdma, __HAL_DMA_GET_TE_FLAG_INDEX(hdma));
 800              		.loc 1 198 0 is_stmt 1
 801 0458 1022     		movs	r2, #16
 802 045a B7E7     		b	.L29
 803              	.L113:
 804 045c 1022     		movs	r2, #16
 805 045e B5E7     		b	.L29
 806              	.L114:
 807 0460 1022     		movs	r2, #16
 808 0462 B3E7     		b	.L29
 809              	.L115:
 810 0464 4FF48062 		mov	r2, #1024
 811 0468 B0E7     		b	.L29
 812              	.L116:
 813 046a 4FF48062 		mov	r2, #1024
 814 046e ADE7     		b	.L29
 815              	.L117:
 816 0470 4FF48062 		mov	r2, #1024
 817 0474 AAE7     		b	.L29
 818              	.L118:
 819 0476 4FF48062 		mov	r2, #1024
 820 047a A7E7     		b	.L29
 821              	.L119:
 822 047c 4FF48012 		mov	r2, #1048576
 823 0480 A4E7     		b	.L29
 824              	.L120:
 825 0482 4FF48012 		mov	r2, #1048576
 826 0486 A1E7     		b	.L29
 827              	.L121:
ARM GAS  /tmp/cc8VKHC2.s 			page 23


 828 0488 4FF48012 		mov	r2, #1048576
 829 048c 9EE7     		b	.L29
 830              	.L28:
 198:Drivers/STM32F4xx_HAL_Driver/Src/stm32f4xx_hal_dma_ex.c ****     __HAL_DMA_CLEAR_FLAG (hdma, __HAL_DMA_GET_TE_FLAG_INDEX(hdma));
 831              		.loc 1 198 0 is_stmt 0 discriminator 2
 832 048e 844A     		ldr	r2, .L319+8
 833 0490 9342     		cmp	r3, r2
 834 0492 53D9     		bls	.L31
 198:Drivers/STM32F4xx_HAL_Driver/Src/stm32f4xx_hal_dma_ex.c ****     __HAL_DMA_CLEAR_FLAG (hdma, __HAL_DMA_GET_TE_FLAG_INDEX(hdma));
 835              		.loc 1 198 0 discriminator 51
 836 0494 A83A     		subs	r2, r2, #168
 837 0496 9342     		cmp	r3, r2
 838 0498 31D0     		beq	.L123
 198:Drivers/STM32F4xx_HAL_Driver/Src/stm32f4xx_hal_dma_ex.c ****     __HAL_DMA_CLEAR_FLAG (hdma, __HAL_DMA_GET_TE_FLAG_INDEX(hdma));
 839              		.loc 1 198 0 discriminator 53
 840 049a 02F58062 		add	r2, r2, #1024
 841 049e 9342     		cmp	r3, r2
 842 04a0 31D0     		beq	.L124
 198:Drivers/STM32F4xx_HAL_Driver/Src/stm32f4xx_hal_dma_ex.c ****     __HAL_DMA_CLEAR_FLAG (hdma, __HAL_DMA_GET_TE_FLAG_INDEX(hdma));
 843              		.loc 1 198 0 discriminator 55
 844 04a2 A2F56872 		sub	r2, r2, #928
 845 04a6 9342     		cmp	r3, r2
 846 04a8 2FD0     		beq	.L125
 198:Drivers/STM32F4xx_HAL_Driver/Src/stm32f4xx_hal_dma_ex.c ****     __HAL_DMA_CLEAR_FLAG (hdma, __HAL_DMA_GET_TE_FLAG_INDEX(hdma));
 847              		.loc 1 198 0 discriminator 57
 848 04aa 02F58062 		add	r2, r2, #1024
 849 04ae 9342     		cmp	r3, r2
 850 04b0 2DD0     		beq	.L126
 198:Drivers/STM32F4xx_HAL_Driver/Src/stm32f4xx_hal_dma_ex.c ****     __HAL_DMA_CLEAR_FLAG (hdma, __HAL_DMA_GET_TE_FLAG_INDEX(hdma));
 851              		.loc 1 198 0 discriminator 59
 852 04b2 A2F58962 		sub	r2, r2, #1096
 853 04b6 9342     		cmp	r3, r2
 854 04b8 2BD0     		beq	.L127
 198:Drivers/STM32F4xx_HAL_Driver/Src/stm32f4xx_hal_dma_ex.c ****     __HAL_DMA_CLEAR_FLAG (hdma, __HAL_DMA_GET_TE_FLAG_INDEX(hdma));
 855              		.loc 1 198 0 discriminator 61
 856 04ba 02F58062 		add	r2, r2, #1024
 857 04be 9342     		cmp	r3, r2
 858 04c0 2AD0     		beq	.L128
 198:Drivers/STM32F4xx_HAL_Driver/Src/stm32f4xx_hal_dma_ex.c ****     __HAL_DMA_CLEAR_FLAG (hdma, __HAL_DMA_GET_TE_FLAG_INDEX(hdma));
 859              		.loc 1 198 0 discriminator 63
 860 04c2 A2F56872 		sub	r2, r2, #928
 861 04c6 9342     		cmp	r3, r2
 862 04c8 29D0     		beq	.L129
 198:Drivers/STM32F4xx_HAL_Driver/Src/stm32f4xx_hal_dma_ex.c ****     __HAL_DMA_CLEAR_FLAG (hdma, __HAL_DMA_GET_TE_FLAG_INDEX(hdma));
 863              		.loc 1 198 0 discriminator 65
 864 04ca 02F58062 		add	r2, r2, #1024
 865 04ce 9342     		cmp	r3, r2
 866 04d0 28D0     		beq	.L130
 198:Drivers/STM32F4xx_HAL_Driver/Src/stm32f4xx_hal_dma_ex.c ****     __HAL_DMA_CLEAR_FLAG (hdma, __HAL_DMA_GET_TE_FLAG_INDEX(hdma));
 867              		.loc 1 198 0 discriminator 67
 868 04d2 A2F58962 		sub	r2, r2, #1096
 869 04d6 9342     		cmp	r3, r2
 870 04d8 27D0     		beq	.L131
 198:Drivers/STM32F4xx_HAL_Driver/Src/stm32f4xx_hal_dma_ex.c ****     __HAL_DMA_CLEAR_FLAG (hdma, __HAL_DMA_GET_TE_FLAG_INDEX(hdma));
 871              		.loc 1 198 0 discriminator 69
 872 04da 02F58062 		add	r2, r2, #1024
 873 04de 9342     		cmp	r3, r2
ARM GAS  /tmp/cc8VKHC2.s 			page 24


 874 04e0 26D0     		beq	.L132
 198:Drivers/STM32F4xx_HAL_Driver/Src/stm32f4xx_hal_dma_ex.c ****     __HAL_DMA_CLEAR_FLAG (hdma, __HAL_DMA_GET_TE_FLAG_INDEX(hdma));
 875              		.loc 1 198 0 discriminator 71
 876 04e2 A2F56872 		sub	r2, r2, #928
 877 04e6 9342     		cmp	r3, r2
 878 04e8 25D0     		beq	.L133
 198:Drivers/STM32F4xx_HAL_Driver/Src/stm32f4xx_hal_dma_ex.c ****     __HAL_DMA_CLEAR_FLAG (hdma, __HAL_DMA_GET_TE_FLAG_INDEX(hdma));
 879              		.loc 1 198 0 discriminator 73
 880 04ea 02F58062 		add	r2, r2, #1024
 881 04ee 9342     		cmp	r3, r2
 882 04f0 02D0     		beq	.L310
 198:Drivers/STM32F4xx_HAL_Driver/Src/stm32f4xx_hal_dma_ex.c ****     __HAL_DMA_CLEAR_FLAG (hdma, __HAL_DMA_GET_TE_FLAG_INDEX(hdma));
 883              		.loc 1 198 0
 884 04f2 4FF08063 		mov	r3, #67108864
 885 04f6 03E0     		b	.L32
 886              	.L310:
 887 04f8 4FF48013 		mov	r3, #1048576
 888 04fc 00E0     		b	.L32
 889              	.L123:
 890 04fe 1023     		movs	r3, #16
 891              	.L32:
 198:Drivers/STM32F4xx_HAL_Driver/Src/stm32f4xx_hal_dma_ex.c ****     __HAL_DMA_CLEAR_FLAG (hdma, __HAL_DMA_GET_TE_FLAG_INDEX(hdma));
 892              		.loc 1 198 0 discriminator 100
 893 0500 654A     		ldr	r2, .L319
 894 0502 9360     		str	r3, [r2, #8]
 895 0504 64E7     		b	.L30
 896              	.L124:
 198:Drivers/STM32F4xx_HAL_Driver/Src/stm32f4xx_hal_dma_ex.c ****     __HAL_DMA_CLEAR_FLAG (hdma, __HAL_DMA_GET_TE_FLAG_INDEX(hdma));
 897              		.loc 1 198 0
 898 0506 1023     		movs	r3, #16
 899 0508 FAE7     		b	.L32
 900              	.L125:
 901 050a 1023     		movs	r3, #16
 902 050c F8E7     		b	.L32
 903              	.L126:
 904 050e 1023     		movs	r3, #16
 905 0510 F6E7     		b	.L32
 906              	.L127:
 907 0512 4FF48063 		mov	r3, #1024
 908 0516 F3E7     		b	.L32
 909              	.L128:
 910 0518 4FF48063 		mov	r3, #1024
 911 051c F0E7     		b	.L32
 912              	.L129:
 913 051e 4FF48063 		mov	r3, #1024
 914 0522 EDE7     		b	.L32
 915              	.L130:
 916 0524 4FF48063 		mov	r3, #1024
 917 0528 EAE7     		b	.L32
 918              	.L131:
 919 052a 4FF48013 		mov	r3, #1048576
 920 052e E7E7     		b	.L32
 921              	.L132:
 922 0530 4FF48013 		mov	r3, #1048576
 923 0534 E4E7     		b	.L32
 924              	.L133:
 925 0536 4FF48013 		mov	r3, #1048576
ARM GAS  /tmp/cc8VKHC2.s 			page 25


 926 053a E1E7     		b	.L32
 927              	.L31:
 198:Drivers/STM32F4xx_HAL_Driver/Src/stm32f4xx_hal_dma_ex.c ****     __HAL_DMA_CLEAR_FLAG (hdma, __HAL_DMA_GET_TE_FLAG_INDEX(hdma));
 928              		.loc 1 198 0 discriminator 52
 929 053c 594A     		ldr	r2, .L319+12
 930 053e 9342     		cmp	r3, r2
 931 0540 53D9     		bls	.L33
 198:Drivers/STM32F4xx_HAL_Driver/Src/stm32f4xx_hal_dma_ex.c ****     __HAL_DMA_CLEAR_FLAG (hdma, __HAL_DMA_GET_TE_FLAG_INDEX(hdma));
 932              		.loc 1 198 0 discriminator 102
 933 0542 483A     		subs	r2, r2, #72
 934 0544 9342     		cmp	r3, r2
 935 0546 2ED0     		beq	.L135
 198:Drivers/STM32F4xx_HAL_Driver/Src/stm32f4xx_hal_dma_ex.c ****     __HAL_DMA_CLEAR_FLAG (hdma, __HAL_DMA_GET_TE_FLAG_INDEX(hdma));
 936              		.loc 1 198 0 discriminator 104
 937 0548 02F58062 		add	r2, r2, #1024
 938 054c 9342     		cmp	r3, r2
 939 054e 2ED0     		beq	.L136
 198:Drivers/STM32F4xx_HAL_Driver/Src/stm32f4xx_hal_dma_ex.c ****     __HAL_DMA_CLEAR_FLAG (hdma, __HAL_DMA_GET_TE_FLAG_INDEX(hdma));
 940              		.loc 1 198 0 discriminator 106
 941 0550 A2F56872 		sub	r2, r2, #928
 942 0554 9342     		cmp	r3, r2
 943 0556 2CD0     		beq	.L137
 198:Drivers/STM32F4xx_HAL_Driver/Src/stm32f4xx_hal_dma_ex.c ****     __HAL_DMA_CLEAR_FLAG (hdma, __HAL_DMA_GET_TE_FLAG_INDEX(hdma));
 944              		.loc 1 198 0 discriminator 108
 945 0558 02F58062 		add	r2, r2, #1024
 946 055c 9342     		cmp	r3, r2
 947 055e 2AD0     		beq	.L138
 198:Drivers/STM32F4xx_HAL_Driver/Src/stm32f4xx_hal_dma_ex.c ****     __HAL_DMA_CLEAR_FLAG (hdma, __HAL_DMA_GET_TE_FLAG_INDEX(hdma));
 948              		.loc 1 198 0 discriminator 110
 949 0560 A2F58962 		sub	r2, r2, #1096
 950 0564 9342     		cmp	r3, r2
 951 0566 28D0     		beq	.L139
 198:Drivers/STM32F4xx_HAL_Driver/Src/stm32f4xx_hal_dma_ex.c ****     __HAL_DMA_CLEAR_FLAG (hdma, __HAL_DMA_GET_TE_FLAG_INDEX(hdma));
 952              		.loc 1 198 0 discriminator 112
 953 0568 02F58062 		add	r2, r2, #1024
 954 056c 9342     		cmp	r3, r2
 955 056e 27D0     		beq	.L140
 198:Drivers/STM32F4xx_HAL_Driver/Src/stm32f4xx_hal_dma_ex.c ****     __HAL_DMA_CLEAR_FLAG (hdma, __HAL_DMA_GET_TE_FLAG_INDEX(hdma));
 956              		.loc 1 198 0 discriminator 114
 957 0570 A2F56872 		sub	r2, r2, #928
 958 0574 9342     		cmp	r3, r2
 959 0576 26D0     		beq	.L141
 198:Drivers/STM32F4xx_HAL_Driver/Src/stm32f4xx_hal_dma_ex.c ****     __HAL_DMA_CLEAR_FLAG (hdma, __HAL_DMA_GET_TE_FLAG_INDEX(hdma));
 960              		.loc 1 198 0 discriminator 116
 961 0578 02F58062 		add	r2, r2, #1024
 962 057c 9342     		cmp	r3, r2
 963 057e 25D0     		beq	.L142
 198:Drivers/STM32F4xx_HAL_Driver/Src/stm32f4xx_hal_dma_ex.c ****     __HAL_DMA_CLEAR_FLAG (hdma, __HAL_DMA_GET_TE_FLAG_INDEX(hdma));
 964              		.loc 1 198 0 discriminator 118
 965 0580 A2F58962 		sub	r2, r2, #1096
 966 0584 9342     		cmp	r3, r2
 967 0586 24D0     		beq	.L143
 198:Drivers/STM32F4xx_HAL_Driver/Src/stm32f4xx_hal_dma_ex.c ****     __HAL_DMA_CLEAR_FLAG (hdma, __HAL_DMA_GET_TE_FLAG_INDEX(hdma));
 968              		.loc 1 198 0 discriminator 120
 969 0588 02F58062 		add	r2, r2, #1024
 970 058c 9342     		cmp	r3, r2
 971 058e 23D0     		beq	.L144
ARM GAS  /tmp/cc8VKHC2.s 			page 26


 198:Drivers/STM32F4xx_HAL_Driver/Src/stm32f4xx_hal_dma_ex.c ****     __HAL_DMA_CLEAR_FLAG (hdma, __HAL_DMA_GET_TE_FLAG_INDEX(hdma));
 972              		.loc 1 198 0 discriminator 122
 973 0590 A2F56872 		sub	r2, r2, #928
 974 0594 9342     		cmp	r3, r2
 975 0596 22D0     		beq	.L145
 198:Drivers/STM32F4xx_HAL_Driver/Src/stm32f4xx_hal_dma_ex.c ****     __HAL_DMA_CLEAR_FLAG (hdma, __HAL_DMA_GET_TE_FLAG_INDEX(hdma));
 976              		.loc 1 198 0 discriminator 124
 977 0598 02F58062 		add	r2, r2, #1024
 978 059c 9342     		cmp	r3, r2
 979 059e 21D1     		bne	.L146
 198:Drivers/STM32F4xx_HAL_Driver/Src/stm32f4xx_hal_dma_ex.c ****     __HAL_DMA_CLEAR_FLAG (hdma, __HAL_DMA_GET_TE_FLAG_INDEX(hdma));
 980              		.loc 1 198 0
 981 05a0 4FF48013 		mov	r3, #1048576
 982 05a4 00E0     		b	.L34
 983              	.L135:
 984 05a6 1023     		movs	r3, #16
 985              	.L34:
 198:Drivers/STM32F4xx_HAL_Driver/Src/stm32f4xx_hal_dma_ex.c ****     __HAL_DMA_CLEAR_FLAG (hdma, __HAL_DMA_GET_TE_FLAG_INDEX(hdma));
 986              		.loc 1 198 0 discriminator 151
 987 05a8 3F4A     		ldr	r2, .L319+16
 988 05aa D360     		str	r3, [r2, #12]
 989 05ac 10E7     		b	.L30
 990              	.L136:
 198:Drivers/STM32F4xx_HAL_Driver/Src/stm32f4xx_hal_dma_ex.c ****     __HAL_DMA_CLEAR_FLAG (hdma, __HAL_DMA_GET_TE_FLAG_INDEX(hdma));
 991              		.loc 1 198 0
 992 05ae 1023     		movs	r3, #16
 993 05b0 FAE7     		b	.L34
 994              	.L137:
 995 05b2 1023     		movs	r3, #16
 996 05b4 F8E7     		b	.L34
 997              	.L138:
 998 05b6 1023     		movs	r3, #16
 999 05b8 F6E7     		b	.L34
 1000              	.L139:
 1001 05ba 4FF48063 		mov	r3, #1024
 1002 05be F3E7     		b	.L34
 1003              	.L140:
 1004 05c0 4FF48063 		mov	r3, #1024
 1005 05c4 F0E7     		b	.L34
 1006              	.L141:
 1007 05c6 4FF48063 		mov	r3, #1024
 1008 05ca EDE7     		b	.L34
 1009              	.L142:
 1010 05cc 4FF48063 		mov	r3, #1024
 1011 05d0 EAE7     		b	.L34
 1012              	.L143:
 1013 05d2 4FF48013 		mov	r3, #1048576
 1014 05d6 E7E7     		b	.L34
 1015              	.L144:
 1016 05d8 4FF48013 		mov	r3, #1048576
 1017 05dc E4E7     		b	.L34
 1018              	.L145:
 1019 05de 4FF48013 		mov	r3, #1048576
 1020 05e2 E1E7     		b	.L34
 1021              	.L146:
 1022 05e4 4FF08063 		mov	r3, #67108864
 1023 05e8 DEE7     		b	.L34
ARM GAS  /tmp/cc8VKHC2.s 			page 27


 1024              	.L33:
 198:Drivers/STM32F4xx_HAL_Driver/Src/stm32f4xx_hal_dma_ex.c ****     __HAL_DMA_CLEAR_FLAG (hdma, __HAL_DMA_GET_TE_FLAG_INDEX(hdma));
 1025              		.loc 1 198 0 discriminator 103
 1026 05ea 304A     		ldr	r2, .L319+20
 1027 05ec 9342     		cmp	r3, r2
 1028 05ee 2ED0     		beq	.L147
 198:Drivers/STM32F4xx_HAL_Driver/Src/stm32f4xx_hal_dma_ex.c ****     __HAL_DMA_CLEAR_FLAG (hdma, __HAL_DMA_GET_TE_FLAG_INDEX(hdma));
 1029              		.loc 1 198 0 discriminator 153
 1030 05f0 02F58062 		add	r2, r2, #1024
 1031 05f4 9342     		cmp	r3, r2
 1032 05f6 2ED0     		beq	.L148
 198:Drivers/STM32F4xx_HAL_Driver/Src/stm32f4xx_hal_dma_ex.c ****     __HAL_DMA_CLEAR_FLAG (hdma, __HAL_DMA_GET_TE_FLAG_INDEX(hdma));
 1033              		.loc 1 198 0 discriminator 155
 1034 05f8 A2F56872 		sub	r2, r2, #928
 1035 05fc 9342     		cmp	r3, r2
 1036 05fe 2CD0     		beq	.L149
 198:Drivers/STM32F4xx_HAL_Driver/Src/stm32f4xx_hal_dma_ex.c ****     __HAL_DMA_CLEAR_FLAG (hdma, __HAL_DMA_GET_TE_FLAG_INDEX(hdma));
 1037              		.loc 1 198 0 discriminator 157
 1038 0600 02F58062 		add	r2, r2, #1024
 1039 0604 9342     		cmp	r3, r2
 1040 0606 2AD0     		beq	.L150
 198:Drivers/STM32F4xx_HAL_Driver/Src/stm32f4xx_hal_dma_ex.c ****     __HAL_DMA_CLEAR_FLAG (hdma, __HAL_DMA_GET_TE_FLAG_INDEX(hdma));
 1041              		.loc 1 198 0 discriminator 159
 1042 0608 A2F58962 		sub	r2, r2, #1096
 1043 060c 9342     		cmp	r3, r2
 1044 060e 28D0     		beq	.L151
 198:Drivers/STM32F4xx_HAL_Driver/Src/stm32f4xx_hal_dma_ex.c ****     __HAL_DMA_CLEAR_FLAG (hdma, __HAL_DMA_GET_TE_FLAG_INDEX(hdma));
 1045              		.loc 1 198 0 discriminator 161
 1046 0610 02F58062 		add	r2, r2, #1024
 1047 0614 9342     		cmp	r3, r2
 1048 0616 27D0     		beq	.L152
 198:Drivers/STM32F4xx_HAL_Driver/Src/stm32f4xx_hal_dma_ex.c ****     __HAL_DMA_CLEAR_FLAG (hdma, __HAL_DMA_GET_TE_FLAG_INDEX(hdma));
 1049              		.loc 1 198 0 discriminator 163
 1050 0618 A2F56872 		sub	r2, r2, #928
 1051 061c 9342     		cmp	r3, r2
 1052 061e 26D0     		beq	.L153
 198:Drivers/STM32F4xx_HAL_Driver/Src/stm32f4xx_hal_dma_ex.c ****     __HAL_DMA_CLEAR_FLAG (hdma, __HAL_DMA_GET_TE_FLAG_INDEX(hdma));
 1053              		.loc 1 198 0 discriminator 165
 1054 0620 02F58062 		add	r2, r2, #1024
 1055 0624 9342     		cmp	r3, r2
 1056 0626 25D0     		beq	.L154
 198:Drivers/STM32F4xx_HAL_Driver/Src/stm32f4xx_hal_dma_ex.c ****     __HAL_DMA_CLEAR_FLAG (hdma, __HAL_DMA_GET_TE_FLAG_INDEX(hdma));
 1057              		.loc 1 198 0 discriminator 167
 1058 0628 A2F58962 		sub	r2, r2, #1096
 1059 062c 9342     		cmp	r3, r2
 1060 062e 24D0     		beq	.L155
 198:Drivers/STM32F4xx_HAL_Driver/Src/stm32f4xx_hal_dma_ex.c ****     __HAL_DMA_CLEAR_FLAG (hdma, __HAL_DMA_GET_TE_FLAG_INDEX(hdma));
 1061              		.loc 1 198 0 discriminator 169
 1062 0630 02F58062 		add	r2, r2, #1024
 1063 0634 9342     		cmp	r3, r2
 1064 0636 23D0     		beq	.L156
 198:Drivers/STM32F4xx_HAL_Driver/Src/stm32f4xx_hal_dma_ex.c ****     __HAL_DMA_CLEAR_FLAG (hdma, __HAL_DMA_GET_TE_FLAG_INDEX(hdma));
 1065              		.loc 1 198 0 discriminator 171
 1066 0638 A2F56872 		sub	r2, r2, #928
 1067 063c 9342     		cmp	r3, r2
 1068 063e 22D0     		beq	.L157
 198:Drivers/STM32F4xx_HAL_Driver/Src/stm32f4xx_hal_dma_ex.c ****     __HAL_DMA_CLEAR_FLAG (hdma, __HAL_DMA_GET_TE_FLAG_INDEX(hdma));
ARM GAS  /tmp/cc8VKHC2.s 			page 28


 1069              		.loc 1 198 0 discriminator 173
 1070 0640 02F58062 		add	r2, r2, #1024
 1071 0644 9342     		cmp	r3, r2
 1072 0646 21D1     		bne	.L158
 198:Drivers/STM32F4xx_HAL_Driver/Src/stm32f4xx_hal_dma_ex.c ****     __HAL_DMA_CLEAR_FLAG (hdma, __HAL_DMA_GET_TE_FLAG_INDEX(hdma));
 1073              		.loc 1 198 0
 1074 0648 4FF48013 		mov	r3, #1048576
 1075 064c 00E0     		b	.L35
 1076              	.L147:
 1077 064e 1023     		movs	r3, #16
 1078              	.L35:
 198:Drivers/STM32F4xx_HAL_Driver/Src/stm32f4xx_hal_dma_ex.c ****     __HAL_DMA_CLEAR_FLAG (hdma, __HAL_DMA_GET_TE_FLAG_INDEX(hdma));
 1079              		.loc 1 198 0 discriminator 200
 1080 0650 154A     		ldr	r2, .L319+16
 1081 0652 9360     		str	r3, [r2, #8]
 1082 0654 BCE6     		b	.L30
 1083              	.L148:
 198:Drivers/STM32F4xx_HAL_Driver/Src/stm32f4xx_hal_dma_ex.c ****     __HAL_DMA_CLEAR_FLAG (hdma, __HAL_DMA_GET_TE_FLAG_INDEX(hdma));
 1084              		.loc 1 198 0
 1085 0656 1023     		movs	r3, #16
 1086 0658 FAE7     		b	.L35
 1087              	.L149:
 1088 065a 1023     		movs	r3, #16
 1089 065c F8E7     		b	.L35
 1090              	.L150:
 1091 065e 1023     		movs	r3, #16
 1092 0660 F6E7     		b	.L35
 1093              	.L151:
 1094 0662 4FF48063 		mov	r3, #1024
 1095 0666 F3E7     		b	.L35
 1096              	.L152:
 1097 0668 4FF48063 		mov	r3, #1024
 1098 066c F0E7     		b	.L35
 1099              	.L153:
 1100 066e 4FF48063 		mov	r3, #1024
 1101 0672 EDE7     		b	.L35
 1102              	.L154:
 1103 0674 4FF48063 		mov	r3, #1024
 1104 0678 EAE7     		b	.L35
 1105              	.L155:
 1106 067a 4FF48013 		mov	r3, #1048576
 1107 067e E7E7     		b	.L35
 1108              	.L156:
 1109 0680 4FF48013 		mov	r3, #1048576
 1110 0684 E4E7     		b	.L35
 1111              	.L157:
 1112 0686 4FF48013 		mov	r3, #1048576
 1113 068a E1E7     		b	.L35
 1114              	.L158:
 1115 068c 4FF08063 		mov	r3, #67108864
 1116 0690 DEE7     		b	.L35
 1117              	.L309:
 199:Drivers/STM32F4xx_HAL_Driver/Src/stm32f4xx_hal_dma_ex.c ****     __HAL_DMA_CLEAR_FLAG (hdma, __HAL_DMA_GET_DME_FLAG_INDEX(hdma));
 1118              		.loc 1 199 0 is_stmt 1
 1119 0692 4FF40022 		mov	r2, #524288
 1120 0696 0CE0     		b	.L37
 1121              	.L320:
ARM GAS  /tmp/cc8VKHC2.s 			page 29


 1122              		.align	2
 1123              	.L319:
 1124 0698 00640240 		.word	1073898496
 1125 069c 58640240 		.word	1073898584
 1126 06a0 B8600240 		.word	1073897656
 1127 06a4 58600240 		.word	1073897560
 1128 06a8 00600240 		.word	1073897472
 1129 06ac 10600240 		.word	1073897488
 1130              	.L159:
 1131 06b0 0822     		movs	r2, #8
 1132              	.L37:
 199:Drivers/STM32F4xx_HAL_Driver/Src/stm32f4xx_hal_dma_ex.c ****     __HAL_DMA_CLEAR_FLAG (hdma, __HAL_DMA_GET_DME_FLAG_INDEX(hdma));
 1133              		.loc 1 199 0 is_stmt 0 discriminator 50
 1134 06b2 B34B     		ldr	r3, .L321
 1135 06b4 DA60     		str	r2, [r3, #12]
 1136              	.L38:
 200:Drivers/STM32F4xx_HAL_Driver/Src/stm32f4xx_hal_dma_ex.c ****     __HAL_DMA_CLEAR_FLAG (hdma, __HAL_DMA_GET_FE_FLAG_INDEX(hdma));
 1137              		.loc 1 200 0 is_stmt 1
 1138 06b6 2368     		ldr	r3, [r4]
 1139 06b8 B24A     		ldr	r2, .L321+4
 1140 06ba 9342     		cmp	r3, r2
 1141 06bc 40F2CE81 		bls	.L44
 200:Drivers/STM32F4xx_HAL_Driver/Src/stm32f4xx_hal_dma_ex.c ****     __HAL_DMA_CLEAR_FLAG (hdma, __HAL_DMA_GET_FE_FLAG_INDEX(hdma));
 1142              		.loc 1 200 0 is_stmt 0 discriminator 1
 1143 06c0 A2F58962 		sub	r2, r2, #1096
 1144 06c4 9342     		cmp	r3, r2
 1145 06c6 00F06781 		beq	.L207
 200:Drivers/STM32F4xx_HAL_Driver/Src/stm32f4xx_hal_dma_ex.c ****     __HAL_DMA_CLEAR_FLAG (hdma, __HAL_DMA_GET_FE_FLAG_INDEX(hdma));
 1146              		.loc 1 200 0 discriminator 3
 1147 06ca 02F58062 		add	r2, r2, #1024
 1148 06ce 9342     		cmp	r3, r2
 1149 06d0 00F0A981 		beq	.L208
 200:Drivers/STM32F4xx_HAL_Driver/Src/stm32f4xx_hal_dma_ex.c ****     __HAL_DMA_CLEAR_FLAG (hdma, __HAL_DMA_GET_FE_FLAG_INDEX(hdma));
 1150              		.loc 1 200 0 discriminator 5
 1151 06d4 A2F56872 		sub	r2, r2, #928
 1152 06d8 9342     		cmp	r3, r2
 1153 06da 00F0A681 		beq	.L209
 200:Drivers/STM32F4xx_HAL_Driver/Src/stm32f4xx_hal_dma_ex.c ****     __HAL_DMA_CLEAR_FLAG (hdma, __HAL_DMA_GET_FE_FLAG_INDEX(hdma));
 1154              		.loc 1 200 0 discriminator 7
 1155 06de 02F58062 		add	r2, r2, #1024
 1156 06e2 9342     		cmp	r3, r2
 1157 06e4 00F0A381 		beq	.L210
 200:Drivers/STM32F4xx_HAL_Driver/Src/stm32f4xx_hal_dma_ex.c ****     __HAL_DMA_CLEAR_FLAG (hdma, __HAL_DMA_GET_FE_FLAG_INDEX(hdma));
 1158              		.loc 1 200 0 discriminator 9
 1159 06e8 A2F58962 		sub	r2, r2, #1096
 1160 06ec 9342     		cmp	r3, r2
 1161 06ee 00F0A081 		beq	.L211
 200:Drivers/STM32F4xx_HAL_Driver/Src/stm32f4xx_hal_dma_ex.c ****     __HAL_DMA_CLEAR_FLAG (hdma, __HAL_DMA_GET_FE_FLAG_INDEX(hdma));
 1162              		.loc 1 200 0 discriminator 11
 1163 06f2 02F58062 		add	r2, r2, #1024
 1164 06f6 9342     		cmp	r3, r2
 1165 06f8 00F09E81 		beq	.L212
 200:Drivers/STM32F4xx_HAL_Driver/Src/stm32f4xx_hal_dma_ex.c ****     __HAL_DMA_CLEAR_FLAG (hdma, __HAL_DMA_GET_FE_FLAG_INDEX(hdma));
 1166              		.loc 1 200 0 discriminator 13
 1167 06fc A2F56872 		sub	r2, r2, #928
 1168 0700 9342     		cmp	r3, r2
 1169 0702 00F09C81 		beq	.L213
ARM GAS  /tmp/cc8VKHC2.s 			page 30


 200:Drivers/STM32F4xx_HAL_Driver/Src/stm32f4xx_hal_dma_ex.c ****     __HAL_DMA_CLEAR_FLAG (hdma, __HAL_DMA_GET_FE_FLAG_INDEX(hdma));
 1170              		.loc 1 200 0 discriminator 15
 1171 0706 02F58062 		add	r2, r2, #1024
 1172 070a 9342     		cmp	r3, r2
 1173 070c 00F09A81 		beq	.L214
 200:Drivers/STM32F4xx_HAL_Driver/Src/stm32f4xx_hal_dma_ex.c ****     __HAL_DMA_CLEAR_FLAG (hdma, __HAL_DMA_GET_FE_FLAG_INDEX(hdma));
 1174              		.loc 1 200 0 discriminator 17
 1175 0710 A2F58962 		sub	r2, r2, #1096
 1176 0714 9342     		cmp	r3, r2
 1177 0716 00F09881 		beq	.L215
 200:Drivers/STM32F4xx_HAL_Driver/Src/stm32f4xx_hal_dma_ex.c ****     __HAL_DMA_CLEAR_FLAG (hdma, __HAL_DMA_GET_FE_FLAG_INDEX(hdma));
 1178              		.loc 1 200 0 discriminator 19
 1179 071a 02F58062 		add	r2, r2, #1024
 1180 071e 9342     		cmp	r3, r2
 1181 0720 00F09681 		beq	.L216
 200:Drivers/STM32F4xx_HAL_Driver/Src/stm32f4xx_hal_dma_ex.c ****     __HAL_DMA_CLEAR_FLAG (hdma, __HAL_DMA_GET_FE_FLAG_INDEX(hdma));
 1182              		.loc 1 200 0 discriminator 21
 1183 0724 A2F56872 		sub	r2, r2, #928
 1184 0728 9342     		cmp	r3, r2
 1185 072a 00F09481 		beq	.L217
 200:Drivers/STM32F4xx_HAL_Driver/Src/stm32f4xx_hal_dma_ex.c ****     __HAL_DMA_CLEAR_FLAG (hdma, __HAL_DMA_GET_FE_FLAG_INDEX(hdma));
 1186              		.loc 1 200 0 discriminator 23
 1187 072e 02F58062 		add	r2, r2, #1024
 1188 0732 9342     		cmp	r3, r2
 1189 0734 00F02081 		beq	.L311
 200:Drivers/STM32F4xx_HAL_Driver/Src/stm32f4xx_hal_dma_ex.c ****     __HAL_DMA_CLEAR_FLAG (hdma, __HAL_DMA_GET_FE_FLAG_INDEX(hdma));
 1190              		.loc 1 200 0
 1191 0738 4FF08072 		mov	r2, #16777216
 1192 073c 2DE1     		b	.L45
 1193              	.L160:
 199:Drivers/STM32F4xx_HAL_Driver/Src/stm32f4xx_hal_dma_ex.c ****     __HAL_DMA_CLEAR_FLAG (hdma, __HAL_DMA_GET_DME_FLAG_INDEX(hdma));
 1194              		.loc 1 199 0 is_stmt 1
 1195 073e 0822     		movs	r2, #8
 1196 0740 B7E7     		b	.L37
 1197              	.L161:
 1198 0742 0822     		movs	r2, #8
 1199 0744 B5E7     		b	.L37
 1200              	.L162:
 1201 0746 0822     		movs	r2, #8
 1202 0748 B3E7     		b	.L37
 1203              	.L163:
 1204 074a 4FF40072 		mov	r2, #512
 1205 074e B0E7     		b	.L37
 1206              	.L164:
 1207 0750 4FF40072 		mov	r2, #512
 1208 0754 ADE7     		b	.L37
 1209              	.L165:
 1210 0756 4FF40072 		mov	r2, #512
 1211 075a AAE7     		b	.L37
 1212              	.L166:
 1213 075c 4FF40072 		mov	r2, #512
 1214 0760 A7E7     		b	.L37
 1215              	.L167:
 1216 0762 4FF40022 		mov	r2, #524288
 1217 0766 A4E7     		b	.L37
 1218              	.L168:
 1219 0768 4FF40022 		mov	r2, #524288
ARM GAS  /tmp/cc8VKHC2.s 			page 31


 1220 076c A1E7     		b	.L37
 1221              	.L169:
 1222 076e 4FF40022 		mov	r2, #524288
 1223 0772 9EE7     		b	.L37
 1224              	.L36:
 199:Drivers/STM32F4xx_HAL_Driver/Src/stm32f4xx_hal_dma_ex.c ****     __HAL_DMA_CLEAR_FLAG (hdma, __HAL_DMA_GET_DME_FLAG_INDEX(hdma));
 1225              		.loc 1 199 0 is_stmt 0 discriminator 2
 1226 0774 844A     		ldr	r2, .L321+8
 1227 0776 9342     		cmp	r3, r2
 1228 0778 53D9     		bls	.L39
 199:Drivers/STM32F4xx_HAL_Driver/Src/stm32f4xx_hal_dma_ex.c ****     __HAL_DMA_CLEAR_FLAG (hdma, __HAL_DMA_GET_DME_FLAG_INDEX(hdma));
 1229              		.loc 1 199 0 discriminator 51
 1230 077a A83A     		subs	r2, r2, #168
 1231 077c 9342     		cmp	r3, r2
 1232 077e 31D0     		beq	.L171
 199:Drivers/STM32F4xx_HAL_Driver/Src/stm32f4xx_hal_dma_ex.c ****     __HAL_DMA_CLEAR_FLAG (hdma, __HAL_DMA_GET_DME_FLAG_INDEX(hdma));
 1233              		.loc 1 199 0 discriminator 53
 1234 0780 02F58062 		add	r2, r2, #1024
 1235 0784 9342     		cmp	r3, r2
 1236 0786 31D0     		beq	.L172
 199:Drivers/STM32F4xx_HAL_Driver/Src/stm32f4xx_hal_dma_ex.c ****     __HAL_DMA_CLEAR_FLAG (hdma, __HAL_DMA_GET_DME_FLAG_INDEX(hdma));
 1237              		.loc 1 199 0 discriminator 55
 1238 0788 A2F56872 		sub	r2, r2, #928
 1239 078c 9342     		cmp	r3, r2
 1240 078e 2FD0     		beq	.L173
 199:Drivers/STM32F4xx_HAL_Driver/Src/stm32f4xx_hal_dma_ex.c ****     __HAL_DMA_CLEAR_FLAG (hdma, __HAL_DMA_GET_DME_FLAG_INDEX(hdma));
 1241              		.loc 1 199 0 discriminator 57
 1242 0790 02F58062 		add	r2, r2, #1024
 1243 0794 9342     		cmp	r3, r2
 1244 0796 2DD0     		beq	.L174
 199:Drivers/STM32F4xx_HAL_Driver/Src/stm32f4xx_hal_dma_ex.c ****     __HAL_DMA_CLEAR_FLAG (hdma, __HAL_DMA_GET_DME_FLAG_INDEX(hdma));
 1245              		.loc 1 199 0 discriminator 59
 1246 0798 A2F58962 		sub	r2, r2, #1096
 1247 079c 9342     		cmp	r3, r2
 1248 079e 2BD0     		beq	.L175
 199:Drivers/STM32F4xx_HAL_Driver/Src/stm32f4xx_hal_dma_ex.c ****     __HAL_DMA_CLEAR_FLAG (hdma, __HAL_DMA_GET_DME_FLAG_INDEX(hdma));
 1249              		.loc 1 199 0 discriminator 61
 1250 07a0 02F58062 		add	r2, r2, #1024
 1251 07a4 9342     		cmp	r3, r2
 1252 07a6 2AD0     		beq	.L176
 199:Drivers/STM32F4xx_HAL_Driver/Src/stm32f4xx_hal_dma_ex.c ****     __HAL_DMA_CLEAR_FLAG (hdma, __HAL_DMA_GET_DME_FLAG_INDEX(hdma));
 1253              		.loc 1 199 0 discriminator 63
 1254 07a8 A2F56872 		sub	r2, r2, #928
 1255 07ac 9342     		cmp	r3, r2
 1256 07ae 29D0     		beq	.L177
 199:Drivers/STM32F4xx_HAL_Driver/Src/stm32f4xx_hal_dma_ex.c ****     __HAL_DMA_CLEAR_FLAG (hdma, __HAL_DMA_GET_DME_FLAG_INDEX(hdma));
 1257              		.loc 1 199 0 discriminator 65
 1258 07b0 02F58062 		add	r2, r2, #1024
 1259 07b4 9342     		cmp	r3, r2
 1260 07b6 28D0     		beq	.L178
 199:Drivers/STM32F4xx_HAL_Driver/Src/stm32f4xx_hal_dma_ex.c ****     __HAL_DMA_CLEAR_FLAG (hdma, __HAL_DMA_GET_DME_FLAG_INDEX(hdma));
 1261              		.loc 1 199 0 discriminator 67
 1262 07b8 A2F58962 		sub	r2, r2, #1096
 1263 07bc 9342     		cmp	r3, r2
 1264 07be 27D0     		beq	.L179
 199:Drivers/STM32F4xx_HAL_Driver/Src/stm32f4xx_hal_dma_ex.c ****     __HAL_DMA_CLEAR_FLAG (hdma, __HAL_DMA_GET_DME_FLAG_INDEX(hdma));
 1265              		.loc 1 199 0 discriminator 69
ARM GAS  /tmp/cc8VKHC2.s 			page 32


 1266 07c0 02F58062 		add	r2, r2, #1024
 1267 07c4 9342     		cmp	r3, r2
 1268 07c6 26D0     		beq	.L180
 199:Drivers/STM32F4xx_HAL_Driver/Src/stm32f4xx_hal_dma_ex.c ****     __HAL_DMA_CLEAR_FLAG (hdma, __HAL_DMA_GET_DME_FLAG_INDEX(hdma));
 1269              		.loc 1 199 0 discriminator 71
 1270 07c8 A2F56872 		sub	r2, r2, #928
 1271 07cc 9342     		cmp	r3, r2
 1272 07ce 25D0     		beq	.L181
 199:Drivers/STM32F4xx_HAL_Driver/Src/stm32f4xx_hal_dma_ex.c ****     __HAL_DMA_CLEAR_FLAG (hdma, __HAL_DMA_GET_DME_FLAG_INDEX(hdma));
 1273              		.loc 1 199 0 discriminator 73
 1274 07d0 02F58062 		add	r2, r2, #1024
 1275 07d4 9342     		cmp	r3, r2
 1276 07d6 02D0     		beq	.L312
 199:Drivers/STM32F4xx_HAL_Driver/Src/stm32f4xx_hal_dma_ex.c ****     __HAL_DMA_CLEAR_FLAG (hdma, __HAL_DMA_GET_DME_FLAG_INDEX(hdma));
 1277              		.loc 1 199 0
 1278 07d8 4FF00073 		mov	r3, #33554432
 1279 07dc 03E0     		b	.L40
 1280              	.L312:
 1281 07de 4FF40023 		mov	r3, #524288
 1282 07e2 00E0     		b	.L40
 1283              	.L171:
 1284 07e4 0823     		movs	r3, #8
 1285              	.L40:
 199:Drivers/STM32F4xx_HAL_Driver/Src/stm32f4xx_hal_dma_ex.c ****     __HAL_DMA_CLEAR_FLAG (hdma, __HAL_DMA_GET_DME_FLAG_INDEX(hdma));
 1286              		.loc 1 199 0 discriminator 100
 1287 07e6 664A     		ldr	r2, .L321
 1288 07e8 9360     		str	r3, [r2, #8]
 1289 07ea 64E7     		b	.L38
 1290              	.L172:
 199:Drivers/STM32F4xx_HAL_Driver/Src/stm32f4xx_hal_dma_ex.c ****     __HAL_DMA_CLEAR_FLAG (hdma, __HAL_DMA_GET_DME_FLAG_INDEX(hdma));
 1291              		.loc 1 199 0
 1292 07ec 0823     		movs	r3, #8
 1293 07ee FAE7     		b	.L40
 1294              	.L173:
 1295 07f0 0823     		movs	r3, #8
 1296 07f2 F8E7     		b	.L40
 1297              	.L174:
 1298 07f4 0823     		movs	r3, #8
 1299 07f6 F6E7     		b	.L40
 1300              	.L175:
 1301 07f8 4FF40073 		mov	r3, #512
 1302 07fc F3E7     		b	.L40
 1303              	.L176:
 1304 07fe 4FF40073 		mov	r3, #512
 1305 0802 F0E7     		b	.L40
 1306              	.L177:
 1307 0804 4FF40073 		mov	r3, #512
 1308 0808 EDE7     		b	.L40
 1309              	.L178:
 1310 080a 4FF40073 		mov	r3, #512
 1311 080e EAE7     		b	.L40
 1312              	.L179:
 1313 0810 4FF40023 		mov	r3, #524288
 1314 0814 E7E7     		b	.L40
 1315              	.L180:
 1316 0816 4FF40023 		mov	r3, #524288
 1317 081a E4E7     		b	.L40
ARM GAS  /tmp/cc8VKHC2.s 			page 33


 1318              	.L181:
 1319 081c 4FF40023 		mov	r3, #524288
 1320 0820 E1E7     		b	.L40
 1321              	.L39:
 199:Drivers/STM32F4xx_HAL_Driver/Src/stm32f4xx_hal_dma_ex.c ****     __HAL_DMA_CLEAR_FLAG (hdma, __HAL_DMA_GET_DME_FLAG_INDEX(hdma));
 1322              		.loc 1 199 0 discriminator 52
 1323 0822 5A4A     		ldr	r2, .L321+12
 1324 0824 9342     		cmp	r3, r2
 1325 0826 53D9     		bls	.L41
 199:Drivers/STM32F4xx_HAL_Driver/Src/stm32f4xx_hal_dma_ex.c ****     __HAL_DMA_CLEAR_FLAG (hdma, __HAL_DMA_GET_DME_FLAG_INDEX(hdma));
 1326              		.loc 1 199 0 discriminator 102
 1327 0828 483A     		subs	r2, r2, #72
 1328 082a 9342     		cmp	r3, r2
 1329 082c 2ED0     		beq	.L183
 199:Drivers/STM32F4xx_HAL_Driver/Src/stm32f4xx_hal_dma_ex.c ****     __HAL_DMA_CLEAR_FLAG (hdma, __HAL_DMA_GET_DME_FLAG_INDEX(hdma));
 1330              		.loc 1 199 0 discriminator 104
 1331 082e 02F58062 		add	r2, r2, #1024
 1332 0832 9342     		cmp	r3, r2
 1333 0834 2ED0     		beq	.L184
 199:Drivers/STM32F4xx_HAL_Driver/Src/stm32f4xx_hal_dma_ex.c ****     __HAL_DMA_CLEAR_FLAG (hdma, __HAL_DMA_GET_DME_FLAG_INDEX(hdma));
 1334              		.loc 1 199 0 discriminator 106
 1335 0836 A2F56872 		sub	r2, r2, #928
 1336 083a 9342     		cmp	r3, r2
 1337 083c 2CD0     		beq	.L185
 199:Drivers/STM32F4xx_HAL_Driver/Src/stm32f4xx_hal_dma_ex.c ****     __HAL_DMA_CLEAR_FLAG (hdma, __HAL_DMA_GET_DME_FLAG_INDEX(hdma));
 1338              		.loc 1 199 0 discriminator 108
 1339 083e 02F58062 		add	r2, r2, #1024
 1340 0842 9342     		cmp	r3, r2
 1341 0844 2AD0     		beq	.L186
 199:Drivers/STM32F4xx_HAL_Driver/Src/stm32f4xx_hal_dma_ex.c ****     __HAL_DMA_CLEAR_FLAG (hdma, __HAL_DMA_GET_DME_FLAG_INDEX(hdma));
 1342              		.loc 1 199 0 discriminator 110
 1343 0846 A2F58962 		sub	r2, r2, #1096
 1344 084a 9342     		cmp	r3, r2
 1345 084c 28D0     		beq	.L187
 199:Drivers/STM32F4xx_HAL_Driver/Src/stm32f4xx_hal_dma_ex.c ****     __HAL_DMA_CLEAR_FLAG (hdma, __HAL_DMA_GET_DME_FLAG_INDEX(hdma));
 1346              		.loc 1 199 0 discriminator 112
 1347 084e 02F58062 		add	r2, r2, #1024
 1348 0852 9342     		cmp	r3, r2
 1349 0854 27D0     		beq	.L188
 199:Drivers/STM32F4xx_HAL_Driver/Src/stm32f4xx_hal_dma_ex.c ****     __HAL_DMA_CLEAR_FLAG (hdma, __HAL_DMA_GET_DME_FLAG_INDEX(hdma));
 1350              		.loc 1 199 0 discriminator 114
 1351 0856 A2F56872 		sub	r2, r2, #928
 1352 085a 9342     		cmp	r3, r2
 1353 085c 26D0     		beq	.L189
 199:Drivers/STM32F4xx_HAL_Driver/Src/stm32f4xx_hal_dma_ex.c ****     __HAL_DMA_CLEAR_FLAG (hdma, __HAL_DMA_GET_DME_FLAG_INDEX(hdma));
 1354              		.loc 1 199 0 discriminator 116
 1355 085e 02F58062 		add	r2, r2, #1024
 1356 0862 9342     		cmp	r3, r2
 1357 0864 25D0     		beq	.L190
 199:Drivers/STM32F4xx_HAL_Driver/Src/stm32f4xx_hal_dma_ex.c ****     __HAL_DMA_CLEAR_FLAG (hdma, __HAL_DMA_GET_DME_FLAG_INDEX(hdma));
 1358              		.loc 1 199 0 discriminator 118
 1359 0866 A2F58962 		sub	r2, r2, #1096
 1360 086a 9342     		cmp	r3, r2
 1361 086c 24D0     		beq	.L191
 199:Drivers/STM32F4xx_HAL_Driver/Src/stm32f4xx_hal_dma_ex.c ****     __HAL_DMA_CLEAR_FLAG (hdma, __HAL_DMA_GET_DME_FLAG_INDEX(hdma));
 1362              		.loc 1 199 0 discriminator 120
 1363 086e 02F58062 		add	r2, r2, #1024
ARM GAS  /tmp/cc8VKHC2.s 			page 34


 1364 0872 9342     		cmp	r3, r2
 1365 0874 23D0     		beq	.L192
 199:Drivers/STM32F4xx_HAL_Driver/Src/stm32f4xx_hal_dma_ex.c ****     __HAL_DMA_CLEAR_FLAG (hdma, __HAL_DMA_GET_DME_FLAG_INDEX(hdma));
 1366              		.loc 1 199 0 discriminator 122
 1367 0876 A2F56872 		sub	r2, r2, #928
 1368 087a 9342     		cmp	r3, r2
 1369 087c 22D0     		beq	.L193
 199:Drivers/STM32F4xx_HAL_Driver/Src/stm32f4xx_hal_dma_ex.c ****     __HAL_DMA_CLEAR_FLAG (hdma, __HAL_DMA_GET_DME_FLAG_INDEX(hdma));
 1370              		.loc 1 199 0 discriminator 124
 1371 087e 02F58062 		add	r2, r2, #1024
 1372 0882 9342     		cmp	r3, r2
 1373 0884 21D1     		bne	.L194
 199:Drivers/STM32F4xx_HAL_Driver/Src/stm32f4xx_hal_dma_ex.c ****     __HAL_DMA_CLEAR_FLAG (hdma, __HAL_DMA_GET_DME_FLAG_INDEX(hdma));
 1374              		.loc 1 199 0
 1375 0886 4FF40023 		mov	r3, #524288
 1376 088a 00E0     		b	.L42
 1377              	.L183:
 1378 088c 0823     		movs	r3, #8
 1379              	.L42:
 199:Drivers/STM32F4xx_HAL_Driver/Src/stm32f4xx_hal_dma_ex.c ****     __HAL_DMA_CLEAR_FLAG (hdma, __HAL_DMA_GET_DME_FLAG_INDEX(hdma));
 1380              		.loc 1 199 0 discriminator 151
 1381 088e 404A     		ldr	r2, .L321+16
 1382 0890 D360     		str	r3, [r2, #12]
 1383 0892 10E7     		b	.L38
 1384              	.L184:
 199:Drivers/STM32F4xx_HAL_Driver/Src/stm32f4xx_hal_dma_ex.c ****     __HAL_DMA_CLEAR_FLAG (hdma, __HAL_DMA_GET_DME_FLAG_INDEX(hdma));
 1385              		.loc 1 199 0
 1386 0894 0823     		movs	r3, #8
 1387 0896 FAE7     		b	.L42
 1388              	.L185:
 1389 0898 0823     		movs	r3, #8
 1390 089a F8E7     		b	.L42
 1391              	.L186:
 1392 089c 0823     		movs	r3, #8
 1393 089e F6E7     		b	.L42
 1394              	.L187:
 1395 08a0 4FF40073 		mov	r3, #512
 1396 08a4 F3E7     		b	.L42
 1397              	.L188:
 1398 08a6 4FF40073 		mov	r3, #512
 1399 08aa F0E7     		b	.L42
 1400              	.L189:
 1401 08ac 4FF40073 		mov	r3, #512
 1402 08b0 EDE7     		b	.L42
 1403              	.L190:
 1404 08b2 4FF40073 		mov	r3, #512
 1405 08b6 EAE7     		b	.L42
 1406              	.L191:
 1407 08b8 4FF40023 		mov	r3, #524288
 1408 08bc E7E7     		b	.L42
 1409              	.L192:
 1410 08be 4FF40023 		mov	r3, #524288
 1411 08c2 E4E7     		b	.L42
 1412              	.L193:
 1413 08c4 4FF40023 		mov	r3, #524288
 1414 08c8 E1E7     		b	.L42
 1415              	.L194:
ARM GAS  /tmp/cc8VKHC2.s 			page 35


 1416 08ca 4FF00073 		mov	r3, #33554432
 1417 08ce DEE7     		b	.L42
 1418              	.L41:
 199:Drivers/STM32F4xx_HAL_Driver/Src/stm32f4xx_hal_dma_ex.c ****     __HAL_DMA_CLEAR_FLAG (hdma, __HAL_DMA_GET_DME_FLAG_INDEX(hdma));
 1419              		.loc 1 199 0 discriminator 103
 1420 08d0 304A     		ldr	r2, .L321+20
 1421 08d2 9342     		cmp	r3, r2
 1422 08d4 2ED0     		beq	.L195
 199:Drivers/STM32F4xx_HAL_Driver/Src/stm32f4xx_hal_dma_ex.c ****     __HAL_DMA_CLEAR_FLAG (hdma, __HAL_DMA_GET_DME_FLAG_INDEX(hdma));
 1423              		.loc 1 199 0 discriminator 153
 1424 08d6 02F58062 		add	r2, r2, #1024
 1425 08da 9342     		cmp	r3, r2
 1426 08dc 2ED0     		beq	.L196
 199:Drivers/STM32F4xx_HAL_Driver/Src/stm32f4xx_hal_dma_ex.c ****     __HAL_DMA_CLEAR_FLAG (hdma, __HAL_DMA_GET_DME_FLAG_INDEX(hdma));
 1427              		.loc 1 199 0 discriminator 155
 1428 08de A2F56872 		sub	r2, r2, #928
 1429 08e2 9342     		cmp	r3, r2
 1430 08e4 2CD0     		beq	.L197
 199:Drivers/STM32F4xx_HAL_Driver/Src/stm32f4xx_hal_dma_ex.c ****     __HAL_DMA_CLEAR_FLAG (hdma, __HAL_DMA_GET_DME_FLAG_INDEX(hdma));
 1431              		.loc 1 199 0 discriminator 157
 1432 08e6 02F58062 		add	r2, r2, #1024
 1433 08ea 9342     		cmp	r3, r2
 1434 08ec 2AD0     		beq	.L198
 199:Drivers/STM32F4xx_HAL_Driver/Src/stm32f4xx_hal_dma_ex.c ****     __HAL_DMA_CLEAR_FLAG (hdma, __HAL_DMA_GET_DME_FLAG_INDEX(hdma));
 1435              		.loc 1 199 0 discriminator 159
 1436 08ee A2F58962 		sub	r2, r2, #1096
 1437 08f2 9342     		cmp	r3, r2
 1438 08f4 28D0     		beq	.L199
 199:Drivers/STM32F4xx_HAL_Driver/Src/stm32f4xx_hal_dma_ex.c ****     __HAL_DMA_CLEAR_FLAG (hdma, __HAL_DMA_GET_DME_FLAG_INDEX(hdma));
 1439              		.loc 1 199 0 discriminator 161
 1440 08f6 02F58062 		add	r2, r2, #1024
 1441 08fa 9342     		cmp	r3, r2
 1442 08fc 27D0     		beq	.L200
 199:Drivers/STM32F4xx_HAL_Driver/Src/stm32f4xx_hal_dma_ex.c ****     __HAL_DMA_CLEAR_FLAG (hdma, __HAL_DMA_GET_DME_FLAG_INDEX(hdma));
 1443              		.loc 1 199 0 discriminator 163
 1444 08fe A2F56872 		sub	r2, r2, #928
 1445 0902 9342     		cmp	r3, r2
 1446 0904 26D0     		beq	.L201
 199:Drivers/STM32F4xx_HAL_Driver/Src/stm32f4xx_hal_dma_ex.c ****     __HAL_DMA_CLEAR_FLAG (hdma, __HAL_DMA_GET_DME_FLAG_INDEX(hdma));
 1447              		.loc 1 199 0 discriminator 165
 1448 0906 02F58062 		add	r2, r2, #1024
 1449 090a 9342     		cmp	r3, r2
 1450 090c 25D0     		beq	.L202
 199:Drivers/STM32F4xx_HAL_Driver/Src/stm32f4xx_hal_dma_ex.c ****     __HAL_DMA_CLEAR_FLAG (hdma, __HAL_DMA_GET_DME_FLAG_INDEX(hdma));
 1451              		.loc 1 199 0 discriminator 167
 1452 090e A2F58962 		sub	r2, r2, #1096
 1453 0912 9342     		cmp	r3, r2
 1454 0914 24D0     		beq	.L203
 199:Drivers/STM32F4xx_HAL_Driver/Src/stm32f4xx_hal_dma_ex.c ****     __HAL_DMA_CLEAR_FLAG (hdma, __HAL_DMA_GET_DME_FLAG_INDEX(hdma));
 1455              		.loc 1 199 0 discriminator 169
 1456 0916 02F58062 		add	r2, r2, #1024
 1457 091a 9342     		cmp	r3, r2
 1458 091c 23D0     		beq	.L204
 199:Drivers/STM32F4xx_HAL_Driver/Src/stm32f4xx_hal_dma_ex.c ****     __HAL_DMA_CLEAR_FLAG (hdma, __HAL_DMA_GET_DME_FLAG_INDEX(hdma));
 1459              		.loc 1 199 0 discriminator 171
 1460 091e A2F56872 		sub	r2, r2, #928
 1461 0922 9342     		cmp	r3, r2
ARM GAS  /tmp/cc8VKHC2.s 			page 36


 1462 0924 22D0     		beq	.L205
 199:Drivers/STM32F4xx_HAL_Driver/Src/stm32f4xx_hal_dma_ex.c ****     __HAL_DMA_CLEAR_FLAG (hdma, __HAL_DMA_GET_DME_FLAG_INDEX(hdma));
 1463              		.loc 1 199 0 discriminator 173
 1464 0926 02F58062 		add	r2, r2, #1024
 1465 092a 9342     		cmp	r3, r2
 1466 092c 21D1     		bne	.L206
 199:Drivers/STM32F4xx_HAL_Driver/Src/stm32f4xx_hal_dma_ex.c ****     __HAL_DMA_CLEAR_FLAG (hdma, __HAL_DMA_GET_DME_FLAG_INDEX(hdma));
 1467              		.loc 1 199 0
 1468 092e 4FF40023 		mov	r3, #524288
 1469 0932 00E0     		b	.L43
 1470              	.L195:
 1471 0934 0823     		movs	r3, #8
 1472              	.L43:
 199:Drivers/STM32F4xx_HAL_Driver/Src/stm32f4xx_hal_dma_ex.c ****     __HAL_DMA_CLEAR_FLAG (hdma, __HAL_DMA_GET_DME_FLAG_INDEX(hdma));
 1473              		.loc 1 199 0 discriminator 200
 1474 0936 164A     		ldr	r2, .L321+16
 1475 0938 9360     		str	r3, [r2, #8]
 1476 093a BCE6     		b	.L38
 1477              	.L196:
 199:Drivers/STM32F4xx_HAL_Driver/Src/stm32f4xx_hal_dma_ex.c ****     __HAL_DMA_CLEAR_FLAG (hdma, __HAL_DMA_GET_DME_FLAG_INDEX(hdma));
 1478              		.loc 1 199 0
 1479 093c 0823     		movs	r3, #8
 1480 093e FAE7     		b	.L43
 1481              	.L197:
 1482 0940 0823     		movs	r3, #8
 1483 0942 F8E7     		b	.L43
 1484              	.L198:
 1485 0944 0823     		movs	r3, #8
 1486 0946 F6E7     		b	.L43
 1487              	.L199:
 1488 0948 4FF40073 		mov	r3, #512
 1489 094c F3E7     		b	.L43
 1490              	.L200:
 1491 094e 4FF40073 		mov	r3, #512
 1492 0952 F0E7     		b	.L43
 1493              	.L201:
 1494 0954 4FF40073 		mov	r3, #512
 1495 0958 EDE7     		b	.L43
 1496              	.L202:
 1497 095a 4FF40073 		mov	r3, #512
 1498 095e EAE7     		b	.L43
 1499              	.L203:
 1500 0960 4FF40023 		mov	r3, #524288
 1501 0964 E7E7     		b	.L43
 1502              	.L204:
 1503 0966 4FF40023 		mov	r3, #524288
 1504 096a E4E7     		b	.L43
 1505              	.L205:
 1506 096c 4FF40023 		mov	r3, #524288
 1507 0970 E1E7     		b	.L43
 1508              	.L206:
 1509 0972 4FF00073 		mov	r3, #33554432
 1510 0976 DEE7     		b	.L43
 1511              	.L311:
 200:Drivers/STM32F4xx_HAL_Driver/Src/stm32f4xx_hal_dma_ex.c ****     __HAL_DMA_CLEAR_FLAG (hdma, __HAL_DMA_GET_FE_FLAG_INDEX(hdma));
 1512              		.loc 1 200 0 is_stmt 1
 1513 0978 4FF48022 		mov	r2, #262144
ARM GAS  /tmp/cc8VKHC2.s 			page 37


 1514 097c 0DE0     		b	.L45
 1515              	.L322:
 1516 097e 00BF     		.align	2
 1517              	.L321:
 1518 0980 00640240 		.word	1073898496
 1519 0984 58640240 		.word	1073898584
 1520 0988 B8600240 		.word	1073897656
 1521 098c 58600240 		.word	1073897560
 1522 0990 00600240 		.word	1073897472
 1523 0994 10600240 		.word	1073897488
 1524              	.L207:
 1525 0998 0422     		movs	r2, #4
 1526              	.L45:
 200:Drivers/STM32F4xx_HAL_Driver/Src/stm32f4xx_hal_dma_ex.c ****     __HAL_DMA_CLEAR_FLAG (hdma, __HAL_DMA_GET_FE_FLAG_INDEX(hdma));
 1527              		.loc 1 200 0 is_stmt 0 discriminator 50
 1528 099a C24B     		ldr	r3, .L323
 1529 099c DA60     		str	r2, [r3, #12]
 1530              	.L46:
 201:Drivers/STM32F4xx_HAL_Driver/Src/stm32f4xx_hal_dma_ex.c **** 
 1531              		.loc 1 201 0 is_stmt 1
 1532 099e 2368     		ldr	r3, [r4]
 1533 09a0 C14A     		ldr	r2, .L323+4
 1534 09a2 9342     		cmp	r3, r2
 1535 09a4 40F2A181 		bls	.L52
 201:Drivers/STM32F4xx_HAL_Driver/Src/stm32f4xx_hal_dma_ex.c **** 
 1536              		.loc 1 201 0 is_stmt 0 discriminator 1
 1537 09a8 A2F58962 		sub	r2, r2, #1096
 1538 09ac 9342     		cmp	r3, r2
 1539 09ae 00F05A81 		beq	.L255
 201:Drivers/STM32F4xx_HAL_Driver/Src/stm32f4xx_hal_dma_ex.c **** 
 1540              		.loc 1 201 0 discriminator 3
 1541 09b2 02F58062 		add	r2, r2, #1024
 1542 09b6 9342     		cmp	r3, r2
 1543 09b8 00F08081 		beq	.L256
 201:Drivers/STM32F4xx_HAL_Driver/Src/stm32f4xx_hal_dma_ex.c **** 
 1544              		.loc 1 201 0 discriminator 5
 1545 09bc A2F56872 		sub	r2, r2, #928
 1546 09c0 9342     		cmp	r3, r2
 1547 09c2 00F07D81 		beq	.L257
 201:Drivers/STM32F4xx_HAL_Driver/Src/stm32f4xx_hal_dma_ex.c **** 
 1548              		.loc 1 201 0 discriminator 7
 1549 09c6 02F58062 		add	r2, r2, #1024
 1550 09ca 9342     		cmp	r3, r2
 1551 09cc 00F07A81 		beq	.L258
 201:Drivers/STM32F4xx_HAL_Driver/Src/stm32f4xx_hal_dma_ex.c **** 
 1552              		.loc 1 201 0 discriminator 9
 1553 09d0 A2F58962 		sub	r2, r2, #1096
 1554 09d4 9342     		cmp	r3, r2
 1555 09d6 00F07781 		beq	.L259
 201:Drivers/STM32F4xx_HAL_Driver/Src/stm32f4xx_hal_dma_ex.c **** 
 1556              		.loc 1 201 0 discriminator 11
 1557 09da 02F58062 		add	r2, r2, #1024
 1558 09de 9342     		cmp	r3, r2
 1559 09e0 00F07481 		beq	.L260
 201:Drivers/STM32F4xx_HAL_Driver/Src/stm32f4xx_hal_dma_ex.c **** 
 1560              		.loc 1 201 0 discriminator 13
 1561 09e4 A2F56872 		sub	r2, r2, #928
ARM GAS  /tmp/cc8VKHC2.s 			page 38


 1562 09e8 9342     		cmp	r3, r2
 1563 09ea 00F07181 		beq	.L261
 201:Drivers/STM32F4xx_HAL_Driver/Src/stm32f4xx_hal_dma_ex.c **** 
 1564              		.loc 1 201 0 discriminator 15
 1565 09ee 02F58062 		add	r2, r2, #1024
 1566 09f2 9342     		cmp	r3, r2
 1567 09f4 00F06E81 		beq	.L262
 201:Drivers/STM32F4xx_HAL_Driver/Src/stm32f4xx_hal_dma_ex.c **** 
 1568              		.loc 1 201 0 discriminator 17
 1569 09f8 A2F58962 		sub	r2, r2, #1096
 1570 09fc 9342     		cmp	r3, r2
 1571 09fe 00F06B81 		beq	.L263
 201:Drivers/STM32F4xx_HAL_Driver/Src/stm32f4xx_hal_dma_ex.c **** 
 1572              		.loc 1 201 0 discriminator 19
 1573 0a02 02F58062 		add	r2, r2, #1024
 1574 0a06 9342     		cmp	r3, r2
 1575 0a08 00F06981 		beq	.L264
 201:Drivers/STM32F4xx_HAL_Driver/Src/stm32f4xx_hal_dma_ex.c **** 
 1576              		.loc 1 201 0 discriminator 21
 1577 0a0c A2F56872 		sub	r2, r2, #928
 1578 0a10 9342     		cmp	r3, r2
 1579 0a12 00F06781 		beq	.L265
 201:Drivers/STM32F4xx_HAL_Driver/Src/stm32f4xx_hal_dma_ex.c **** 
 1580              		.loc 1 201 0 discriminator 23
 1581 0a16 02F58062 		add	r2, r2, #1024
 1582 0a1a 9342     		cmp	r3, r2
 1583 0a1c 00F02081 		beq	.L313
 201:Drivers/STM32F4xx_HAL_Driver/Src/stm32f4xx_hal_dma_ex.c **** 
 1584              		.loc 1 201 0
 1585 0a20 4FF48002 		mov	r2, #4194304
 1586 0a24 20E1     		b	.L53
 1587              	.L208:
 200:Drivers/STM32F4xx_HAL_Driver/Src/stm32f4xx_hal_dma_ex.c ****     __HAL_DMA_CLEAR_FLAG (hdma, __HAL_DMA_GET_FE_FLAG_INDEX(hdma));
 1588              		.loc 1 200 0 is_stmt 1
 1589 0a26 0422     		movs	r2, #4
 1590 0a28 B7E7     		b	.L45
 1591              	.L209:
 1592 0a2a 0422     		movs	r2, #4
 1593 0a2c B5E7     		b	.L45
 1594              	.L210:
 1595 0a2e 0422     		movs	r2, #4
 1596 0a30 B3E7     		b	.L45
 1597              	.L211:
 1598 0a32 4FF48072 		mov	r2, #256
 1599 0a36 B0E7     		b	.L45
 1600              	.L212:
 1601 0a38 4FF48072 		mov	r2, #256
 1602 0a3c ADE7     		b	.L45
 1603              	.L213:
 1604 0a3e 4FF48072 		mov	r2, #256
 1605 0a42 AAE7     		b	.L45
 1606              	.L214:
 1607 0a44 4FF48072 		mov	r2, #256
 1608 0a48 A7E7     		b	.L45
 1609              	.L215:
 1610 0a4a 4FF48022 		mov	r2, #262144
 1611 0a4e A4E7     		b	.L45
ARM GAS  /tmp/cc8VKHC2.s 			page 39


 1612              	.L216:
 1613 0a50 4FF48022 		mov	r2, #262144
 1614 0a54 A1E7     		b	.L45
 1615              	.L217:
 1616 0a56 4FF48022 		mov	r2, #262144
 1617 0a5a 9EE7     		b	.L45
 1618              	.L44:
 200:Drivers/STM32F4xx_HAL_Driver/Src/stm32f4xx_hal_dma_ex.c ****     __HAL_DMA_CLEAR_FLAG (hdma, __HAL_DMA_GET_FE_FLAG_INDEX(hdma));
 1619              		.loc 1 200 0 is_stmt 0 discriminator 2
 1620 0a5c 934A     		ldr	r2, .L323+8
 1621 0a5e 9342     		cmp	r3, r2
 1622 0a60 53D9     		bls	.L47
 200:Drivers/STM32F4xx_HAL_Driver/Src/stm32f4xx_hal_dma_ex.c ****     __HAL_DMA_CLEAR_FLAG (hdma, __HAL_DMA_GET_FE_FLAG_INDEX(hdma));
 1623              		.loc 1 200 0 discriminator 51
 1624 0a62 A83A     		subs	r2, r2, #168
 1625 0a64 9342     		cmp	r3, r2
 1626 0a66 31D0     		beq	.L219
 200:Drivers/STM32F4xx_HAL_Driver/Src/stm32f4xx_hal_dma_ex.c ****     __HAL_DMA_CLEAR_FLAG (hdma, __HAL_DMA_GET_FE_FLAG_INDEX(hdma));
 1627              		.loc 1 200 0 discriminator 53
 1628 0a68 02F58062 		add	r2, r2, #1024
 1629 0a6c 9342     		cmp	r3, r2
 1630 0a6e 31D0     		beq	.L220
 200:Drivers/STM32F4xx_HAL_Driver/Src/stm32f4xx_hal_dma_ex.c ****     __HAL_DMA_CLEAR_FLAG (hdma, __HAL_DMA_GET_FE_FLAG_INDEX(hdma));
 1631              		.loc 1 200 0 discriminator 55
 1632 0a70 A2F56872 		sub	r2, r2, #928
 1633 0a74 9342     		cmp	r3, r2
 1634 0a76 2FD0     		beq	.L221
 200:Drivers/STM32F4xx_HAL_Driver/Src/stm32f4xx_hal_dma_ex.c ****     __HAL_DMA_CLEAR_FLAG (hdma, __HAL_DMA_GET_FE_FLAG_INDEX(hdma));
 1635              		.loc 1 200 0 discriminator 57
 1636 0a78 02F58062 		add	r2, r2, #1024
 1637 0a7c 9342     		cmp	r3, r2
 1638 0a7e 2DD0     		beq	.L222
 200:Drivers/STM32F4xx_HAL_Driver/Src/stm32f4xx_hal_dma_ex.c ****     __HAL_DMA_CLEAR_FLAG (hdma, __HAL_DMA_GET_FE_FLAG_INDEX(hdma));
 1639              		.loc 1 200 0 discriminator 59
 1640 0a80 A2F58962 		sub	r2, r2, #1096
 1641 0a84 9342     		cmp	r3, r2
 1642 0a86 2BD0     		beq	.L223
 200:Drivers/STM32F4xx_HAL_Driver/Src/stm32f4xx_hal_dma_ex.c ****     __HAL_DMA_CLEAR_FLAG (hdma, __HAL_DMA_GET_FE_FLAG_INDEX(hdma));
 1643              		.loc 1 200 0 discriminator 61
 1644 0a88 02F58062 		add	r2, r2, #1024
 1645 0a8c 9342     		cmp	r3, r2
 1646 0a8e 2AD0     		beq	.L224
 200:Drivers/STM32F4xx_HAL_Driver/Src/stm32f4xx_hal_dma_ex.c ****     __HAL_DMA_CLEAR_FLAG (hdma, __HAL_DMA_GET_FE_FLAG_INDEX(hdma));
 1647              		.loc 1 200 0 discriminator 63
 1648 0a90 A2F56872 		sub	r2, r2, #928
 1649 0a94 9342     		cmp	r3, r2
 1650 0a96 29D0     		beq	.L225
 200:Drivers/STM32F4xx_HAL_Driver/Src/stm32f4xx_hal_dma_ex.c ****     __HAL_DMA_CLEAR_FLAG (hdma, __HAL_DMA_GET_FE_FLAG_INDEX(hdma));
 1651              		.loc 1 200 0 discriminator 65
 1652 0a98 02F58062 		add	r2, r2, #1024
 1653 0a9c 9342     		cmp	r3, r2
 1654 0a9e 28D0     		beq	.L226
 200:Drivers/STM32F4xx_HAL_Driver/Src/stm32f4xx_hal_dma_ex.c ****     __HAL_DMA_CLEAR_FLAG (hdma, __HAL_DMA_GET_FE_FLAG_INDEX(hdma));
 1655              		.loc 1 200 0 discriminator 67
 1656 0aa0 A2F58962 		sub	r2, r2, #1096
 1657 0aa4 9342     		cmp	r3, r2
 1658 0aa6 27D0     		beq	.L227
ARM GAS  /tmp/cc8VKHC2.s 			page 40


 200:Drivers/STM32F4xx_HAL_Driver/Src/stm32f4xx_hal_dma_ex.c ****     __HAL_DMA_CLEAR_FLAG (hdma, __HAL_DMA_GET_FE_FLAG_INDEX(hdma));
 1659              		.loc 1 200 0 discriminator 69
 1660 0aa8 02F58062 		add	r2, r2, #1024
 1661 0aac 9342     		cmp	r3, r2
 1662 0aae 26D0     		beq	.L228
 200:Drivers/STM32F4xx_HAL_Driver/Src/stm32f4xx_hal_dma_ex.c ****     __HAL_DMA_CLEAR_FLAG (hdma, __HAL_DMA_GET_FE_FLAG_INDEX(hdma));
 1663              		.loc 1 200 0 discriminator 71
 1664 0ab0 A2F56872 		sub	r2, r2, #928
 1665 0ab4 9342     		cmp	r3, r2
 1666 0ab6 25D0     		beq	.L229
 200:Drivers/STM32F4xx_HAL_Driver/Src/stm32f4xx_hal_dma_ex.c ****     __HAL_DMA_CLEAR_FLAG (hdma, __HAL_DMA_GET_FE_FLAG_INDEX(hdma));
 1667              		.loc 1 200 0 discriminator 73
 1668 0ab8 02F58062 		add	r2, r2, #1024
 1669 0abc 9342     		cmp	r3, r2
 1670 0abe 02D0     		beq	.L314
 200:Drivers/STM32F4xx_HAL_Driver/Src/stm32f4xx_hal_dma_ex.c ****     __HAL_DMA_CLEAR_FLAG (hdma, __HAL_DMA_GET_FE_FLAG_INDEX(hdma));
 1671              		.loc 1 200 0
 1672 0ac0 4FF08073 		mov	r3, #16777216
 1673 0ac4 03E0     		b	.L48
 1674              	.L314:
 1675 0ac6 4FF48023 		mov	r3, #262144
 1676 0aca 00E0     		b	.L48
 1677              	.L219:
 1678 0acc 0423     		movs	r3, #4
 1679              	.L48:
 200:Drivers/STM32F4xx_HAL_Driver/Src/stm32f4xx_hal_dma_ex.c ****     __HAL_DMA_CLEAR_FLAG (hdma, __HAL_DMA_GET_FE_FLAG_INDEX(hdma));
 1680              		.loc 1 200 0 discriminator 100
 1681 0ace 754A     		ldr	r2, .L323
 1682 0ad0 9360     		str	r3, [r2, #8]
 1683 0ad2 64E7     		b	.L46
 1684              	.L220:
 200:Drivers/STM32F4xx_HAL_Driver/Src/stm32f4xx_hal_dma_ex.c ****     __HAL_DMA_CLEAR_FLAG (hdma, __HAL_DMA_GET_FE_FLAG_INDEX(hdma));
 1685              		.loc 1 200 0
 1686 0ad4 0423     		movs	r3, #4
 1687 0ad6 FAE7     		b	.L48
 1688              	.L221:
 1689 0ad8 0423     		movs	r3, #4
 1690 0ada F8E7     		b	.L48
 1691              	.L222:
 1692 0adc 0423     		movs	r3, #4
 1693 0ade F6E7     		b	.L48
 1694              	.L223:
 1695 0ae0 4FF48073 		mov	r3, #256
 1696 0ae4 F3E7     		b	.L48
 1697              	.L224:
 1698 0ae6 4FF48073 		mov	r3, #256
 1699 0aea F0E7     		b	.L48
 1700              	.L225:
 1701 0aec 4FF48073 		mov	r3, #256
 1702 0af0 EDE7     		b	.L48
 1703              	.L226:
 1704 0af2 4FF48073 		mov	r3, #256
 1705 0af6 EAE7     		b	.L48
 1706              	.L227:
 1707 0af8 4FF48023 		mov	r3, #262144
 1708 0afc E7E7     		b	.L48
 1709              	.L228:
ARM GAS  /tmp/cc8VKHC2.s 			page 41


 1710 0afe 4FF48023 		mov	r3, #262144
 1711 0b02 E4E7     		b	.L48
 1712              	.L229:
 1713 0b04 4FF48023 		mov	r3, #262144
 1714 0b08 E1E7     		b	.L48
 1715              	.L47:
 200:Drivers/STM32F4xx_HAL_Driver/Src/stm32f4xx_hal_dma_ex.c ****     __HAL_DMA_CLEAR_FLAG (hdma, __HAL_DMA_GET_FE_FLAG_INDEX(hdma));
 1716              		.loc 1 200 0 discriminator 52
 1717 0b0a 694A     		ldr	r2, .L323+12
 1718 0b0c 9342     		cmp	r3, r2
 1719 0b0e 53D9     		bls	.L49
 200:Drivers/STM32F4xx_HAL_Driver/Src/stm32f4xx_hal_dma_ex.c ****     __HAL_DMA_CLEAR_FLAG (hdma, __HAL_DMA_GET_FE_FLAG_INDEX(hdma));
 1720              		.loc 1 200 0 discriminator 102
 1721 0b10 483A     		subs	r2, r2, #72
 1722 0b12 9342     		cmp	r3, r2
 1723 0b14 2ED0     		beq	.L231
 200:Drivers/STM32F4xx_HAL_Driver/Src/stm32f4xx_hal_dma_ex.c ****     __HAL_DMA_CLEAR_FLAG (hdma, __HAL_DMA_GET_FE_FLAG_INDEX(hdma));
 1724              		.loc 1 200 0 discriminator 104
 1725 0b16 02F58062 		add	r2, r2, #1024
 1726 0b1a 9342     		cmp	r3, r2
 1727 0b1c 2ED0     		beq	.L232
 200:Drivers/STM32F4xx_HAL_Driver/Src/stm32f4xx_hal_dma_ex.c ****     __HAL_DMA_CLEAR_FLAG (hdma, __HAL_DMA_GET_FE_FLAG_INDEX(hdma));
 1728              		.loc 1 200 0 discriminator 106
 1729 0b1e A2F56872 		sub	r2, r2, #928
 1730 0b22 9342     		cmp	r3, r2
 1731 0b24 2CD0     		beq	.L233
 200:Drivers/STM32F4xx_HAL_Driver/Src/stm32f4xx_hal_dma_ex.c ****     __HAL_DMA_CLEAR_FLAG (hdma, __HAL_DMA_GET_FE_FLAG_INDEX(hdma));
 1732              		.loc 1 200 0 discriminator 108
 1733 0b26 02F58062 		add	r2, r2, #1024
 1734 0b2a 9342     		cmp	r3, r2
 1735 0b2c 2AD0     		beq	.L234
 200:Drivers/STM32F4xx_HAL_Driver/Src/stm32f4xx_hal_dma_ex.c ****     __HAL_DMA_CLEAR_FLAG (hdma, __HAL_DMA_GET_FE_FLAG_INDEX(hdma));
 1736              		.loc 1 200 0 discriminator 110
 1737 0b2e A2F58962 		sub	r2, r2, #1096
 1738 0b32 9342     		cmp	r3, r2
 1739 0b34 28D0     		beq	.L235
 200:Drivers/STM32F4xx_HAL_Driver/Src/stm32f4xx_hal_dma_ex.c ****     __HAL_DMA_CLEAR_FLAG (hdma, __HAL_DMA_GET_FE_FLAG_INDEX(hdma));
 1740              		.loc 1 200 0 discriminator 112
 1741 0b36 02F58062 		add	r2, r2, #1024
 1742 0b3a 9342     		cmp	r3, r2
 1743 0b3c 27D0     		beq	.L236
 200:Drivers/STM32F4xx_HAL_Driver/Src/stm32f4xx_hal_dma_ex.c ****     __HAL_DMA_CLEAR_FLAG (hdma, __HAL_DMA_GET_FE_FLAG_INDEX(hdma));
 1744              		.loc 1 200 0 discriminator 114
 1745 0b3e A2F56872 		sub	r2, r2, #928
 1746 0b42 9342     		cmp	r3, r2
 1747 0b44 26D0     		beq	.L237
 200:Drivers/STM32F4xx_HAL_Driver/Src/stm32f4xx_hal_dma_ex.c ****     __HAL_DMA_CLEAR_FLAG (hdma, __HAL_DMA_GET_FE_FLAG_INDEX(hdma));
 1748              		.loc 1 200 0 discriminator 116
 1749 0b46 02F58062 		add	r2, r2, #1024
 1750 0b4a 9342     		cmp	r3, r2
 1751 0b4c 25D0     		beq	.L238
 200:Drivers/STM32F4xx_HAL_Driver/Src/stm32f4xx_hal_dma_ex.c ****     __HAL_DMA_CLEAR_FLAG (hdma, __HAL_DMA_GET_FE_FLAG_INDEX(hdma));
 1752              		.loc 1 200 0 discriminator 118
 1753 0b4e A2F58962 		sub	r2, r2, #1096
 1754 0b52 9342     		cmp	r3, r2
 1755 0b54 24D0     		beq	.L239
 200:Drivers/STM32F4xx_HAL_Driver/Src/stm32f4xx_hal_dma_ex.c ****     __HAL_DMA_CLEAR_FLAG (hdma, __HAL_DMA_GET_FE_FLAG_INDEX(hdma));
ARM GAS  /tmp/cc8VKHC2.s 			page 42


 1756              		.loc 1 200 0 discriminator 120
 1757 0b56 02F58062 		add	r2, r2, #1024
 1758 0b5a 9342     		cmp	r3, r2
 1759 0b5c 23D0     		beq	.L240
 200:Drivers/STM32F4xx_HAL_Driver/Src/stm32f4xx_hal_dma_ex.c ****     __HAL_DMA_CLEAR_FLAG (hdma, __HAL_DMA_GET_FE_FLAG_INDEX(hdma));
 1760              		.loc 1 200 0 discriminator 122
 1761 0b5e A2F56872 		sub	r2, r2, #928
 1762 0b62 9342     		cmp	r3, r2
 1763 0b64 22D0     		beq	.L241
 200:Drivers/STM32F4xx_HAL_Driver/Src/stm32f4xx_hal_dma_ex.c ****     __HAL_DMA_CLEAR_FLAG (hdma, __HAL_DMA_GET_FE_FLAG_INDEX(hdma));
 1764              		.loc 1 200 0 discriminator 124
 1765 0b66 02F58062 		add	r2, r2, #1024
 1766 0b6a 9342     		cmp	r3, r2
 1767 0b6c 21D1     		bne	.L242
 200:Drivers/STM32F4xx_HAL_Driver/Src/stm32f4xx_hal_dma_ex.c ****     __HAL_DMA_CLEAR_FLAG (hdma, __HAL_DMA_GET_FE_FLAG_INDEX(hdma));
 1768              		.loc 1 200 0
 1769 0b6e 4FF48023 		mov	r3, #262144
 1770 0b72 00E0     		b	.L50
 1771              	.L231:
 1772 0b74 0423     		movs	r3, #4
 1773              	.L50:
 200:Drivers/STM32F4xx_HAL_Driver/Src/stm32f4xx_hal_dma_ex.c ****     __HAL_DMA_CLEAR_FLAG (hdma, __HAL_DMA_GET_FE_FLAG_INDEX(hdma));
 1774              		.loc 1 200 0 discriminator 151
 1775 0b76 4F4A     		ldr	r2, .L323+16
 1776 0b78 D360     		str	r3, [r2, #12]
 1777 0b7a 10E7     		b	.L46
 1778              	.L232:
 200:Drivers/STM32F4xx_HAL_Driver/Src/stm32f4xx_hal_dma_ex.c ****     __HAL_DMA_CLEAR_FLAG (hdma, __HAL_DMA_GET_FE_FLAG_INDEX(hdma));
 1779              		.loc 1 200 0
 1780 0b7c 0423     		movs	r3, #4
 1781 0b7e FAE7     		b	.L50
 1782              	.L233:
 1783 0b80 0423     		movs	r3, #4
 1784 0b82 F8E7     		b	.L50
 1785              	.L234:
 1786 0b84 0423     		movs	r3, #4
 1787 0b86 F6E7     		b	.L50
 1788              	.L235:
 1789 0b88 4FF48073 		mov	r3, #256
 1790 0b8c F3E7     		b	.L50
 1791              	.L236:
 1792 0b8e 4FF48073 		mov	r3, #256
 1793 0b92 F0E7     		b	.L50
 1794              	.L237:
 1795 0b94 4FF48073 		mov	r3, #256
 1796 0b98 EDE7     		b	.L50
 1797              	.L238:
 1798 0b9a 4FF48073 		mov	r3, #256
 1799 0b9e EAE7     		b	.L50
 1800              	.L239:
 1801 0ba0 4FF48023 		mov	r3, #262144
 1802 0ba4 E7E7     		b	.L50
 1803              	.L240:
 1804 0ba6 4FF48023 		mov	r3, #262144
 1805 0baa E4E7     		b	.L50
 1806              	.L241:
 1807 0bac 4FF48023 		mov	r3, #262144
ARM GAS  /tmp/cc8VKHC2.s 			page 43


 1808 0bb0 E1E7     		b	.L50
 1809              	.L242:
 1810 0bb2 4FF08073 		mov	r3, #16777216
 1811 0bb6 DEE7     		b	.L50
 1812              	.L49:
 200:Drivers/STM32F4xx_HAL_Driver/Src/stm32f4xx_hal_dma_ex.c ****     __HAL_DMA_CLEAR_FLAG (hdma, __HAL_DMA_GET_FE_FLAG_INDEX(hdma));
 1813              		.loc 1 200 0 discriminator 103
 1814 0bb8 3F4A     		ldr	r2, .L323+20
 1815 0bba 9342     		cmp	r3, r2
 1816 0bbc 2ED0     		beq	.L243
 200:Drivers/STM32F4xx_HAL_Driver/Src/stm32f4xx_hal_dma_ex.c ****     __HAL_DMA_CLEAR_FLAG (hdma, __HAL_DMA_GET_FE_FLAG_INDEX(hdma));
 1817              		.loc 1 200 0 discriminator 153
 1818 0bbe 02F58062 		add	r2, r2, #1024
 1819 0bc2 9342     		cmp	r3, r2
 1820 0bc4 2ED0     		beq	.L244
 200:Drivers/STM32F4xx_HAL_Driver/Src/stm32f4xx_hal_dma_ex.c ****     __HAL_DMA_CLEAR_FLAG (hdma, __HAL_DMA_GET_FE_FLAG_INDEX(hdma));
 1821              		.loc 1 200 0 discriminator 155
 1822 0bc6 A2F56872 		sub	r2, r2, #928
 1823 0bca 9342     		cmp	r3, r2
 1824 0bcc 2CD0     		beq	.L245
 200:Drivers/STM32F4xx_HAL_Driver/Src/stm32f4xx_hal_dma_ex.c ****     __HAL_DMA_CLEAR_FLAG (hdma, __HAL_DMA_GET_FE_FLAG_INDEX(hdma));
 1825              		.loc 1 200 0 discriminator 157
 1826 0bce 02F58062 		add	r2, r2, #1024
 1827 0bd2 9342     		cmp	r3, r2
 1828 0bd4 2AD0     		beq	.L246
 200:Drivers/STM32F4xx_HAL_Driver/Src/stm32f4xx_hal_dma_ex.c ****     __HAL_DMA_CLEAR_FLAG (hdma, __HAL_DMA_GET_FE_FLAG_INDEX(hdma));
 1829              		.loc 1 200 0 discriminator 159
 1830 0bd6 A2F58962 		sub	r2, r2, #1096
 1831 0bda 9342     		cmp	r3, r2
 1832 0bdc 28D0     		beq	.L247
 200:Drivers/STM32F4xx_HAL_Driver/Src/stm32f4xx_hal_dma_ex.c ****     __HAL_DMA_CLEAR_FLAG (hdma, __HAL_DMA_GET_FE_FLAG_INDEX(hdma));
 1833              		.loc 1 200 0 discriminator 161
 1834 0bde 02F58062 		add	r2, r2, #1024
 1835 0be2 9342     		cmp	r3, r2
 1836 0be4 27D0     		beq	.L248
 200:Drivers/STM32F4xx_HAL_Driver/Src/stm32f4xx_hal_dma_ex.c ****     __HAL_DMA_CLEAR_FLAG (hdma, __HAL_DMA_GET_FE_FLAG_INDEX(hdma));
 1837              		.loc 1 200 0 discriminator 163
 1838 0be6 A2F56872 		sub	r2, r2, #928
 1839 0bea 9342     		cmp	r3, r2
 1840 0bec 26D0     		beq	.L249
 200:Drivers/STM32F4xx_HAL_Driver/Src/stm32f4xx_hal_dma_ex.c ****     __HAL_DMA_CLEAR_FLAG (hdma, __HAL_DMA_GET_FE_FLAG_INDEX(hdma));
 1841              		.loc 1 200 0 discriminator 165
 1842 0bee 02F58062 		add	r2, r2, #1024
 1843 0bf2 9342     		cmp	r3, r2
 1844 0bf4 25D0     		beq	.L250
 200:Drivers/STM32F4xx_HAL_Driver/Src/stm32f4xx_hal_dma_ex.c ****     __HAL_DMA_CLEAR_FLAG (hdma, __HAL_DMA_GET_FE_FLAG_INDEX(hdma));
 1845              		.loc 1 200 0 discriminator 167
 1846 0bf6 A2F58962 		sub	r2, r2, #1096
 1847 0bfa 9342     		cmp	r3, r2
 1848 0bfc 24D0     		beq	.L251
 200:Drivers/STM32F4xx_HAL_Driver/Src/stm32f4xx_hal_dma_ex.c ****     __HAL_DMA_CLEAR_FLAG (hdma, __HAL_DMA_GET_FE_FLAG_INDEX(hdma));
 1849              		.loc 1 200 0 discriminator 169
 1850 0bfe 02F58062 		add	r2, r2, #1024
 1851 0c02 9342     		cmp	r3, r2
 1852 0c04 23D0     		beq	.L252
 200:Drivers/STM32F4xx_HAL_Driver/Src/stm32f4xx_hal_dma_ex.c ****     __HAL_DMA_CLEAR_FLAG (hdma, __HAL_DMA_GET_FE_FLAG_INDEX(hdma));
 1853              		.loc 1 200 0 discriminator 171
ARM GAS  /tmp/cc8VKHC2.s 			page 44


 1854 0c06 A2F56872 		sub	r2, r2, #928
 1855 0c0a 9342     		cmp	r3, r2
 1856 0c0c 22D0     		beq	.L253
 200:Drivers/STM32F4xx_HAL_Driver/Src/stm32f4xx_hal_dma_ex.c ****     __HAL_DMA_CLEAR_FLAG (hdma, __HAL_DMA_GET_FE_FLAG_INDEX(hdma));
 1857              		.loc 1 200 0 discriminator 173
 1858 0c0e 02F58062 		add	r2, r2, #1024
 1859 0c12 9342     		cmp	r3, r2
 1860 0c14 21D1     		bne	.L254
 200:Drivers/STM32F4xx_HAL_Driver/Src/stm32f4xx_hal_dma_ex.c ****     __HAL_DMA_CLEAR_FLAG (hdma, __HAL_DMA_GET_FE_FLAG_INDEX(hdma));
 1861              		.loc 1 200 0
 1862 0c16 4FF48023 		mov	r3, #262144
 1863 0c1a 00E0     		b	.L51
 1864              	.L243:
 1865 0c1c 0423     		movs	r3, #4
 1866              	.L51:
 200:Drivers/STM32F4xx_HAL_Driver/Src/stm32f4xx_hal_dma_ex.c ****     __HAL_DMA_CLEAR_FLAG (hdma, __HAL_DMA_GET_FE_FLAG_INDEX(hdma));
 1867              		.loc 1 200 0 discriminator 200
 1868 0c1e 254A     		ldr	r2, .L323+16
 1869 0c20 9360     		str	r3, [r2, #8]
 1870 0c22 BCE6     		b	.L46
 1871              	.L244:
 200:Drivers/STM32F4xx_HAL_Driver/Src/stm32f4xx_hal_dma_ex.c ****     __HAL_DMA_CLEAR_FLAG (hdma, __HAL_DMA_GET_FE_FLAG_INDEX(hdma));
 1872              		.loc 1 200 0
 1873 0c24 0423     		movs	r3, #4
 1874 0c26 FAE7     		b	.L51
 1875              	.L245:
 1876 0c28 0423     		movs	r3, #4
 1877 0c2a F8E7     		b	.L51
 1878              	.L246:
 1879 0c2c 0423     		movs	r3, #4
 1880 0c2e F6E7     		b	.L51
 1881              	.L247:
 1882 0c30 4FF48073 		mov	r3, #256
 1883 0c34 F3E7     		b	.L51
 1884              	.L248:
 1885 0c36 4FF48073 		mov	r3, #256
 1886 0c3a F0E7     		b	.L51
 1887              	.L249:
 1888 0c3c 4FF48073 		mov	r3, #256
 1889 0c40 EDE7     		b	.L51
 1890              	.L250:
 1891 0c42 4FF48073 		mov	r3, #256
 1892 0c46 EAE7     		b	.L51
 1893              	.L251:
 1894 0c48 4FF48023 		mov	r3, #262144
 1895 0c4c E7E7     		b	.L51
 1896              	.L252:
 1897 0c4e 4FF48023 		mov	r3, #262144
 1898 0c52 E4E7     		b	.L51
 1899              	.L253:
 1900 0c54 4FF48023 		mov	r3, #262144
 1901 0c58 E1E7     		b	.L51
 1902              	.L254:
 1903 0c5a 4FF08073 		mov	r3, #16777216
 1904 0c5e DEE7     		b	.L51
 1905              	.L313:
 201:Drivers/STM32F4xx_HAL_Driver/Src/stm32f4xx_hal_dma_ex.c **** 
ARM GAS  /tmp/cc8VKHC2.s 			page 45


 1906              		.loc 1 201 0 is_stmt 1
 1907 0c60 4FF48032 		mov	r2, #65536
 1908 0c64 00E0     		b	.L53
 1909              	.L255:
 1910 0c66 0122     		movs	r2, #1
 1911              	.L53:
 201:Drivers/STM32F4xx_HAL_Driver/Src/stm32f4xx_hal_dma_ex.c **** 
 1912              		.loc 1 201 0 is_stmt 0 discriminator 50
 1913 0c68 0E4B     		ldr	r3, .L323
 1914 0c6a DA60     		str	r2, [r3, #12]
 1915              	.L54:
 204:Drivers/STM32F4xx_HAL_Driver/Src/stm32f4xx_hal_dma_ex.c ****     hdma->Instance->FCR |= DMA_IT_FE;
 1916              		.loc 1 204 0 is_stmt 1
 1917 0c6c 2268     		ldr	r2, [r4]
 1918 0c6e 1368     		ldr	r3, [r2]
 1919 0c70 43F01603 		orr	r3, r3, #22
 1920 0c74 1360     		str	r3, [r2]
 205:Drivers/STM32F4xx_HAL_Driver/Src/stm32f4xx_hal_dma_ex.c ****     
 1921              		.loc 1 205 0
 1922 0c76 2268     		ldr	r2, [r4]
 1923 0c78 5369     		ldr	r3, [r2, #20]
 1924 0c7a 43F08003 		orr	r3, r3, #128
 1925 0c7e 5361     		str	r3, [r2, #20]
 207:Drivers/STM32F4xx_HAL_Driver/Src/stm32f4xx_hal_dma_ex.c ****     {
 1926              		.loc 1 207 0
 1927 0c80 236C     		ldr	r3, [r4, #64]
 1928 0c82 002B     		cmp	r3, #0
 1929 0c84 00F02781 		beq	.L315
 1930              	.L60:
 209:Drivers/STM32F4xx_HAL_Driver/Src/stm32f4xx_hal_dma_ex.c ****     }
 1931              		.loc 1 209 0
 1932 0c88 2268     		ldr	r2, [r4]
 1933 0c8a 1368     		ldr	r3, [r2]
 1934 0c8c 43F00803 		orr	r3, r3, #8
 1935 0c90 1360     		str	r3, [r2]
 1936              	.L61:
 213:Drivers/STM32F4xx_HAL_Driver/Src/stm32f4xx_hal_dma_ex.c ****   }
 1937              		.loc 1 213 0
 1938 0c92 2268     		ldr	r2, [r4]
 1939 0c94 1368     		ldr	r3, [r2]
 1940 0c96 43F00103 		orr	r3, r3, #1
 1941 0c9a 1360     		str	r3, [r2]
 157:Drivers/STM32F4xx_HAL_Driver/Src/stm32f4xx_hal_dma_ex.c ****   
 1942              		.loc 1 157 0
 1943 0c9c 0020     		movs	r0, #0
 1944 0c9e FFF7D3B9 		b	.L16
 1945              	.L324:
 1946 0ca2 00BF     		.align	2
 1947              	.L323:
 1948 0ca4 00640240 		.word	1073898496
 1949 0ca8 58640240 		.word	1073898584
 1950 0cac B8600240 		.word	1073897656
 1951 0cb0 58600240 		.word	1073897560
 1952 0cb4 00600240 		.word	1073897472
 1953 0cb8 10600240 		.word	1073897488
 1954              	.L256:
 201:Drivers/STM32F4xx_HAL_Driver/Src/stm32f4xx_hal_dma_ex.c **** 
ARM GAS  /tmp/cc8VKHC2.s 			page 46


 1955              		.loc 1 201 0
 1956 0cbc 0122     		movs	r2, #1
 1957 0cbe D3E7     		b	.L53
 1958              	.L257:
 1959 0cc0 0122     		movs	r2, #1
 1960 0cc2 D1E7     		b	.L53
 1961              	.L258:
 1962 0cc4 0122     		movs	r2, #1
 1963 0cc6 CFE7     		b	.L53
 1964              	.L259:
 1965 0cc8 4022     		movs	r2, #64
 1966 0cca CDE7     		b	.L53
 1967              	.L260:
 1968 0ccc 4022     		movs	r2, #64
 1969 0cce CBE7     		b	.L53
 1970              	.L261:
 1971 0cd0 4022     		movs	r2, #64
 1972 0cd2 C9E7     		b	.L53
 1973              	.L262:
 1974 0cd4 4022     		movs	r2, #64
 1975 0cd6 C7E7     		b	.L53
 1976              	.L263:
 1977 0cd8 4FF48032 		mov	r2, #65536
 1978 0cdc C4E7     		b	.L53
 1979              	.L264:
 1980 0cde 4FF48032 		mov	r2, #65536
 1981 0ce2 C1E7     		b	.L53
 1982              	.L265:
 1983 0ce4 4FF48032 		mov	r2, #65536
 1984 0ce8 BEE7     		b	.L53
 1985              	.L52:
 201:Drivers/STM32F4xx_HAL_Driver/Src/stm32f4xx_hal_dma_ex.c **** 
 1986              		.loc 1 201 0 is_stmt 0 discriminator 2
 1987 0cea 7F4A     		ldr	r2, .L325
 1988 0cec 9342     		cmp	r3, r2
 1989 0cee 4FD9     		bls	.L55
 201:Drivers/STM32F4xx_HAL_Driver/Src/stm32f4xx_hal_dma_ex.c **** 
 1990              		.loc 1 201 0 discriminator 51
 1991 0cf0 A83A     		subs	r2, r2, #168
 1992 0cf2 9342     		cmp	r3, r2
 1993 0cf4 31D0     		beq	.L267
 201:Drivers/STM32F4xx_HAL_Driver/Src/stm32f4xx_hal_dma_ex.c **** 
 1994              		.loc 1 201 0 discriminator 53
 1995 0cf6 02F58062 		add	r2, r2, #1024
 1996 0cfa 9342     		cmp	r3, r2
 1997 0cfc 31D0     		beq	.L268
 201:Drivers/STM32F4xx_HAL_Driver/Src/stm32f4xx_hal_dma_ex.c **** 
 1998              		.loc 1 201 0 discriminator 55
 1999 0cfe A2F56872 		sub	r2, r2, #928
 2000 0d02 9342     		cmp	r3, r2
 2001 0d04 2FD0     		beq	.L269
 201:Drivers/STM32F4xx_HAL_Driver/Src/stm32f4xx_hal_dma_ex.c **** 
 2002              		.loc 1 201 0 discriminator 57
 2003 0d06 02F58062 		add	r2, r2, #1024
 2004 0d0a 9342     		cmp	r3, r2
 2005 0d0c 2DD0     		beq	.L270
 201:Drivers/STM32F4xx_HAL_Driver/Src/stm32f4xx_hal_dma_ex.c **** 
ARM GAS  /tmp/cc8VKHC2.s 			page 47


 2006              		.loc 1 201 0 discriminator 59
 2007 0d0e A2F58962 		sub	r2, r2, #1096
 2008 0d12 9342     		cmp	r3, r2
 2009 0d14 2BD0     		beq	.L271
 201:Drivers/STM32F4xx_HAL_Driver/Src/stm32f4xx_hal_dma_ex.c **** 
 2010              		.loc 1 201 0 discriminator 61
 2011 0d16 02F58062 		add	r2, r2, #1024
 2012 0d1a 9342     		cmp	r3, r2
 2013 0d1c 29D0     		beq	.L272
 201:Drivers/STM32F4xx_HAL_Driver/Src/stm32f4xx_hal_dma_ex.c **** 
 2014              		.loc 1 201 0 discriminator 63
 2015 0d1e A2F56872 		sub	r2, r2, #928
 2016 0d22 9342     		cmp	r3, r2
 2017 0d24 27D0     		beq	.L273
 201:Drivers/STM32F4xx_HAL_Driver/Src/stm32f4xx_hal_dma_ex.c **** 
 2018              		.loc 1 201 0 discriminator 65
 2019 0d26 02F58062 		add	r2, r2, #1024
 2020 0d2a 9342     		cmp	r3, r2
 2021 0d2c 25D0     		beq	.L274
 201:Drivers/STM32F4xx_HAL_Driver/Src/stm32f4xx_hal_dma_ex.c **** 
 2022              		.loc 1 201 0 discriminator 67
 2023 0d2e A2F58962 		sub	r2, r2, #1096
 2024 0d32 9342     		cmp	r3, r2
 2025 0d34 23D0     		beq	.L275
 201:Drivers/STM32F4xx_HAL_Driver/Src/stm32f4xx_hal_dma_ex.c **** 
 2026              		.loc 1 201 0 discriminator 69
 2027 0d36 02F58062 		add	r2, r2, #1024
 2028 0d3a 9342     		cmp	r3, r2
 2029 0d3c 22D0     		beq	.L276
 201:Drivers/STM32F4xx_HAL_Driver/Src/stm32f4xx_hal_dma_ex.c **** 
 2030              		.loc 1 201 0 discriminator 71
 2031 0d3e A2F56872 		sub	r2, r2, #928
 2032 0d42 9342     		cmp	r3, r2
 2033 0d44 21D0     		beq	.L277
 201:Drivers/STM32F4xx_HAL_Driver/Src/stm32f4xx_hal_dma_ex.c **** 
 2034              		.loc 1 201 0 discriminator 73
 2035 0d46 02F58062 		add	r2, r2, #1024
 2036 0d4a 9342     		cmp	r3, r2
 2037 0d4c 02D0     		beq	.L316
 201:Drivers/STM32F4xx_HAL_Driver/Src/stm32f4xx_hal_dma_ex.c **** 
 2038              		.loc 1 201 0
 2039 0d4e 4FF48003 		mov	r3, #4194304
 2040 0d52 03E0     		b	.L56
 2041              	.L316:
 2042 0d54 4FF48033 		mov	r3, #65536
 2043 0d58 00E0     		b	.L56
 2044              	.L267:
 2045 0d5a 0123     		movs	r3, #1
 2046              	.L56:
 201:Drivers/STM32F4xx_HAL_Driver/Src/stm32f4xx_hal_dma_ex.c **** 
 2047              		.loc 1 201 0 discriminator 100
 2048 0d5c 634A     		ldr	r2, .L325+4
 2049 0d5e 9360     		str	r3, [r2, #8]
 2050 0d60 84E7     		b	.L54
 2051              	.L268:
 201:Drivers/STM32F4xx_HAL_Driver/Src/stm32f4xx_hal_dma_ex.c **** 
 2052              		.loc 1 201 0
ARM GAS  /tmp/cc8VKHC2.s 			page 48


 2053 0d62 0123     		movs	r3, #1
 2054 0d64 FAE7     		b	.L56
 2055              	.L269:
 2056 0d66 0123     		movs	r3, #1
 2057 0d68 F8E7     		b	.L56
 2058              	.L270:
 2059 0d6a 0123     		movs	r3, #1
 2060 0d6c F6E7     		b	.L56
 2061              	.L271:
 2062 0d6e 4023     		movs	r3, #64
 2063 0d70 F4E7     		b	.L56
 2064              	.L272:
 2065 0d72 4023     		movs	r3, #64
 2066 0d74 F2E7     		b	.L56
 2067              	.L273:
 2068 0d76 4023     		movs	r3, #64
 2069 0d78 F0E7     		b	.L56
 2070              	.L274:
 2071 0d7a 4023     		movs	r3, #64
 2072 0d7c EEE7     		b	.L56
 2073              	.L275:
 2074 0d7e 4FF48033 		mov	r3, #65536
 2075 0d82 EBE7     		b	.L56
 2076              	.L276:
 2077 0d84 4FF48033 		mov	r3, #65536
 2078 0d88 E8E7     		b	.L56
 2079              	.L277:
 2080 0d8a 4FF48033 		mov	r3, #65536
 2081 0d8e E5E7     		b	.L56
 2082              	.L55:
 201:Drivers/STM32F4xx_HAL_Driver/Src/stm32f4xx_hal_dma_ex.c **** 
 2083              		.loc 1 201 0 discriminator 52
 2084 0d90 574A     		ldr	r2, .L325+8
 2085 0d92 9342     		cmp	r3, r2
 2086 0d94 4FD9     		bls	.L57
 201:Drivers/STM32F4xx_HAL_Driver/Src/stm32f4xx_hal_dma_ex.c **** 
 2087              		.loc 1 201 0 discriminator 102
 2088 0d96 483A     		subs	r2, r2, #72
 2089 0d98 9342     		cmp	r3, r2
 2090 0d9a 2ED0     		beq	.L279
 201:Drivers/STM32F4xx_HAL_Driver/Src/stm32f4xx_hal_dma_ex.c **** 
 2091              		.loc 1 201 0 discriminator 104
 2092 0d9c 02F58062 		add	r2, r2, #1024
 2093 0da0 9342     		cmp	r3, r2
 2094 0da2 2ED0     		beq	.L280
 201:Drivers/STM32F4xx_HAL_Driver/Src/stm32f4xx_hal_dma_ex.c **** 
 2095              		.loc 1 201 0 discriminator 106
 2096 0da4 A2F56872 		sub	r2, r2, #928
 2097 0da8 9342     		cmp	r3, r2
 2098 0daa 2CD0     		beq	.L281
 201:Drivers/STM32F4xx_HAL_Driver/Src/stm32f4xx_hal_dma_ex.c **** 
 2099              		.loc 1 201 0 discriminator 108
 2100 0dac 02F58062 		add	r2, r2, #1024
 2101 0db0 9342     		cmp	r3, r2
 2102 0db2 2AD0     		beq	.L282
 201:Drivers/STM32F4xx_HAL_Driver/Src/stm32f4xx_hal_dma_ex.c **** 
 2103              		.loc 1 201 0 discriminator 110
ARM GAS  /tmp/cc8VKHC2.s 			page 49


 2104 0db4 A2F58962 		sub	r2, r2, #1096
 2105 0db8 9342     		cmp	r3, r2
 2106 0dba 28D0     		beq	.L283
 201:Drivers/STM32F4xx_HAL_Driver/Src/stm32f4xx_hal_dma_ex.c **** 
 2107              		.loc 1 201 0 discriminator 112
 2108 0dbc 02F58062 		add	r2, r2, #1024
 2109 0dc0 9342     		cmp	r3, r2
 2110 0dc2 26D0     		beq	.L284
 201:Drivers/STM32F4xx_HAL_Driver/Src/stm32f4xx_hal_dma_ex.c **** 
 2111              		.loc 1 201 0 discriminator 114
 2112 0dc4 A2F56872 		sub	r2, r2, #928
 2113 0dc8 9342     		cmp	r3, r2
 2114 0dca 24D0     		beq	.L285
 201:Drivers/STM32F4xx_HAL_Driver/Src/stm32f4xx_hal_dma_ex.c **** 
 2115              		.loc 1 201 0 discriminator 116
 2116 0dcc 02F58062 		add	r2, r2, #1024
 2117 0dd0 9342     		cmp	r3, r2
 2118 0dd2 22D0     		beq	.L286
 201:Drivers/STM32F4xx_HAL_Driver/Src/stm32f4xx_hal_dma_ex.c **** 
 2119              		.loc 1 201 0 discriminator 118
 2120 0dd4 A2F58962 		sub	r2, r2, #1096
 2121 0dd8 9342     		cmp	r3, r2
 2122 0dda 20D0     		beq	.L287
 201:Drivers/STM32F4xx_HAL_Driver/Src/stm32f4xx_hal_dma_ex.c **** 
 2123              		.loc 1 201 0 discriminator 120
 2124 0ddc 02F58062 		add	r2, r2, #1024
 2125 0de0 9342     		cmp	r3, r2
 2126 0de2 1FD0     		beq	.L288
 201:Drivers/STM32F4xx_HAL_Driver/Src/stm32f4xx_hal_dma_ex.c **** 
 2127              		.loc 1 201 0 discriminator 122
 2128 0de4 A2F56872 		sub	r2, r2, #928
 2129 0de8 9342     		cmp	r3, r2
 2130 0dea 1ED0     		beq	.L289
 201:Drivers/STM32F4xx_HAL_Driver/Src/stm32f4xx_hal_dma_ex.c **** 
 2131              		.loc 1 201 0 discriminator 124
 2132 0dec 02F58062 		add	r2, r2, #1024
 2133 0df0 9342     		cmp	r3, r2
 2134 0df2 1DD1     		bne	.L290
 201:Drivers/STM32F4xx_HAL_Driver/Src/stm32f4xx_hal_dma_ex.c **** 
 2135              		.loc 1 201 0
 2136 0df4 4FF48033 		mov	r3, #65536
 2137 0df8 00E0     		b	.L58
 2138              	.L279:
 2139 0dfa 0123     		movs	r3, #1
 2140              	.L58:
 201:Drivers/STM32F4xx_HAL_Driver/Src/stm32f4xx_hal_dma_ex.c **** 
 2141              		.loc 1 201 0 discriminator 151
 2142 0dfc 3D4A     		ldr	r2, .L325+12
 2143 0dfe D360     		str	r3, [r2, #12]
 2144 0e00 34E7     		b	.L54
 2145              	.L280:
 201:Drivers/STM32F4xx_HAL_Driver/Src/stm32f4xx_hal_dma_ex.c **** 
 2146              		.loc 1 201 0
 2147 0e02 0123     		movs	r3, #1
 2148 0e04 FAE7     		b	.L58
 2149              	.L281:
 2150 0e06 0123     		movs	r3, #1
ARM GAS  /tmp/cc8VKHC2.s 			page 50


 2151 0e08 F8E7     		b	.L58
 2152              	.L282:
 2153 0e0a 0123     		movs	r3, #1
 2154 0e0c F6E7     		b	.L58
 2155              	.L283:
 2156 0e0e 4023     		movs	r3, #64
 2157 0e10 F4E7     		b	.L58
 2158              	.L284:
 2159 0e12 4023     		movs	r3, #64
 2160 0e14 F2E7     		b	.L58
 2161              	.L285:
 2162 0e16 4023     		movs	r3, #64
 2163 0e18 F0E7     		b	.L58
 2164              	.L286:
 2165 0e1a 4023     		movs	r3, #64
 2166 0e1c EEE7     		b	.L58
 2167              	.L287:
 2168 0e1e 4FF48033 		mov	r3, #65536
 2169 0e22 EBE7     		b	.L58
 2170              	.L288:
 2171 0e24 4FF48033 		mov	r3, #65536
 2172 0e28 E8E7     		b	.L58
 2173              	.L289:
 2174 0e2a 4FF48033 		mov	r3, #65536
 2175 0e2e E5E7     		b	.L58
 2176              	.L290:
 2177 0e30 4FF48003 		mov	r3, #4194304
 2178 0e34 E2E7     		b	.L58
 2179              	.L57:
 201:Drivers/STM32F4xx_HAL_Driver/Src/stm32f4xx_hal_dma_ex.c **** 
 2180              		.loc 1 201 0 discriminator 103
 2181 0e36 304A     		ldr	r2, .L325+16
 2182 0e38 9342     		cmp	r3, r2
 2183 0e3a 2ED0     		beq	.L291
 201:Drivers/STM32F4xx_HAL_Driver/Src/stm32f4xx_hal_dma_ex.c **** 
 2184              		.loc 1 201 0 discriminator 153
 2185 0e3c 02F58062 		add	r2, r2, #1024
 2186 0e40 9342     		cmp	r3, r2
 2187 0e42 2ED0     		beq	.L292
 201:Drivers/STM32F4xx_HAL_Driver/Src/stm32f4xx_hal_dma_ex.c **** 
 2188              		.loc 1 201 0 discriminator 155
 2189 0e44 A2F56872 		sub	r2, r2, #928
 2190 0e48 9342     		cmp	r3, r2
 2191 0e4a 2CD0     		beq	.L293
 201:Drivers/STM32F4xx_HAL_Driver/Src/stm32f4xx_hal_dma_ex.c **** 
 2192              		.loc 1 201 0 discriminator 157
 2193 0e4c 02F58062 		add	r2, r2, #1024
 2194 0e50 9342     		cmp	r3, r2
 2195 0e52 2AD0     		beq	.L294
 201:Drivers/STM32F4xx_HAL_Driver/Src/stm32f4xx_hal_dma_ex.c **** 
 2196              		.loc 1 201 0 discriminator 159
 2197 0e54 A2F58962 		sub	r2, r2, #1096
 2198 0e58 9342     		cmp	r3, r2
 2199 0e5a 28D0     		beq	.L295
 201:Drivers/STM32F4xx_HAL_Driver/Src/stm32f4xx_hal_dma_ex.c **** 
 2200              		.loc 1 201 0 discriminator 161
 2201 0e5c 02F58062 		add	r2, r2, #1024
ARM GAS  /tmp/cc8VKHC2.s 			page 51


 2202 0e60 9342     		cmp	r3, r2
 2203 0e62 26D0     		beq	.L296
 201:Drivers/STM32F4xx_HAL_Driver/Src/stm32f4xx_hal_dma_ex.c **** 
 2204              		.loc 1 201 0 discriminator 163
 2205 0e64 A2F56872 		sub	r2, r2, #928
 2206 0e68 9342     		cmp	r3, r2
 2207 0e6a 24D0     		beq	.L297
 201:Drivers/STM32F4xx_HAL_Driver/Src/stm32f4xx_hal_dma_ex.c **** 
 2208              		.loc 1 201 0 discriminator 165
 2209 0e6c 02F58062 		add	r2, r2, #1024
 2210 0e70 9342     		cmp	r3, r2
 2211 0e72 22D0     		beq	.L298
 201:Drivers/STM32F4xx_HAL_Driver/Src/stm32f4xx_hal_dma_ex.c **** 
 2212              		.loc 1 201 0 discriminator 167
 2213 0e74 A2F58962 		sub	r2, r2, #1096
 2214 0e78 9342     		cmp	r3, r2
 2215 0e7a 20D0     		beq	.L299
 201:Drivers/STM32F4xx_HAL_Driver/Src/stm32f4xx_hal_dma_ex.c **** 
 2216              		.loc 1 201 0 discriminator 169
 2217 0e7c 02F58062 		add	r2, r2, #1024
 2218 0e80 9342     		cmp	r3, r2
 2219 0e82 1FD0     		beq	.L300
 201:Drivers/STM32F4xx_HAL_Driver/Src/stm32f4xx_hal_dma_ex.c **** 
 2220              		.loc 1 201 0 discriminator 171
 2221 0e84 A2F56872 		sub	r2, r2, #928
 2222 0e88 9342     		cmp	r3, r2
 2223 0e8a 1ED0     		beq	.L301
 201:Drivers/STM32F4xx_HAL_Driver/Src/stm32f4xx_hal_dma_ex.c **** 
 2224              		.loc 1 201 0 discriminator 173
 2225 0e8c 02F58062 		add	r2, r2, #1024
 2226 0e90 9342     		cmp	r3, r2
 2227 0e92 1DD1     		bne	.L302
 201:Drivers/STM32F4xx_HAL_Driver/Src/stm32f4xx_hal_dma_ex.c **** 
 2228              		.loc 1 201 0
 2229 0e94 4FF48033 		mov	r3, #65536
 2230 0e98 00E0     		b	.L59
 2231              	.L291:
 2232 0e9a 0123     		movs	r3, #1
 2233              	.L59:
 201:Drivers/STM32F4xx_HAL_Driver/Src/stm32f4xx_hal_dma_ex.c **** 
 2234              		.loc 1 201 0 discriminator 200
 2235 0e9c 154A     		ldr	r2, .L325+12
 2236 0e9e 9360     		str	r3, [r2, #8]
 2237 0ea0 E4E6     		b	.L54
 2238              	.L292:
 201:Drivers/STM32F4xx_HAL_Driver/Src/stm32f4xx_hal_dma_ex.c **** 
 2239              		.loc 1 201 0
 2240 0ea2 0123     		movs	r3, #1
 2241 0ea4 FAE7     		b	.L59
 2242              	.L293:
 2243 0ea6 0123     		movs	r3, #1
 2244 0ea8 F8E7     		b	.L59
 2245              	.L294:
 2246 0eaa 0123     		movs	r3, #1
 2247 0eac F6E7     		b	.L59
 2248              	.L295:
 2249 0eae 4023     		movs	r3, #64
ARM GAS  /tmp/cc8VKHC2.s 			page 52


 2250 0eb0 F4E7     		b	.L59
 2251              	.L296:
 2252 0eb2 4023     		movs	r3, #64
 2253 0eb4 F2E7     		b	.L59
 2254              	.L297:
 2255 0eb6 4023     		movs	r3, #64
 2256 0eb8 F0E7     		b	.L59
 2257              	.L298:
 2258 0eba 4023     		movs	r3, #64
 2259 0ebc EEE7     		b	.L59
 2260              	.L299:
 2261 0ebe 4FF48033 		mov	r3, #65536
 2262 0ec2 EBE7     		b	.L59
 2263              	.L300:
 2264 0ec4 4FF48033 		mov	r3, #65536
 2265 0ec8 E8E7     		b	.L59
 2266              	.L301:
 2267 0eca 4FF48033 		mov	r3, #65536
 2268 0ece E5E7     		b	.L59
 2269              	.L302:
 2270 0ed0 4FF48003 		mov	r3, #4194304
 2271 0ed4 E2E7     		b	.L59
 2272              	.L315:
 207:Drivers/STM32F4xx_HAL_Driver/Src/stm32f4xx_hal_dma_ex.c ****     {
 2273              		.loc 1 207 0 is_stmt 1 discriminator 1
 2274 0ed6 A36C     		ldr	r3, [r4, #72]
 2275 0ed8 002B     		cmp	r3, #0
 2276 0eda 7FF4D5AE 		bne	.L60
 2277 0ede D8E6     		b	.L61
 2278              	.LVL44:
 2279              	.L62:
 177:Drivers/STM32F4xx_HAL_Driver/Src/stm32f4xx_hal_dma_ex.c ****   
 2280              		.loc 1 177 0
 2281 0ee0 0220     		movs	r0, #2
 2282              	.LVL45:
 2283 0ee2 FFF7B1B8 		b	.L16
 2284              	.L326:
 2285 0ee6 00BF     		.align	2
 2286              	.L325:
 2287 0ee8 B8600240 		.word	1073897656
 2288 0eec 00640240 		.word	1073898496
 2289 0ef0 58600240 		.word	1073897560
 2290 0ef4 00600240 		.word	1073897472
 2291 0ef8 10600240 		.word	1073897488
 2292              		.cfi_endproc
 2293              	.LFE131:
 2295              		.section	.text.HAL_DMAEx_ChangeMemory,"ax",%progbits
 2296              		.align	1
 2297              		.global	HAL_DMAEx_ChangeMemory
 2298              		.syntax unified
 2299              		.thumb
 2300              		.thumb_func
 2301              		.fpu fpv4-sp-d16
 2303              	HAL_DMAEx_ChangeMemory:
 2304              	.LFB132:
 241:Drivers/STM32F4xx_HAL_Driver/Src/stm32f4xx_hal_dma_ex.c ****   if(memory == MEMORY0)
 2305              		.loc 1 241 0
ARM GAS  /tmp/cc8VKHC2.s 			page 53


 2306              		.cfi_startproc
 2307              		@ args = 0, pretend = 0, frame = 0
 2308              		@ frame_needed = 0, uses_anonymous_args = 0
 2309              		@ link register save eliminated.
 2310              	.LVL46:
 242:Drivers/STM32F4xx_HAL_Driver/Src/stm32f4xx_hal_dma_ex.c ****   {
 2311              		.loc 1 242 0
 2312 0000 1AB1     		cbz	r2, .L330
 250:Drivers/STM32F4xx_HAL_Driver/Src/stm32f4xx_hal_dma_ex.c ****   }
 2313              		.loc 1 250 0
 2314 0002 0368     		ldr	r3, [r0]
 2315 0004 1961     		str	r1, [r3, #16]
 2316              	.L329:
 254:Drivers/STM32F4xx_HAL_Driver/Src/stm32f4xx_hal_dma_ex.c **** 
 2317              		.loc 1 254 0
 2318 0006 0020     		movs	r0, #0
 2319              	.LVL47:
 2320 0008 7047     		bx	lr
 2321              	.LVL48:
 2322              	.L330:
 245:Drivers/STM32F4xx_HAL_Driver/Src/stm32f4xx_hal_dma_ex.c ****   }
 2323              		.loc 1 245 0
 2324 000a 0368     		ldr	r3, [r0]
 2325 000c D960     		str	r1, [r3, #12]
 2326 000e FAE7     		b	.L329
 2327              		.cfi_endproc
 2328              	.LFE132:
 2330              		.text
 2331              	.Letext0:
 2332              		.file 2 "/usr/arm-none-eabi/include/machine/_default_types.h"
 2333              		.file 3 "/usr/arm-none-eabi/include/sys/_stdint.h"
 2334              		.file 4 "Drivers/CMSIS/Include/core_cm4.h"
 2335              		.file 5 "Drivers/CMSIS/Device/ST/STM32F4xx/Include/system_stm32f4xx.h"
 2336              		.file 6 "Drivers/CMSIS/Device/ST/STM32F4xx/Include/stm32f401xe.h"
 2337              		.file 7 "Drivers/STM32F4xx_HAL_Driver/Inc/stm32f4xx_hal_def.h"
 2338              		.file 8 "Drivers/STM32F4xx_HAL_Driver/Inc/stm32f4xx_hal_dma.h"
 2339              		.file 9 "Drivers/STM32F4xx_HAL_Driver/Inc/stm32f4xx_hal_dma_ex.h"
ARM GAS  /tmp/cc8VKHC2.s 			page 54


DEFINED SYMBOLS
                            *ABS*:0000000000000000 stm32f4xx_hal_dma_ex.c
     /tmp/cc8VKHC2.s:18     .text.DMA_MultiBufferSetConfig:0000000000000000 $t
     /tmp/cc8VKHC2.s:24     .text.DMA_MultiBufferSetConfig:0000000000000000 DMA_MultiBufferSetConfig
     /tmp/cc8VKHC2.s:76     .text.HAL_DMAEx_MultiBufferStart:0000000000000000 $t
     /tmp/cc8VKHC2.s:83     .text.HAL_DMAEx_MultiBufferStart:0000000000000000 HAL_DMAEx_MultiBufferStart
     /tmp/cc8VKHC2.s:171    .text.HAL_DMAEx_MultiBufferStart_IT:0000000000000000 $t
     /tmp/cc8VKHC2.s:178    .text.HAL_DMAEx_MultiBufferStart_IT:0000000000000000 HAL_DMAEx_MultiBufferStart_IT
     /tmp/cc8VKHC2.s:707    .text.HAL_DMAEx_MultiBufferStart_IT:0000000000000388 $d
     /tmp/cc8VKHC2.s:714    .text.HAL_DMAEx_MultiBufferStart_IT:00000000000003a0 $t
     /tmp/cc8VKHC2.s:1124   .text.HAL_DMAEx_MultiBufferStart_IT:0000000000000698 $d
     /tmp/cc8VKHC2.s:1131   .text.HAL_DMAEx_MultiBufferStart_IT:00000000000006b0 $t
     /tmp/cc8VKHC2.s:1518   .text.HAL_DMAEx_MultiBufferStart_IT:0000000000000980 $d
     /tmp/cc8VKHC2.s:1525   .text.HAL_DMAEx_MultiBufferStart_IT:0000000000000998 $t
     /tmp/cc8VKHC2.s:1948   .text.HAL_DMAEx_MultiBufferStart_IT:0000000000000ca4 $d
     /tmp/cc8VKHC2.s:1956   .text.HAL_DMAEx_MultiBufferStart_IT:0000000000000cbc $t
     /tmp/cc8VKHC2.s:2287   .text.HAL_DMAEx_MultiBufferStart_IT:0000000000000ee8 $d
     /tmp/cc8VKHC2.s:2296   .text.HAL_DMAEx_ChangeMemory:0000000000000000 $t
     /tmp/cc8VKHC2.s:2303   .text.HAL_DMAEx_ChangeMemory:0000000000000000 HAL_DMAEx_ChangeMemory

NO UNDEFINED SYMBOLS
