:020000040800F2
:1000000048050020A9010008AF1600081D150008CA
:10001000AD160008B5020008D11D00080000000060
:10002000000000000000000000000000B3160008FF
:100030004103000800000000B1160008B5160008D2
:10004000C3010008C3010008C3010008C301000880
:10005000C3010008C3010008450300089503000818
:10006000C3010008C3010008BD030008C301000864
:10007000C3010008C3010008C3010008C301000850
:10008000B9020008C3010008C30100080000000015
:100090000000000000000000000000000D04000847
:1000A000C3010008C3010008C3010008C301000820
:1000B000C3010008C3010008C3010008C301000810
:1000C000C3010008C3010008C3010008C301000800
:1000D000C3010008C3010008C51D0008000000009E
:1000E000C3010008C3010008C301000800000000AC
:1000F000000000000000000000000000C301000834
:1001000000000000C3010008C3010008C30100088B
:1001100000000000000000000000000000000000DF
:10012000C3010008C3010008C3010008C30100089F
:10013000C3010008000000000000000000000000F3
:10014000000000000000000000000000C3010008E3
:10015000C3010008C3010008C3010008C30100086F
:10016000C3010008C30100080000000000000000F7
:10017000000000000000000000000000000000007F
:1001800000000000C30100080000000000000000A3
:10019000C3010008DFF80CD000F07AF800480047EF
:1001A000111E000848050020064880470648004701
:1001B000FEE7FEE7FEE7FEE7FEE7FEE7FEE7FEE717
:1001C000FEE7FEE741170008950100082DE9F05F02
:1001D0000546002092469B468846064681464024B6
:1001E0001BE0284641464746224600F041F8534668
:1001F0005A46C01A914110D311461846224600F0C3
:1002000028F82D1A67EB01084F46224601200021ED
:1002100000F01FF817EB00094E41201EA4F1010465
:10022000DFDC484631462A464346BDE8F09FD2B25D
:1002300001E000F8012B491EFBD270470022F6E7CF
:1002400010B513460A4604461946FFF7F0FF20464C
:1002500010BD202A04DB203A00FA02F1002070478A
:100260009140C2F1200320FA03F3194390407047F4
:10027000202A04DB203A21FA02F00021704721FAFB
:1002800002F3D040C2F12002914008431946704762
:10029000064C074D06E0E06840F0010394E80700D3
:1002A00098471034AC42F6D3FFF778FF802000085F
:1002B000A0200008FEE70000014800F0CFB80000D1
:1002C000E800002001681823CAB2103AB2FBF3F22A
:1002D000054B6FF30901032A9B5CC36500D9091D17
:1002E00081650846704700006020000810B501468F
:1002F00000208B698A6A4FF0C07453B1B3F5005F78
:1003000015D072B1012A0CD0022A0AD0032A09D1D1
:1003100004E01AB1012A06D0022A03D1C96AC90130
:1003200000D5012010BDC96AA142FAD010BD002A33
:10033000F7D0012AF2D0022AF3D0032AF3D010BD5D
:100340007047000070B5104C0121204600F0A4FA5F
:1003500018B10E480168491C01600121204600F0D7
:100360009BFA05460221204600F096FA014608480D
:100370008D42016801D1491C00E0491E0160BDE8C1
:100380007040012000F0B8B9000002404000002099
:100390005000002010B50221064800F07DFA18B187
:1003A00005480168491C0160BDE81040022000F0CA
:1003B000A3B90000000002404400002070B5104CBA
:1003C0001021204600F068FA18B10E480168491C57
:1003D00001601021204600F05FFA054620212046EA
:1003E00000F05AFA014608488D42016801D1491CC3
:1003F00000E0491E0160BDE87040102000F07CB9AB
:1004000000000240480000205400002010B52021C8
:10041000064800F041FA18B105480168491C01601E
:10042000BDE81040202000F067B900000000024045
:100430004C000020704790F83510022903D080212D
:10044000416501207047052180F83510006801687A
:1004500021F0010101600020704700002DE9F84300
:1004600004464FF00009CDF8009063484FF4165150
:10047000A56D0068B0FBF1F72E6894F85C100820B9
:1004800000FA01F131420FD021680A6852070BD5FA
:100490000A6822F004020A6094F85C108840A860A0
:1004A000606D40F00100606594F85C104FF0010849
:1004B00008FA01F0304208D021684969090604D5DC
:1004C000A860606D40F00200606594F85C10042044
:1004D0008840304208D021680968890704D5A8609F
:1004E000606D40F00400606594F85C101020884056
:1004F000304218D021680968090714D5A86020681F
:100500000168490304D50068000308D5A16C07E021
:100510000168C90503D4016821F008010160216C5C
:1005200009B12046884794F85C102020884030426A
:1005300031D021680968C9062DD5A86094F8350026
:1005400005282068016806D0490347D500680003E4
:100550001DD4616C1CE021F0160101602068416926
:1005600021F080014161206C08B9A06C20B12068A5
:10057000016821F00801016094F85C103F20884078
:10058000A86084F8349084F83580216D1FE0E16B19
:1005900009B120468847606D00282BD0606DC007E8
:1005A00014D0052084F835002068016821F001018D
:1005B00001600098401C0090B84203D82068006891
:1005C000C007F6D184F8349084F83580E16C0029B6
:1005D00010D001B02046BDE8F04308470168C905C6
:1005E000D5D4016821F01001016084F8349084F8BA
:1005F0003580CCE7BDE8F883640000202DE9F041A8
:10060000044600F053F906465CB1002584F83450E6
:10061000022084F835002068016821F001010160A2
:100620000DE00120BDE8F08100F040F9801B0528B5
:1006300005D920206065032084F83500F2E72068A2
:100640000068C007F0D12268116820480140D4E951
:1006500001031843D4E9033633431843636918434D
:10066000A3691843E3691843236A18430843616A7E
:10067000042903D1D4E90B131943084310602068FF
:100680004069666A20F0070130460E4301270428BE
:100690000CD1A06A0643E06A40B12046FFF726FE6F
:1006A00020B14020606584F83570BAE72068466163
:1006B0002046FFF707FE94F85C203F2191408160BF
:1006C000656584F835700020ACE700003F8010F0CD
:1006D00070B5044600F0EAF80546601C02D00448F4
:1006E0000078044400F0E2F8401BA042FAD370BD49
:1006F0005800002070470000044910B50A68024203
:1007000002D00860FFF7F6FF10BD0000143C014066
:100710002DE9F84FDFF860B100224FF001084FF0EB
:10072000030A4FF00F090BF1040E00BF0B6808FA23
:1007300002F42340A3426ED14D68022D01D0122D48
:100740000ED1D50800EB850CDCF820505607F70ECB
:1007500009FA07F6B5430E69BE402E43CCF8206077
:10076000066855000F790AFA05FC07F0030726EA28
:100770000C06AF40374307604E68012E05D0022EAD
:1007800003D0112E01D0122E0ED18668CF6826EA32
:100790000C06AF40374387604668A6430C79C4F324
:1007A0000014944034434460C6688C6826EA0C0602
:1007B000AC403443C4604C68E40056D52F4C2568E7
:1007C00045F480452560246822F0030504F4804444
:1007D00000942B4C2E19D6F8084895072F0F09FACC
:1007E00007F5AC43274DA84201D1002515E0264D61
:1007F000A84201D1012510E0244DA84201D10225D3
:100800000BE0234DA84201D1032506E0214DA8426B
:1008100002D1042501E028E00725BD402543C6F8A4
:100820000858DBF800405D464E689C43F60300D54F
:100830001C432C60DEF8004075464E689C43B603AE
:1008400000D51C432C600C4D08352C684E689C4329
:10085000F60200D51C432C60074D0C352C684E6801
:100860009C43B60200D51C432C60521C102AFFF496
:100870005DAFBDE8F88F0000003C01404438024005
:100880000030014000000240000402400008024025
:10089000000C0240001002400069084000D0012016
:1008A00070470AB1816170470904FBE7014880681D
:1008B0007047000058000020024881680278114407
:1008C00081607047580000200B4810B5016841F462
:1008D00000710160016841F480610160016841F4C8
:1008E00080710160032000F06FF8002000F006F82E
:1008F00000F024F8002010BD003C024070B50D4D02
:1009000004464FF47A712878B1FBF0F00A4909687F
:10091000B1FBF0F000F0E0FA48B9102C07D2002249
:100920002146501E00F030F800206C6070BD0120A0
:1009300070BD000058000020640000200A4808B57F
:10094000016841F480410160006800F4804000903B
:100950000548001F016841F080510160006800F007
:100960008050009008BD000044380240002809DB98
:1009700000F01F02012191404009800000F1E020B9
:10098000C0F8001170470000F0B40E4B1B680C4615
:10099000C3F30223C3F10705042D00D90425191D53
:1009A000072901D2002300E0DB1E012606FA05F12B
:1009B000491E214099409E40761E16403143F0BCAE
:1009C00001F007BA0CED00E0064900F007020868E4
:1009D0004FF6FF03184040EA0220034A1043086024
:1009E000704700000CED00E00000FA052DE9F0472B
:1009F0000E46050065D0DFF81481D8F80000F7B284
:100A000000F00F00B04207D288F80070D8F800005C
:100A100000F00F00B04254D128683D4C810712D538
:100A2000400703D5206840F4E05020602878000794
:100A300003D5206840F4604020602068A96820F059
:100A4000F000084320602878C0072DD0304968683E
:100A50000839012812D0022813D0032811D00968C0
:100A6000890700292DDA216821F003010143216063
:100A7000FFF71CFF814641F2883A0EE009688903BE
:100A8000EFE709688901ECE7FFF710FFA0EB090128
:100A9000514502D90320BDE8F0872068696800F05D
:100AA0000C00B0EB810FEFD1D8F80010404601F0F8
:100AB0000F01B14207D90770006800F00F00B04283
:100AC00001D00120E7E72878400705D52068E968CC
:100AD00020F4E050084320602878000706D52068FD
:100AE000296920F4604040EAC100206000F036F837
:100AF0002168084AC1F30311515CC84006490860E7
:100B00000020FFF7FBFE0020C5E70000003C02408C
:100B100008380240682000086400002004480549A5
:100B200000680968044AC1F38221515CC8407047DB
:100B30006400002008380240782000080448054975
:100B400000680968044AC1F34231515CC8407047EB
:100B5000640000200838024078200008154810B5CD
:100B6000006810F00C02144813D04110042A0FD072
:100B7000082A0ED10F4C241F2268236802F03F027E
:100B80005B0207D52068C0F38810A0FB010106E0D6
:100B9000084610BD2168C1F38811A1FB00010023A4
:100BA000FFF714FB2168C1F30141491C4900B0FB68
:100BB000F1F010BD083802400024F4002DE9F84F90
:100BC000050076D02878DFF8F8B2BE4CC00749D0CF
:100BD000DBF800105846C1F38101012908D00068F4
:100BE000C0F3810002280AD1201D0068400206D50A
:100BF0002068800336D568680028E2D032E0686853
:100C0000B0F5803F10D0B0F5A02F206810D020F4B0
:100C100080302060206820F4802020606868A0B1C7
:100C2000FFF744FE06460CE0206840F48030F4E70D
:100C300040F480202060F7E7FFF738FE801B64282F
:100C400073D820688003F7D50CE0FFF72FFE064627
:100C500005E000BFFFF72AFE801B6428F0D820685B
:100C60008003F7D42878DFF8608280074FF000090E
:100C70003ED5DBF80010584611F00C0F09D0006883
:100C8000C0F3810002280BD18D48001F006840028C
:100C900006D42068800715D5E868012809D111E03D
:100CA000E868B8B10120C8F80000FFF7FFFD06466C
:100CB00005E002E1FFF7FAFD801B0228C0D820689A
:100CC0008007F7D52068296920F0F80040EAC100C4
:100CD00020600DE0C8F80090FFF7E8FD064604E04C
:100CE000FFF7E4FD801B02281FD820688007F7D497
:100CF0002878000722D5724E744869696C3671B144
:100D000001210160FFF7D2FD074604E0FFF7CEFDA9
:100D1000C01B022809D830688007F7D50EE0C0F85C
:100D20000090FFF7C3FD074605E083E0FFF7BEFD37
:100D3000C01B02287ED830688007F7D42878400787
:100D400068D5DFF87CA100270AF1380ADAF800003C
:100D5000C0000BD4DAF8001041F08051CAF800103E
:100D6000DAF80000012700F080500090584E3068FB
:100D7000C00510D4306840F480703060FFF796FDF5
:100D8000009005E0FFF792FD0099401A022851D823
:100D90003068C005F6D54A4EA868683601280FD0DD
:100DA0000528306810D020F001003060306820F055
:100DB00004003060A868B8B1FFF778FD00900FE03C
:100DC000306840F00100F4E740F004003060F7E7DD
:100DD000FFF76CFD0099411A41F28830814264D8D6
:100DE00030688007F4D50EE0FFF760FD009007E063
:100DF000FFF75CFD0099411A41F28830814254D8D6
:100E000030688007F4D42FB1DAF8001021F0805157
:100E1000CAF80010A869C0B3DBF80010C1F3810163
:100E200002294AD00228484607D0C8F86000FFF7D8
:100E30003DFD00E039E005463AE04746C8F860006D
:100E4000FFF734FD064604E0FFF730FD801B022863
:100E50002BD820688001F7D4D5E907010843A96A97
:100E60001C4A490802EB01416A6A41EA82110843BF
:100E700095F82C1040EA01611148001F0160012023
:100E80003866FFF713FD054605E014E0FFF70EFD99
:100E9000401B022809D820688001F7D50BE000BF6D
:100EA000FFF704FD401B022802D90320BDE8F88F9C
:100EB00020688001F4D40020F8E70120F6E7000064
:100EC000083802400038024000004742800E474286
:100ED000007000400000FFFF10B5401EB0F1807FA1
:100EE00001D3012010BD4FF0E02460610F21601795
:100EF00000F06FFF0020A06107202061002010BDDE
:100F000010B590F83C20012A22D0012280F83C2024
:100F1000CA688C6822F4407222434C6822F48062D2
:100F200022430C6822F4006222430C6922F48052AE
:100F300022434C6922F400522243C969002322F45F
:100F400080420A4301684A6480F83C30002010BDAA
:100F5000022010BD70B590F83C20012A19D0012460
:100F600000F83C4F0222427050F83C3C5A689D68A1
:100F700022F070060A684968324325F0800529434B
:100F80005A6050F83C2C9160447000210170084672
:100F900070BD022070BD000010B586B0044614215B
:100FA0006846FFF74BF90E492068884216D10D4874
:100FB0000021026842F001020260006800F00100B6
:100FC00005904FF4406000900220CDE9010101201E
:100FD000CDE9031069460448FFF79AFB06B010BD3F
:100FE00000000140303802400000024070B5044665
:100FF00090F83C000D4601280DD0012684F83C6095
:10100000022084F83D0042B1042A18D0082A2AD0D0
:101010000C2A4DD139E0022070BD206800F014FC8C
:101020002068816941F0080181612068816921F0AF
:1010300004018161206881692A69114311E02068F7
:1010400000F02AFC2068816941F400618161206818
:10105000816921F480618161206881692A6941EA9E
:101060000221816124E0206800F042FC2068C1690F
:1010700041F00801C1612068C16921F00401C1612A
:101080002068C1692A69114311E0206800F05CFC06
:101090002068C16941F40061C1612068C16921F41F
:1010A0008061C1612068C1692A6941EA0221C16188
:1010B00084F83D60002084F83C0070BD10B5040049
:1010C00003D094F83D0010B107E0012010BD0020CE
:1010D00084F83C00204600F00DF8022084F83D0022
:1010E000211D206800F056FB012084F83D000020FF
:1010F00010BD000008B500680649884208D10648BE
:10110000016841F001010160006800F001000090F9
:1011100008BD0000000001404438024010B50446FC
:101120000068012200F082FB09492068884203D14F
:10113000416C41F4004141642068816801F007017D
:10114000062903D0016841F001010160002010BDB3
:10115000000001407047000070B502680446106846
:10116000D168536910F00F0F50D003F0010501F45E
:10117000907635435DD0C20705D0CA0503D5E26B32
:1011800042F00102E263420705D5DA0703D0E26BC1
:1011900042F00202E263820705D5DA0703D0E26B70
:1011A00042F00402E263020705D5DA0703D0E26BDE
:1011B00042F00802E263E26B002A33D0800604D5D5
:1011C000880602D5204600F0F7FB20684069E16BF5
:1011D000C0F38010090700D428B3204600F0DEFBDE
:1011E0002068416949061AD5416921F040014161F1
:1011F000606BA0B11B490165606BFFF71CF900280B
:1012000010D0606B016DBDE870400847830610D5B3
:101210008B060ED52046BDE8704000F0CDBB2046C1
:10122000FFF798FF70BD2046FFF794FF0020E063B2
:1012300070BD030606D50B0604D52046BDE87040F8
:1012400000F05CBD4006F3D54806F1D5D1682046D4
:1012500021F04001D160202184F8391000F05DF9BF
:1012600070BD00008D19000870B5040004D094F81A
:101270003900002510B106E0012070BD84F8385017
:10128000204600F023F8242084F839002068C16843
:1012900021F40051C160204600F0DAFB20680169AA
:1012A00021F4904101612068416921F02A014161E6
:1012B0002068C16841F40051C160E563202084F8D2
:1012C000390084F83A00002070BD000070B586B087
:1012D000064614216846FEF7B1FF2449306888426B
:1012E00041D123480025016841F4003101600068C4
:1012F00000F4003005901E481038016841F00101EB
:1013000001600068694600F0010005900C20009023
:1013100002200190012002900320039007200490F6
:101320001448FFF7F5F9154C134820604FF00060A2
:10133000C4E901054014C4E9035080106561C4E9A3
:101340000650256220466562FFF758F908B1FFF79D
:1013500071F87463002211462620A663FFF714FB80
:101360002620FFF703FB06B070BD000000440040DC
:10137000403802400000024088600240E80000203F
:1013800090F83A30202B22D1F9B1F2B190F83830F0
:10139000012B1CD081628285C2850021C16322227B
:1013A00080F83A2080F838100168CA6842F48072E8
:1013B000CA6001684A6942F001024A610068C16876
:1013C00041F02001C16000207047012070470220D9
:1013D00070470000F8B51F480178C9B14FF4806626
:1013E0004278C41F00237510807804291AD005297B
:1013F00024D008291FD1184C002249012046FFF7AC
:1014000050FA29462046BDE8F8400022FFF749BAC5
:1014100001B01049BDE8F0400A230122C91F0F485E
:1014200000F01EB862713AB100932B46FF220021F2
:1014300000F00CFEA061F8BD0096F6E7A2713AB18B
:1014400000932B46FF22002100F000FEE061F8BD72
:101450000096F6E70700002000040240A8000020E4
:101460002DE9F843044690F839001F4616460D460C
:10147000202850D1A5B19EB194F8380001284AD057
:10148000012084F838004FF00008C4F83C80212087
:1014900084F83900FFF70AFAA6848146E68426E03C
:1014A0000120BDE8F883E08C401EE084A0684B4634
:1014B000B0F5805F4FF000024FF0800120460097AA
:1014C00003D000F04CFCE8B90DE000F048FCC8B9CE
:1014D00028882168C0F308004860206908B16D1CA5
:1014E00005E0AD1C03E0216815F8010B4860E08CB5
:1014F0000028D8D14B46002240212046009700F01A
:101500002EFC08B10320CCE7202084F8390084F8B1
:1015100038800020C5E70220C3E77047FEE70000DF
:10152000F0B587B014216846FEF788FE36480024DF
:10153000016841F004010160016801F004010591B6
:10154000016841F001010160016801F001010591AC
:10155000016841F00201016000682C4E00F00200B9
:101560004FF4E8650590002229463046FFF799F9C7
:10157000274F002280213846FFF793F94FF400509F
:10158000CDE90004694638460294FFF7C1F83320DC
:1015900000902048CDE9010469461F48FFF7B8F8DC
:1015A00000950125CDE90154694630460394FFF7C3
:1015B000AFF880200090CDE9015469463846039485
:1015C000FFF7A6F8002211460620FFF7DDF90620F6
:1015D000FFF7CCF9002211460720FFF7D5F90720C5
:1015E000FFF7C4F9002211460A20FFF7CDF90A20BF
:1015F000FFF7BCF9002211461720FFF7C5F91720A5
:10160000FFF7B4F907B0F0BD3038024000040240E3
:1016100000080240000011100000024010B592B016
:1016200000240F941C2168461094FEF707FE202129
:1016300007A8FEF703FE1C481A4901605421C0E9BF
:1016400001146421C0E9031444618461FFF736FD8D
:101650000F940FA914481094FFF77CFC6020CDE98B
:1016600000040294039404940594082269460E48E9
:101670000694FFF7BBFC0C2269460B48FFF7B6FC4B
:101680000794089409944FF400500A94CDE90B4054
:1016900007A905480E94FFF733FC0348FFF77CFCCD
:1016A00012B010BD0000014068000020FEE7704746
:1016B00070477047FFF700B930B593B030216846E6
:1016C000FEF7BCFD14210CA8FEF7B8FD1A48002453
:1016D000016841F080510160006800F08050119075
:1016E0001648016821F4404141F40041016000685E
:1016F000022500F440401190012003901020009535
:1017000006950490CDE907404FF4A8700990042095
:101710000A9007200B906846FFF750FA0F20CDE99A
:101720000C05E802CDE90E4002210CA81094FFF749
:101730005DF913B030BD0000403802400070004039
:101740001048016841F4700101600F48016841F0E0
:10175000010101600C4A00210832116002680B4B44
:101760001A400260031D0A4A1A60026822F48022AD
:10177000026005480C300160024958068039086053
:101780007047000088ED00E000380240FFFFF6FEE1
:1017900010300024F0B502681D4B1E4C9F031E4DF7
:1017A0001E4E984207D0B84205D0A04203D0A842AE
:1017B00001D0B04204D122F0700C4A6842EA0C0217
:1017C000984210D0B8420ED0A0420CD0A8420AD005
:1017D000B04208D0124CA04205D0124CA04202D018
:1017E000114CA04203D122F44074CA6822434C69D0
:1017F00022F08002224302608A68C2620A68826222
:10180000984201D10969016301214161F0BD0000E5
:10181000000001400004004000080040000C0040AF
:1018200000400140004401400048014010B501F073
:101830001F030121046A99408C430462016A9A40A3
:101840001143016210BD000030B5026A22F00102AE
:101850000262026A4368846924F073050C682C43B1
:1018600022F002058A682A430A4DA8420BD122F0D1
:101870000805CA6823F440732A434D6922F0040224
:101880001D438B692B434360846149684163026255
:1018900030BD00000000014030B5026A22F01002A5
:1018A0000262026A436884690D6824F4E64444EAEB
:1018B00005248D6822F0200242EA05120B4DA84251
:1018C0000ED1CD6822F0800242EA05124D6923F460
:1018D000406343EA85038D6922F0400243EA8503B1
:1018E0004360846149688163026230BD0000014049
:1018F00030B5026A22F480720262036A4268C469E7
:1019000023F4007324F073050C682C438D6843EABC
:1019100005230C4DA8420ED1CD6823F4006343EAA1
:1019200005234D6922F4405242EA05128D6923F4E1
:10193000806342EA05124260C4614968C163036280
:1019400030BD00000000014030B5026A22F4805230
:101950000262046A4268C3690D6823F4E64343EAFD
:1019600005238D6824F4005444EA0534064DA8424A
:1019700004D14D6922F4804242EA85124260C3617B
:1019800049680164046230BD0000014010B5806BFD
:101990000021C185C184FFF7DDFB10BD0168CA6865
:1019A00022F49072CA6001684A6922F001024A6119
:1019B000202180F83A10704710B590F83A1022298B
:1019C00001D0022010BD8168B1F5805F11D001699E
:1019D000002901681FD0496801F07F03816A4A1C11
:1019E00082620B70C18D491E0904090CC18518D093
:1019F0002BE00269816A002A0268526805D0D2B2DF
:101A00000A80816A491C8162ECE7C2F308020A80FD
:101A1000816A891CF7E74A68816A4B1C83620A70F5
:101A2000E0E70168CA6822F02002CA600168CA685B
:101A300022F48072CA6001684A6922F001024A6198
:101A4000202180F83A10FFF7C5FC002010BD0000EF
:101A50002DE9F041044600680169E26821F4405133
:101A6000114301612169A068E2690843616911437A
:101A700022680843D16849F20C6399430143D1605D
:101A800020684169A26921F4407111434161E26912
:101A90006425B2F5004F9748974922684FF0320805
:101AA0003FD08A4201D082427CD1FFF747F800EB59
:101AB000C00101EB001061688900B0FBF1F6FFF78F
:101AC0003DF800EBC00101EB001061688900B0FB3C
:101AD000F1F0B0FBF5F06FF01801484306EB800120
:101AE00008EB0110B0FBF5F000F0F006FFF726F868
:101AF00000EBC00101EB001061688900B0FBF1F060
:101B0000B0FBF5F006EB0016FFF718F800EBC0018C
:101B100001EB001061688900B0FBF1F7FFF70EF8E8
:101B2000D2E08A4201D082423DD1FFF707F800EBB4
:101B3000C00101EB001061684900B0FBF1F0B0FB9F
:101B4000F5F00601FEF7FAFF00EBC00101EB001013
:101B500061684900B0FBF1F7FEF7F0FF00EBC00150
:101B600001EB001061684900B0FBF1F0B0FBF5F04B
:101B70006FF01801484307EB800108EBC100B0FB90
:101B8000F5F000F0F80006EB4006FEF7D7FF00EB9B
:101B9000C00101EB001061684900B0FBF1F7FEF7EE
:101BA000CDFF3CE055E0FEF7B9FF00EBC00101EBD3
:101BB000001061684900B0FBF1F0B0FBF5F00601E0
:101BC000FEF7ACFF00EBC00101EB001061684900BB
:101BD000B0FBF1F7FEF7A2FF00EBC00101EB001034
:101BE00061684900B0FBF1F0B0FBF5F06FF018014F
:101BF000484307EB800108EBC100B0FBF5F000F0B3
:101C0000F80006EB4006FEF789FF00EBC00101EB90
:101C1000001061684900B0FBF1F7FEF77FFF00EBB1
:101C2000C00101EB001061684900B0FBF1F0B0FBAE
:101C3000F5F06FF01801484307EB800108EBC10095
:101C4000B0FBF5F000F00700216830448860BDE883
:101C5000F081FEF763FF00EBC00101EB001061684B
:101C60008900B0FBF1F6FEF759FF00EBC00101EB74
:101C7000001061688900B0FBF1F0B0FBF5F06FF087
:101C80001801484306EB800108EB0110B0FBF5F0AA
:101C900000F0F006FEF742FF00EBC00101EB001080
:101CA00061688900B0FBF1F0B0FBF5F006EB0016BF
:101CB000FEF734FF00EBC00101EB00106168890002
:101CC000B0FBF1F7FEF72AFF00EBC00101EB0010BB
:101CD00061688900B0FBF1F0B0FBF5F06FF018011E
:101CE000484307EB800108EB0110B0FBF5F000F072
:101CF0000F00A9E7001401400010014090F83910CE
:101D0000212901D0022070478168B1F5805F016A06
:101D10000BD04A1C0262026809785160C18C491ECE
:101D20000904090CC1840ED017E009880268C1F3C8
:101D30000801516001690029016A02D0491C016251
:101D4000ECE7891CFBE70168CA6822F08002CA60E0
:101D50000068C16841F04001C160002070472DE972
:101D6000F041984617460E460446069D1DE0681C45
:101D70001BD02DB1FEF79AFDA0EB0800A84214D9A4
:101D80002068C16821F4D071C1602068416921F0E8
:101D900001014161202084F8390084F83A000020D4
:101DA00084F838000320BDE8F0812068006836EA36
:101DB000000004D00020B842D9D00020F3E7012071
:101DC000F9E700000148FFF7C7B90000A8000020AC
:101DD000FEE70907090E002804DB00F1E02080F887
:101DE0000014704700F00F0000F1E02080F8141D8F
:101DF000704702E008C8121F08C1002AFAD17047D4
:101E00007047002001E001C1121F002AFBD170477A
:101E1000884C08B504F10A09617889F8001004F1CA
:101E20000D0AA1788AF8001004F11001E07808701A
:101E3000C91C20790870FEF747FDFFF73DFCFFF74E
:101E40006FFBFFF7EBFB7C480025016841F40011B4
:101E5000016000682A4600F4001000902946102016
:101E6000FEF792FD1020FEF781FD75487349016071
:101E70004FF4E131C0E901150C21C560C0E90451FE
:101E80008561C561FFF7F0F96D4808214038FFF71B
:101E900045F96B480C214038FFF740F9684E403E49
:101EA0003068C56330680564DFF898B1012291029B
:101EB0005846FEF7F6FC4FF402774FF01E085D49D6
:101EC0000322C91D5E48FFF75BFAFEF7EFFCA06333
:101ED000E16B626B411A914233D9E063206C0A23B3
:101EE000C0EB00108100206B0322B1FBF0F12162F6
:101EF000616CC1EB01118900B1FBF0F16162A16C71
:101F0000C1EB01118900B1FBF0F1A162E16C256424
:101F1000C1EB01118900B1FBF0F0E0628AF80250D8
:101F200089F8025065644349A5640A314448E56470
:101F3000FFF796FA3F490A2303220D314048FFF785
:101F40008FFAA069B84210D9002240215846FEF706
:101F5000A8FC012280213C48FEF7A3FC00234FF49B
:101F600080625110CDF8008011E0B0F5FA7F14D2F4
:101F7000012240215846FEF794FC0022802132487D
:101F8000FEF78FFC1E234FF4007200210095A0691C
:101F900000F05CF83168C8630BE00022402158462D
:101FA000FEF77FFC002280212748FEF77AFC30688C
:101FB000C563E069B84211D900224FF480715846D8
:101FC000FEF76FFC012251025846FEF76AFC00231F
:101FD0004FF480625110CDF8008012E0B0F5FA7F26
:101FE00015D2012211025846FEF75BFC00224FF485
:101FF00000715846FEF755FC1E234FF40072002175
:102000000095E06900F022F8316808640DE00022D4
:102010004FF480715846FEF744FC00224FF40071E3
:102020005846FEF73EFC306805641E20FEF750FB64
:1020300045E7000000000020303802400044004026
:10204000A8000020000402400008024010B5401A19
:10205000029CE41A6043511A90FBF1F0184410BD41
:102060000006101600061016000000000000000018
:10207000010203040607080900000000010203042E
:10208000A02000080000002068000000F21D0008E9
:102090000821000868000020E0040000021E00087B
:1020A0000104050607000000000000000000000019
:1020B000000000000000000000020000000200001C
:1020C0000000000000000000000000000000000010
:1020D00055010000E80300000000000000000000BF
:1020E00000000000000000000000000000000000F0
:1020F00000000000000000000100000010000000CF
:08210000000000000024F400BF
:040000050800019559
:00000001FF
